:020000040800F2
:1000000010040020D5340008F5300008F73000084F
:10001000F9300008FB300008FD3000080000000047
:10002000000000000000000000000000AF2E0008EB
:10003000FF30000800000000692E0008DB2A0008DD
:1000400045350008493500084D3500085135000890
:1000500055350008593500085D3500086135000840
:1000600065350008693500086D35000871350008F0
:1000700075350008793500087D35000881350008A0
:1000800085350008893500088D3500089135000850
:1000900095350008993500089D350008A135000800
:1000A000A535000801310008A9350008AD35000864
:1000B0000B310008B1350008B5350008B935000826
:1000C000BD350008C1350008C535000823310008DA
:1000D000C9350008CD350008D1350008D5350008F0
:1000E00035310008D9350008DD35000870B582B01B
:1000F00004000025002C05D14FF4B871DFF8B409D5
:1001000000F045FD2068002809D0207810F00F0F7E
:1001100005D140F27111DFF89C0900F038FD20781C
:10012000C00740F19580606800280DD06068B0F588
:10013000803F09D06068B0F5A02F05D040F277115C
:10014000DFF8700900F023FDDFF83009006810F0D7
:100150000C0004280BD0DFF82409006810F00C0014
:1001600008280ED1DFF814090068C00309D5DFF8AC
:100170000809006880036BD56068002868D10120F9
:10018000A1E26068B0F5803F08D1DFF8EC080068B4
:1001900050F48030DFF8E018086038E0606800282C
:1001A00010D1DFF8D408006830F48030DFF8C818C8
:1001B0000860DFF8C408006830F48020DFF8B81861
:1001C000086024E06068B0F5A02F10D1DFF8A8081F
:1001D000006850F48020DFF8A0180860DFF8980865
:1001E000006850F48030DFF8901808600FE0DFF806
:1001F0008808006830F48030DFF87C180860DFF889
:100200007808006830F48020DFF86C1808606068B7
:1002100000280ED000F0BCFC0500DFF85C08006888
:10022000800315D400F0B4FC401B6528F5D30320EF
:1002300049E200F0ADFC0500DFF83C0800688003EF
:1002400006D500F0A5FC401B6528F5D303203AE253
:100250002078800771D52069002808D020690128FE
:1002600005D040F2AB11DFF84C0800F090FC60695B
:10027000202805D34FF4D671DFF8380800F087FC4A
:10028000DFF8F807006810F00C0F0BD0DFF8EC0770
:10029000006810F00C0008281AD1DFF8E0070068A9
:1002A000C00315D4DFF8D0070068800704D52069A3
:1002B000012801D0012006E2DFF8BC07006830F019
:1002C000F800616950EAC100DFF8AC17086034E05B
:1002D000206900281ED00120DFF8DC17086000F03C
:1002E00057FC0500DFF890070068800706D400F08F
:1002F0004FFC401B0328F5D30320E4E1DFF8780727
:10030000006830F0F800616950EAC100DFF8681752
:10031000086012E00020DFF8A017086000F038FC49
:100320000500DFF854070068800706D500F030FCB0
:10033000401B0328F5D30320C5E12078000738D5FA
:10034000A069002808D0A069012805D04FF4F671F3
:10035000DFF8600700F01BFCA069002816D0012020
:10036000DFF85817086000F013FC0500DFF84007BD
:100370000068800706D400F00BFC401B0328F5D36F
:100380000320A0E1012000F07BFB12E00020DFF859
:100390002C17086000F0FCFB0500DFF8140700686C
:1003A000800706D500F0F4FB401B0328F5D303209B
:1003B00089E12078400740F1B6800026E0680028F7
:1003C0000BD0E068012808D0E068052805D040F28D
:1003D0001B21DFF8E00600F0DAFBDFF8E406006836
:1003E000C00010D4DFF8D806006850F08050DFF865
:1003F000D0160860DFF8C806006810F08050009042
:10040000009801200600DFF8BC060068C00516D47D
:10041000DFF8B006006850F48070DFF8A8160860B6
:1004200000F0B6FB0500DFF89C060068C00506D4A6
:1004300000F0AEFB401B6528F5D3032043E1E068E4
:10044000012808D1DFF88006006850F00100DFF8CD
:100450007816086037E0E068002810D1DFF86806F9
:10046000006840084000DFF860160860DFF85806B2
:10047000006830F00400DFF85016086023E0E06800
:10048000052810D1DFF84006006850F00400DFF8BE
:1004900038160860DFF83006006850F00100DFF819
:1004A000281608600FE0DFF82006006840084000CA
:1004B000DFF814160860DFF81006006830F004005A
:1004C000DFF804160860E068002810D000F060FB38
:1004D0000500DFF8F4050068800719D400F058FB28
:1004E000401B41F289318842F3D30320EBE000F056
:1004F0004FFB0500DFF8D0050068800708D500F045
:1005000047FB401B41F289318842F3D30320DAE0F4
:10051000F6B2012E07D1DFF8A805006830F0805050
:10052000DFF89C150860E06900280BD0E06901281D
:1005300008D0E069022805D040F2B921DFF874053F
:1005400000F025FBE069002800F0BC80DFF82C05F6
:10055000006810F00C00082800F0B280E069022862
:1005600040F09B80206A002809D0206AB0F5803FC7
:1005700005D040F2C221DFF83C0500F008FB606ABC
:1005800000283DD0606AB0F5802F39D0606AB0F5A0
:10059000002F35D0606AB0F5402F31D0606AB0F5D9
:1005A000801F2DD0606AB0F5A01F29D0606AB0F519
:1005B000C01F25D0606AB0F5E01F21D0606AB0F599
:1005C000001F1DD0606AB0F5101F19D0606AB0F529
:1005D000201F15D0606AB0F5301F11D0606AB0F5E9
:1005E000401F0DD0606AB0F5501F09D0606AB0F5A9
:1005F000601F05D040F2C321DFF8B80400F0C7FA4D
:100600000020DFF8C814086000F0C2FA0500DFF827
:1006100068040068800106D500F0BAFA401B032880
:10062000F5D303204FE0206AB0F5803F16D1A068D3
:10063000002809D0A068B0F5003F05D040F2D921CC
:10064000DFF8700400F0A3FADFF83004006830F43B
:100650000030A1680843DFF824140860DFF81C04A8
:10066000006830F47410216A0843616A0843DFF8B7
:100670000C1408600120DFF85414086000F088FAB8
:100680000500DFF8F403006880011BD400F080FA55
:10069000401B0328F5D3032015E00020DFF82C14BD
:1006A000086000F075FA0500DFF8CC0300688001EF
:1006B00008D500F06DFA401B0328F5D3032002E0B3
:1006C000012000E0002076BD70B504000D0000267A
:1006D000002C05D140F22E31DFF8D80300F057FA94
:1006E000207810F00F0F05D140F22F31DFF8C4034E
:1006F00000F04DFA002D09D0012D07D0022D05D0B4
:100700004FF44C71DFF8AC0300F041FADFF8C0039E
:10071000006810F00700A84211D2DFF8B4030068A7
:10072000C008C0002843DFF8A8130860DFF8A00362
:10073000006810F00700A84201D0012022E12078D3
:10074000800740D52078400707D5DFF830030068E0
:1007500050F4E060DFF8241308602078000707D524
:10076000DFF81803006850F46050DFF810130860D9
:10077000A06800281DD0A06880281AD0A068902802
:1007800017D0A068A02814D0A068B02811D0A06805
:10079000C0280ED0A068D0280BD0A068E02808D0D0
:1007A000A068F02805D040F25631DFF8080300F0C9
:1007B000EEF9DFF8C802006830F0F000A1680843E5
:1007C000DFF8B81208602078C0076BD56068002891
:1007D0000BD06068012808D06068022805D040F27C
:1007E0005D31DFF8D00200F0D2F96068012806D14F
:1007F000DFF884020068800312D40120C2E0606840
:10080000022806D1DFF870020068800108D40120B8
:10081000B8E0DFF864020068800701D40120B1E08D
:10082000DFF8580200688008800061680843DFF83C
:100830004C12086000F0ACF90600606801280FD186
:10084000DFF83802006810F00C0004282AD000F00D
:100850009FF9801B41F289318842F1D3032091E056
:10086000606802280FD1DFF81402006810F00C0055
:10087000082817D000F08CF9801B41F2893188429A
:10088000F1D303207EE0DFF8F401006810F00C0FD4
:1008900008D000F07DF9801B41F289318842F2D303
:1008A00003206FE0DFF82802006810F0070085429F
:1008B00011D2DFF81C020068C008C0002843DFF82E
:1008C00010120860DFF80802006810F00700A84264
:1008D00001D0012056E02078400720D5E0680028AC
:1008E00015D0E068B0F5806F11D0E068B0F5A06F6A
:1008F0000DD0E068B0F5C06F09D0E068B0F5E06FEA
:1009000005D040F2B131DFF8AC0100F040F95B48AE
:10091000006830F4E060E1680843584908602078D6
:10092000000720D52069002814D02069B0F5806F19
:1009300010D02069B0F5A06F0CD02069B0F5C06F61
:1009400008D02069B0F5E06F04D04FF46E715948BB
:1009500000F01DF94948006830F46050216950EA00
:10096000C1004649086000F00EF85A49434A12682F
:10097000C2F30312895CC8404C490860002000F0B3
:100980000DF9002070BD70B586B001A85249102243
:1009900000F04CF951480088ADF800000021002219
:1009A000002300240020354D2D68290011F00C058E
:1009B000042D02D0082D03D01DE03B4D28001CE083
:1009C00001ADC1F38346AD5D2C00CD030DD56D4661
:1009D0002A4E3668C6F34046AD5D2A00324D05FB0F
:1009E00004F5B5FBF2F52B0003E03D4D05FB04F5E6
:1009F0002B00180001E02C4D280006B070BD2B48DC
:100A00000068704780B5FFF7FAFF36491B4A126845
:100A1000C2F3C222895CC84002BD38B504000D0093
:100A2000002C04D14FF4A661224800F0B0F8002D4C
:100A300004D140F231511F4800F0A9F80F20206086
:100A40000E48006810F0030060600C48006810F069
:100A5000F000A0600948006810F4E060E06007481A
:100A60000068C00810F4E06020611948006810F0C8
:100A70000700286031BD0000001002400410024051
:100A800081B00A490968C9084FF47A72B1FBF2F1E2
:100A900001FB00F1009100BF00994A1E009200295D
:100AA000F9D101B07047000000127A000400002064
:100AB0002410024068320008000042428004424292
:100AC0001C100240007000402010024060004242B2
:100AD00000200240C4340008B4340008820C00082E
:100AE00000093D000C35000880B500F0CBF800F09F
:100AF0000BF800F0DBF800F06DF900F00AFB00F0F5
:100B0000C5FB00F078FCFEE700B58FB005A82821F2
:100B100000F09CFC6846142100F098FC0120059030
:100B20005FF4803006900020079001200990022099
:100B30000C905FF480300D905FF4E0100E9005A8EB
:100B4000FFF7D4FA002801D000F020F80F20009021
:100B500002200190002002904FF48060039000205A
:100B6000049002216846FFF7AFFD002801D000F095
:100B70000DF80FB000BD10B504002068024988428E
:100B800001D100F067FC10BD002C01407047704798
:100B900001480068704700BFC411002070B588B0DC
:100BA00004000025002600222100192000F0C5FCC9
:100BB000192000F0E1FC1948006850F40060174962
:100BC00008601648006810F400600090009801A9C1
:100BD00002A8FFF722FFFFF715FF05001048B5FB3D
:100BE000F0F0401E06000F480F49086040F2E73061
:100BF0000D49C8600C48466000200B490861002080
:100C000009498860084800F0D1FC002803D1064853
:100C100000F02FFD00E0012008B070BD1810024068
:100C200040420F00002C0140F4100020103A07D37E
:100C300030B4B1E83810103AA0E83810F9D230BC1E
:100C4000530724BFB1E80810A0E8081044BF51F8CA
:100C5000043B40F8043BD20724BF31F8022B20F8B4
:100C6000022B44BF0B7803707047083A07D3B1E8F2
:100C70000810083A40F8043B40F804CBF7D2530779
:100C8000E4E7010280B50848006850F0100006490A
:100C90000860032000F03DFC0020FFF77FFF00F01C
:100CA00015FE002002BD00000020024000B585B006
:100CB00001A8102100F0CAFB4148006850F0100064
:100CC0003F4908603E48006810F01000009000980E
:100CD0003B48006850F020003949086038480068F7
:100CE00010F02000009000983548006850F0040093
:100CF000334908603248006810F004000090009802
:100D00002F48006850F008002D4908602C48006802
:100D100010F008000090009800224FF4204129486C
:100D200000F0CAFF00221E21274800F0C5FF4FF443
:100D300020400190012002900020039002200490A6
:100D400001A9204800F0F2FD4FF4804001900320FB
:100D5000029001A91B4800F0E9FD1E20019001202E
:100D60000290002003900220049001A9164800F090
:100D7000DDFD4EF6FF7001900320029001A913489B
:100D800000F0D4FD4FF480500190114802900020F3
:100D9000039001A90D4800F0C9FD4FF41F400190D8
:100DA0000320029001A9084800F0C0FD002205219F
:100DB000282000F0C2FB282000F0DEFB05B000BDBB
:100DC000181002400010014000080140000C0140D2
:100DD0000000311080B53748374908604FF4827001
:100DE0003549486000203449886000203249C86095
:100DF00000203149086100202F4948614FF40070FC
:100E00002D49886138202C49C86100202A49086290
:100E10000020294948620020274988620A20264983
:100E2000C862254800F0A2FF002801D0FFF7AEFEFF
:100E300001BD10B586B0040001A8102100F006FB2A
:100E400020681C49884233D11C48006850F4805007
:100E50001A4908601948006810F480500090009802
:100E60001648006850F004001449086013480068F0
:100E700010F0040000900098A02001900220029041
:100E80000320049001A90E4800F050FD402001907D
:100E9000002002900020039001A9094800F046FDBF
:100EA00000220521232000F048FB232000F064FBF2
:100EB00006B010BD003001409C1000201810024008
:100EC00000080140012110F01F029140DFF87C234F
:100ED00040B2430942F82310704710B440B20028D2
:100EE00009D50A01DFF8683340B210F00F0423443B
:100EF00003F8042C03E00A01D64B40B21A5410BC8C
:100F00007047026832F008020A43026070470268C4
:100F100032F070020A4302607047016851F08001AC
:100F20000160704781627047806A7047C162704794
:100F3000026A0A4302627047F0B4012901D100231A
:100F400016E0042901D1012312E0102901D1022366
:100F50000EE0402901D103230AE0B1F5807F01D1E1
:100F6000042305E0B1F5806F01D1052300E00623DD
:100F700010F11804B84DDBB2ED5C2C19256803267E
:100F8000B64FDBB2FF5CBE40B5432560056A022662
:100F9000B34FDBB2FF5CBE40B54312F00206B04F68
:100FA000DBB2FF5CBE403543056245684FF4807696
:100FB000AC4FDBB2FF5CBE40B54312F48076A94F64
:100FC000DBB2FF5CBE4035434560F0BC7047F0B417
:100FD000012901D1002316E0042901D1012312E0E7
:100FE000102901D102230EE0402901D103230AE098
:100FF000B1F5807F01D1042305E0B1F5806F01D107
:10100000052300E0062310F11804934DDBB2ED5CDC
:101010002C1925687326914FDBB2FF5CBE40B543A7
:101020008E4EDBB2F65C12FA06F635432560F0BC54
:10103000704741637047416C51F40041416470470F
:10104000C16851F00201C1607047416951F001016E
:101050004161704781B0844909680143824A116047
:101060008149096801400091009901B0704781B041
:101070007E49096801437D4A11607C490968014045
:101080000091009901B07047F0B410EB116391FA30
:10109000A1F4B4FA84F491FAA1F5B5FA85F51E68C5
:1010A0000F27E4B2A40017FA04F436EA0404EDB200
:1010B000AD0012FA05F52C431C60F0BC7047F0B48B
:1010C00010EB116391FAA1F4B4FA84F491FAA1F54A
:1010D000B5FA85F51E680327E4B2A40017FA04F4F4
:1010E00036EA0404EDB2AD0012FA05F52C431C609B
:1010F000F0BC704710B4C36833EA11230C0A94FAA9
:10110000A4F4B4FA84F412FA04F42343C36010BCC8
:10111000704738B50420FFF7AAFF092240F20111F9
:101120005348FFF7B1FF002240F201115048FFF78A
:10113000E1FF032240F201114D48FFF7C0FF0021FB
:101140001C20FFF7CAFE1C20FFF7BCFE0120FFF7A2
:1011500081FF00215FF08040FFF7D9FE08215FF09A
:101160008040FFF7CEFE434800684349884206D3DB
:10117000404800684049B0FBF1F0411E00E000210A
:101180005FF08040FFF7CEFE5FF08040FFF7CCFEBF
:1011900002003848006841F2A861A1FB0001521C1E
:1011A000364BA3FB022300F0A7FE02000B00110048
:1011B0005FF08040FFF73DFF5FF08040FFF7B4FE37
:1011C00004005FF08040FFF7AFFE0500294800688B
:1011D0003221A1FB0001621C284BA3FB022300F07B
:1011E0008BFE04002348006841F2A861A1FB0001C6
:1011F0006A1C224BA3FB022300F07EFE01195FF064
:101200008040FFF793FE702201215FF08040FFF7DE
:10121000DEFE002201215FF08040FFF78DFE5FF0CF
:101220008040FFF70DFF01215FF08040FFF780FE57
:101230005FF08040FFF7FFFE5FF08040FFF76DFE3C
:101240005FF08040FFF701FF31BD000000E100E0EA
:1012500018ED00E000E400E01C350008243500082B
:101260002C350008343500081C10024018100240CC
:1012700000080140040000208096980040420F00C2
:10128000806A7047C16270474163704700B58FB094
:101290000AA84A491422FFF7C9FC00210AA800F055
:1012A000AFF84749086005A846491422FFF7BEFC7D
:1012B000002105A800F0A4F84349086068464349A6
:1012C0001422FFF7B3FC0021684600F099F840496A
:1012D000086000220121032000F0D0FE3D49086093
:1012E0000FB000BD10B50400012000F0A0F8FBE72E
:1012F000F8B505004FF42F600090009841F2A86106
:101300008842F7D2009C5FF08040FFF7B9FF0200EF
:1013100031480068A4FB0001521C304BA3FB0223A0
:1013200000F0EAFD02000B0011005FF08040FFF7C3
:10133000ABFF5FF08040FFF7A3FF0400009F5FF06A
:101340008040FFF79DFF0600234800683221A1FB83
:101350000001621C214BA3FB022300F0CDFD040021
:101360001D480068A7FB0001721C1C4BA3FB022355
:1013700000F0C2FD01195FF08040FFF783FF0520F8
:1013800000F0C4FE0098401C0090B6E710B50400C1
:1013900000224FF40051124800F08EFC4FF47A7096
:1013A00000F045F801224FF400510D4800F084FC94
:1013B0004FF47A7000F03BF8EAE700007834000858
:1013C000A41100208C340008A8110020A0340008CB
:1013D000AC110020A01100200400002040420F00AA
:1013E000001001400100002009B2842902D009B296
:1013F000CA1C1018704780B500F0C5FF002002BD60
:101400003EB504000D00B4F90800FFF7EBFF02A998
:10141000019100902B00226992B22168606800F06F
:1014200089FE012801D0002000E002983EBD38B5B9
:1014300004000120B4FBF0F5002D01D0280000E0ED
:10144000012000F079FF002032BD0000002201F0F1
:1014500083BA000003480068034909780818014965
:1014600008607047C41100200800002010F0070237
:10147000DFF820311B6819004FF6FF031940DFF831
:10148000183153EA02231943DFF808311960704715
:1014900040480068C0F302207047012110F01F028D
:1014A00091403E4A40B2430942F82310704710B4BD
:1014B00040B2002808D50A01394B40B210F00F04A1
:1014C000234403F8042C03E00A01364B40B21A54BB
:1014D00010BC704770B4030013F00704D4F1070682
:1014E000052E01D3042001E0D4F10700261D072EAC
:1014F00001D2002500E0E51E012616FA00F0401E8C
:101500000840A8400121A940491E1140084370BC71
:10151000704710B50400072C0BD0062C09D0052C01
:1015200007D0042C05D0032C03D0A2211E48FFF7BE
:101530002EFB2000FFF79AFF10BDF8B504000D0048
:1015400016000027102E03D3BA211748FFF71FFB00
:10155000102D03D3BB211448FFF719FBFFF798FFA9
:101560000700320029003800FFF7B4FF0100200017
:1015700040B2FFF79CFFF1BD10B5040064B2002C2F
:1015800003D5CE210848FFF702FB200040B2FFF749
:1015900084FF10BD0CED00E00000FA0500E100E062
:1015A00018ED00E000E400E0B031000810B50400E0
:1015B000002C01D101205BE02068DFF8081188428F
:1015C00012D02068B0F1804F0ED02068DFF8F810FC
:1015D000884209D02068DFF8F410884204D0D9216D
:1015E000DFF8EC00FFF7D3FAA068002810D0A0685D
:1015F00010280DD0A06820280AD0A068402807D065
:10160000A068602804D0DA21DFF8C400FFF7BFFA31
:10161000206900280CD02069B0F5807F08D02069AF
:10162000B0F5007F04D0DB21DFF8A400FFF7AFFAAC
:10163000A069002807D0A069802804D0DC21DFF849
:101640009000FFF7A4FA94F83D00002805D100208F
:1016500084F83C00200000F037F9022084F83D00B7
:10166000211D206800F0F3F8012084F83D000020DF
:1016700010BD10B504002068DFF84810884213D070
:101680002068B0F1804F0FD02068DFF83C1088420E
:101690000AD02068DFF83410884205D040F261118A
:1016A000DFF83000FFF773FA2068C06850F00100DF
:1016B0002168C8602068006850F001002168086057
:1016C000002010BD002C0140000400400008004034
:1016D000203300082033000810B50400206800699A
:1016E00080071AD52068C068800716D57FF00200F1
:1016F00021680861012020772068806910F0030FBD
:1017000003D0200001F041F905E0200001F03EF98E
:10171000200001F03CF90020207720680069400794
:101720001AD52068C068400716D57FF004002168EC
:101730000861022020772068806910F4407F03D080
:10174000200001F022F905E0200001F01FF920003F
:1017500001F01DF9002020772068006900071AD5E4
:101760002068C068000716D57FF00800216808616E
:10177000042020772068C06910F0030F03D02000F8
:1017800001F003F905E0200001F000F9200001F06C
:10179000FEF80020207720680069C0061AD520686E
:1017A000C068C00616D57FF01000216808610820C7
:1017B00020772068C06910F4407F03D0200001F03A
:1017C000E4F805E0200001F0E1F8200001F0DFF886
:1017D0000020207720680069C0070AD52068C0680B
:1017E000C00706D57FF00100216808612000FFF7DF
:1017F000C2F92068006900060AD52068C0680006A2
:1018000006D57FF0800021680861200001F0C0F853
:101810002068006940060AD52068C068400606D5E1
:101820007FF0400021680861200001F0B2F82068D4
:10183000006980060AD52068C068800606D57FF05A
:10184000200021680861200001F0A4F810BD0022EA
:1018500003681A00DFF86C30984208D0B0F1804F6E
:1018600005D0164B984202D0154B984203D132F066
:1018700070024B681A43DFF84C30984208D0B0F140
:10188000804F05D00D4B984202D00D4B984203D1AA
:1018900032F44072CB681A4332F080024B691A432B
:1018A00002608B68C3620B688362DFF8183098426D
:1018B00001D10B69036301234361704700040040B9
:1018C00000080040002C01407047000080B514481B
:1018D000006850F00100124908601148006810F0DB
:1018E0000100009000980F48006850F080500D49AA
:1018F00008600C48006810F08050009000980022AA
:101900000F217FF00100FFF718FE07490968080062
:1019100030F0E06050F000700349086001BD00BF86
:10192000181002401C100240040001402DE9F04F45
:1019300083B004000D0000275FF000085FF000098D
:101940005FF0000A5FF0000BDFF8D003844214D090
:10195000DFF8CC03844210D0DFF8C80384420CD0F7
:10196000DFF8C403844208D0DFF8C003844204D007
:10197000CD21DFF8BC03FFF70AF92868000404D082
:101980002868000C0004002804D0CE21DFF8A00352
:10199000FFF7FDF86868002831D0686801282ED06C
:1019A000686811282BD06868022828D06868122837
:1019B00025D06868DFF87C13884220D06868DFF89B
:1019C000781388421BD06868DFF87013884216D0FD
:1019D0006868DFF86C13884211D06868DFF8641318
:1019E00088420CD06868DFF86013884207D06868C6
:1019F000032804D0CF21DFF83803FFF7C8F8002010
:101A00000600102E80F056810120B04007002868A3
:101A100038408046B84540F04B81DFF800038442EF
:101A200014D0DFF8FC02844210D0DFF8F8028442C0
:101A30000CD0DFF8F402844208D0DFF8F0028442D0
:101A400004D0DD21DFF8E802FFF7A1F8686800287C
:101A50006AD0012821D0022842D0032800F08480D7
:101A600011282BD012284DD0DFF8C81288425BD045
:101A7000DFF8CC12884257D0DFF8BC12884253D02E
:101A8000DFF8C01288424FD0DFF8B01288424BD046
:101A9000DFF8B412884247D069E0E86802280AD02B
:101AA000E868012807D0E868032804D0E521DFF8BA
:101AB0008002FFF76CF8E868824658E0E868022880
:101AC0000AD0E868012807D0E868032804D0EC2190
:101AD000DFF85C02FFF75BF8E868001D824646E02D
:101AE000E86802280AD0E868012807D0E8680328D7
:101AF00004D0F321DFF83802FFF749F8E86808302E
:101B0000824634E0E86802280AD0E868012807D055
:101B1000E868032804D0FA21DFF81402FFF737F849
:101B2000E8680C30824622E0A86800280BD0A8683C
:101B3000012808D0A868022805D040F20711DFF874
:101B4000F001FFF724F8A868002802D1042082469B
:101B500009E0A868012803D108208246276102E035
:101B600008208246676102E000208246FFE7B8F164
:101B7000FF0F01D8009401E0201D0090B8F1FF0F85
:101B800002D85FEA860B03E0B6F108005FEA800B3B
:101B9000009800680F2111FA0BF188431AFA0BF133
:101BA0000843009908606868C00040F18180DFF850
:101BB0009C01006850F00100DFF890110860DFF828
:101BC0008C01006810F0010001900198DFF880019D
:101BD000B10850F8210081460F2016F00301C9B268
:101BE0008900884039EA0009DFF83001844201D1D8
:101BF000002011E0DFF82801844201D101200BE030
:101C0000DFF82001844201D1022005E046488442E9
:101C100001D1032000E0042016F00301C9B28900BD
:101C2000884050EA0909DFF82801B10840F82190FE
:101C30006868C00306D54748006858EA000045496F
:101C4000086005E04348006830EA08004149086040
:101C50006868800306D54048006858EA00003E499D
:101C6000086005E03C48006830EA08003A4908602E
:101C70006868C00206D53948006858EA000037494C
:101C8000086005E03548006830EA0800334908601C
:101C90006868800206D53248006858EA000030497A
:101CA000086005E02E48006830EA08002C4908600A
:101CB000761CA6E6BDE8F78F70B504000D0016008F
:101CC000ADB2002D04D140F2E3111948FEF75FFFD9
:101CD000F6B2002E07D0F6B2012E04D04FF4F27106
:101CE0001348FEF754FFF6B2002E02D0ADB22561C4
:101CF00002E0ADB22804206170BD10B5040019489F
:101D00000068A4B2204206D0A4B2164804602000A5
:101D100080B200F029F810BD00000000000801406A
:101D2000000C014000100140001401400018014067
:101D30000C320008000011100000211000003110CA
:101D40000000121000002210000032101810024093
:101D5000080001400004014004040140080401405F
:101D60000C040140140401407047000010B5040049
:101D7000002C01D10120B7E020685C49884207D0DF
:101D800020685B49884203D06B215A48FEF7FFFE6A
:101D90006068002807D06068B0F5827F03D06C21AE
:101DA0005448FEF7F4FEA06800280BD0A068B0F5F8
:101DB000806F07D0A068B0F5004F03D06D214D486B
:101DC000FEF7E5FEE068B0F5006F06D0E068002899
:101DD00003D06E214748FEF7DAFE2069002806D0BE
:101DE0002069022803D06F214248FEF7D0FE6069C7
:101DF000002806D06069012803D070213D48FEF715
:101E0000C6FEA069B0F5007F0AD0A069002807D0FF
:101E1000A069B0F5802F03D071213648FEF7B7FED8
:101E2000E069002818D0E069082815D0E06910287A
:101E300012D0E06918280FD0E06920280CD0E069A2
:101E4000282809D0E069302806D0E069382803D076
:101E500072212848FEF79BFE206A002806D0206ADF
:101E6000802803D073212348FEF791FE0020A06252
:101E700094F85100002802D12000FEF7DAFF02207A
:101E800084F851002068006830F040002168086044
:101E90006068A1680843E1680843216908436169F3
:101EA0000843A16911F400710843E1690843216AFC
:101EB0000843A16A084321680860A069000C10F07B
:101EC0000400616A084321684860E06A216808618B
:101ED0002068C06930F400602168C8610020606536
:101EE000012084F85100002010BD00BF00300140E7
:101EF00000380040C43200081B4213D1094236D1D9
:101F00002AB18446B0FBF2F002FB10C2704700F029
:101F100043BDFCD30022002370470B0002000021C8
:101F200000207047904271EB030CF6D370B5B1FA04
:101F300081F4B3FA83F52C1BA340C4F1200532FAD7
:101F400005F63343A2405FF00046E64002E05B083E
:101F50005FEA3202841A71EB030524BF204629464A
:101F60007641F4D302000B003000002170BD012A3D
:101F7000CFD970B5140C20D0B1FA81F4B2FA82F541
:101F8000C4F120046419B4F12006D6D3B2405FF046
:101F90000044F440002502E052085FEA3303C61A09
:101FA00071EB020E24BF3046714664416D41F3D39C
:101FB00002000B002000290070BD0C46B1FBF2F1BD
:101FC00002FB11452D0445EA1045B5FBF2F402FB76
:101FD000145580B240EA0545B5FBF2F002FB105201
:101FE00040EA044070BD000070B504000D002600FA
:101FF000002E07D1502080F31188BFF34F8FBFF31D
:102000006F8FFEE700F033FD3068F16B326C5143A7
:10201000084470600020B0633068B0603068F16BD5
:10202000491E326C51430844F0605FF0FF3086F87F
:1020300044005FF0FF3086F84500002D12D1306972
:10204000002817D016F1100000F02BFB002811D04B
:102050005FF08050DFF8B0100860BFF34F8FBFF320
:102060006F8F07E016F1100000F06CFD16F12400F0
:1020700000F068FD00F018FD012070BD2DE9F84367
:1020800004000D001600002C07D1502080F31188A9
:10209000BFF34F8FBFF36F8FFEE7002D02D10020FB
:1020A000804602E005FB04F0804618F1480000F08D
:1020B00099FD0700002F0AD017F1480081460097CC
:1020C0003300DBB24A462900200000F003F8380054
:1020D000BDE8F2832DE9F04104000D0016001F0059
:1020E000DDF81880002D02D1C8F8008001E0C8F8A2
:1020F0000060C8F83C40C8F8405001214046FFF756
:1021000073FFBDE8F081000004ED00E070B504004D
:10211000FEF73EFD0500260016F1010F02D004482F
:1021200000788619FEF734FD401BB042FAD370BD2B
:10213000080000202DE9F04F85B004000D001600C6
:102140001F00DDF83880DDF83C90B6B2B00000F03A
:1021500049FD8346BBF1000F0DD0542000F042FD35
:102160008246BAF1000F02D0CAF830B005E05846F6
:1021700000F0C5FD01E000208246BAF1000F14D046
:1021800000200390CDF808A0CDF80490CDF8008091
:102190003B00B6B232002900200000F00DF8504696
:1021A00000F06EF80120049002E05FF0FF30049030
:1021B000049805B0BDE8F08F2DE9F14F0C00150033
:1021C0001E000A9FDDF82C80DDF83090D9F8300031
:1021D00000EB8500001F82465FEADA0A5FEACA0A5E
:1021E0001AF00700002807D0502080F31188BFF3B1
:1021F0004F8FBFF36F8FFEE700208346BBF1100FB8
:102200000CD214F80B0009EB0B0181F8340014F820
:102210000B00002802D01BF1010BEFE7002089F82A
:102220004300072F01D306200700C9F82C70C9F816
:1022300044700020C9F8480019F1040000F091FC36
:1022400019F1180000F08DFCC9F81090D7F10700C3
:10225000C9F81800C9F824900020C9F84C000020E3
:1022600089F8500032000099504600F097FBC9F8F9
:102270000000B8F1000F01D0C8F80090BDE8F18F60
:1022800010B5040000F0F3FBDFF89C040068401C6C
:10229000DFF894140860DFF89404006800280AD17D
:1022A000DFF888040460DFF880040068012811D199
:1022B00000F056FA0EE0DFF878040068002809D133
:1022C000E06ADFF868140968C96A884202D3DFF857
:1022D0005C040460DFF85C040068401CDFF8541400
:1022E0000860DFF8780400680121E26A9140084341
:1022F000DFF868140860211DDFF8BC04E26A1423CB
:102300005A43104400F030FC00F0CEFBDFF820040C
:10231000006800280FD0DFF814040068C06AE16A82
:10232000884208D25FF08050DFF840150860BFF3A4
:102330004F8FBFF36F8F10BD38B504000025002C00
:1023400015D0DFF824050068002807D0502080F35E
:102350001188BFF34F8FBFF36F8FFEE700F047F890
:102360000021200000F09AFA00F049F80500002D45
:1023700008D15FF08050DFF8FC140860BFF34F8F86
:10238000BFF36F8F31BD1CB5DFF8F0040190002062
:10239000009000238022DFF8E8140FF29D30FFF751
:1023A000C9FE0400012C16D1502080F31188BFF320
:1023B0004F8FBFF36F8F5FF0FF30DFF8C8140860F6
:1023C0000120DFF86C1308600020DFF8C0140860FB
:1023D00000F009FB0AE014F1010F07D1502080F34F
:1023E0001188BFF34F8FBFF36F8FFEE713BDDFF888
:1023F00078040068401CDFF870140860704770B5FE
:1024000000240025DFF860040068002807D1502070
:1024100080F31188BFF34F8FBFF36F8FFEE700F09B
:1024200026FBDFF844040068401EDFF83C14086017
:10243000DFF83404006800285CD1DFF8EC020068A3
:10244000002857D0DFF83004006800282AD0DFF8D1
:102450002804C068C068040014F1180000F0ADFB47
:10246000201D00F0AAFBDFF8F40200680121E26AF7
:1024700091400843DFF8E4120860211DDFF83803BB
:10248000E26A14235A43104400F06EFBE06ADFF85E
:102490009C120968C96A8842D4D30120DFF88014ED
:1024A0000860CFE7002C01D000F0C6F9DFF8D803B0
:1024B0000668002E0ED000F021F8002803D001207D
:1024C000DFF85C140860761E002EF4D10020DFF8DF
:1024D000B8130860DFF84804006800280AD001201B
:1024E00005005FF08050DFF88C130860BFF34F8F5A
:1024F000BFF36F8F00F0D8FA280070BD2DE9F041CE
:102500000026DFF864030068002840F07F80DFF8D1
:102510007C030068471CDFF874030760002F24D198
:10252000DFF86C0300680068002807D0502080F3B3
:102530001188BFF34F8FBFF36F8FFEE7DFF85003B3
:1025400000688046DFF84C030068DFF84413086039
:10255000DFF84003C0F80080DFF83C030068401C4F
:10256000DFF83413086000F067F9DFF8180300683B
:1025700087423ED3DFF8180300680068002805D1C1
:102580005FF0FF30DFF8FC12086032E0DFF8000394
:102590000068C068C068040060680500AF4203D2EC
:1025A000DFF8E002056024E0201D00F006FBA06AD1
:1025B000002803D014F1180000F0FFFADFF89C01A6
:1025C00000680121E26A9140084364490860211DC6
:1025D000DFF8E401E26A14235A43104400F0C4FA1D
:1025E000E06A52490968C96A8842C3D301200600DB
:1025F000C0E7DFF8C4014D490968C96A1422514394
:102600004058022809D30120060006E0DFF87802CE
:102610000068401CDFF870120860DFF804030068EF
:10262000002801D0012006003000BDE8F081DFF86D
:1026300038020068002804D00120DFF8E4120860A6
:102640002EE00020DFF8D812086044490968B1FA8A
:1026500081F1D1F11F0108005749142202FB00F259
:102660008958002907D1502181F31188BFF34F8F7A
:10267000BFF36F8FFEE7504A142303FB00F31A44A5
:1026800011004A6852684A604A6811F108039A4288
:1026900002D14A6852684A604968C968234A116091
:1026A000704770B50400E068C0680500002D07D1D0
:1026B000502080F31188BFF34F8FBFF36F8FFEE779
:1026C00015F1180000F079FA67480068002813D166
:1026D000281D00F072FA214800680121EA6A914041
:1026E00008431E490860291D3348EA6A14235A43E7
:1026F000104400F039FA05E015F11801DFF878010F
:1027000000F032FA09480068C06AE96A884206D2D5
:10271000012006000120DFF80812086001E0002017
:102720000600300070BD0000D8110020C811002044
:10273000E4110020F411002010B5040000F040F86E
:102740001D4800680228F9D35FF08050DFF8E011DF
:102750000860BFF34F8FBFF36F8FEFE7E0110020EA
:1027600010B500200400072C08D21348142101FBE7
:1027700004F1084400F0E6F9641CF4E7DFF8B40162
:1027800000F0E0F9DFF8B00100F0DCF9DFF8E80074
:1027900000F0D8F9094800F0D5F9354800F0D2F931
:1027A000DFF89001DFF8E8100860DFF88C01DFF84F
:1027B0008C11086010BD0000101000207011002066
:1027C00038B5DFF87C01006800282BD0FFF70FFE3A
:1027D000DFF870010068002801D1012400E0002426
:1027E000FFF70DFE002CECD100F041F9DFF85401A9
:1027F000C068C0680500281D00F0DFF9DFF8280177
:102800000068401EDFF820110860DFF8340100681E
:10281000401EDFF82C11086000F046F9280000F097
:1028200002F8CEE731BD10B50400206B00F067FA66
:10283000200000F064FA10BDDFF854100968096840
:10284000002905D15FF0FF31DFF83820116009E081
:10285000DFF83C100968C968C96808004168DFF8FA
:1028600024201160704700000012002004ED00E0F9
:102870008411002004ED00E05C110020FC11002018
:1028800014350008F8110020E8110020DC110020A8
:10289000CC110020D0110020F0110020F8B5040068
:1028A0000D002048076821480068001D00F085F9E8
:1028B00000280BD11D480068234909680122C06A1D
:1028C00012FA00F031EA00001F49086014F1010F0C
:1028D00008D1002D06D015480068011D1B4800F0E6
:1028E00043F91BE0E0190600104800684660BE424C
:1028F00007D20E480068011D1048006800F040F93A
:102900000CE00A480068011D1148006800F038F921
:1029100010480068864201D20E480660F1BD0000F2
:10292000EC110020DC110020D8110020C81100207B
:1029300004ED00E03411002048110020D0110020E7
:10294000D411002070110020E0110020841100201B
:10295000CC110020F811002000B500BF13009646EE
:102960009446103928BFA0E80C50FAD85FEA417CA1
:1029700028BF0CC048BF40F8042BC90728BF20F867
:10298000022B48BF00F8012B00BD7047704770470D
:10299000704770477047000070470000001F5FF0ED
:1029A00080730360001F4B085B000360001F0FF281
:1029B0000D030360143802602038704751480068E6
:1029C00010F1010F07D0502080F31188BFF34F8F13
:1029D000BFF36F8FFEE7502080F31188BFF34F8F56
:1029E000BFF36F8FFEE700B583B0474801780191D0
:1029F000FF21017001788DF800109DF8001011F092
:102A00005001424A11700721414A11609DF800109F
:102A100009060AD53E490968491E3D4A11609DF8DC
:102A2000001049008DF80010F0E7394909680902E3
:102A3000374A11603649096811F4E061344A11607F
:102A4000019901703348006850F470003149086002
:102A50003048006850F070402E49086000F05EF881
:102A600000202849086000F032FA00200EBD5020F6
:102A700080F31188BFF34F8FBFF36F8F2148006839
:102A8000401C204908601F48006801280BD12248DB
:102A90000068000607D0502080F31188BFF34F8FE5
:102AA000BFF36F8FFEE7704716480068002807D114
:102AB000502080F31188BFF34F8FBFF36F8FFEE775
:102AC00010480068401E0F4908600E480068002842
:102AD00002D1002080F31188704780B5502080F328
:102AE0001188BFF34F8FBFF36F8FFFF707FD0028EB
:102AF00003D05FF0805008490860002080F31188FF
:102B000001BD00000000002000E400E004120020ED
:102B1000C011002020ED00E004ED00E00648006850
:102B20004FF47A71B0FBF1F0401E044908600720B1
:102B300003490860704700BF0400002014E000E073
:102B400010E000E010F1080141605FF0FF318160AA
:102B500010F10801C16010F108010161002101605C
:102B6000704700210161704742684A6093688B603A
:102B7000936859609160086103685B1C036070474B
:102B800010B40B6813F1010F02D10469220008E0B0
:102B900010F10804220054682468A34201D352684B
:102BA000F9E754684C604C68A1608A605160086124
:102BB0000468641C046010BC7047010008698A68DE
:102BC0004B689A604A688B685A6042688A4201D1B1
:102BD0008A68426000220A610268521E0260006830
:102BE000704700002DE9F04104005FF00008FFF796
:102BF000FEFB96480068002801D100F0BDF894481B
:102C0000006804426AD1002C15D09248006804196B
:102C100014F0070F0FD014F1080014F00701441A44
:102C200014F0070F07D0502080F31188BFF34F8FA7
:102C3000BFF36F8FFEE7002C50D087480068A0429A
:102C40004CD3864806008548006805006868A042A5
:102C500005D22868002802D02E002D68F6E77B48B0
:102C6000006885423AD030687A490968084480464D
:102C7000286830607748006840006968091B88420E
:102C800015D205EB0400070017F00700002807D055
:102C9000502080F31188BFF34F8FBFF36F8FFEE793
:102CA0006868001B78606C60380000F09CF86A4827
:102CB00000686968401A68490860674800686849A0
:102CC0000968884203D264480068654908606868FA
:102CD0005F4909680843686000202860FFF78FFBA0
:102CE00018F00700002807D0502080F31188BFF3A8
:102CF0004F8FBFF36F8FFEE74046BDE8F08170B5A0
:102D000004002600002C36D0524800684042064499
:102D1000350068684E490968084207D1502080F3A1
:102D20001188BFF34F8FBFF36F8FFEE7286800282D
:102D300007D0502080F31188BFF34F8FBFF36F8F00
:102D4000FEE7686842490968084214D028680028EC
:102D500011D168683E49096888436860FFF747FBFE
:102D60003D480068696808183B490860280000F081
:102D70003AF8FFF744FB70BD30B44FF44063394C70
:102D8000220012F0070F05D0D21DD208D2009B1AE4
:102D9000344CE3181100314C216000242F4D6C603D
:102DA0005C1822002B4C2468121BD208D200274C3E
:102DB00022600024254D2D686C600024234D2D6871
:102DC0002C600800141A4460204C24680460446895
:102DD000234D2C604468204D2C605FF000441C4D56
:102DE0002C6030BC704710B41C4B1A00136883422F
:102DF00001D21268FAE7110053680B44834204D1F0
:102E000053684468E31853601000010043680B44A2
:102E10001468A34211D113680C4C2468A34208D053
:102E2000436814686468E318436013681B680360B0
:102E300005E0064B1B68036001E0136803608242F3
:102E400000D0106010BC704700000000B0110020DE
:102E5000BC11002040350008B4110020981100205A
:102E6000B811002010040020EFF30980BFF36F8F2A
:102E70001D4B1A6820E9F00F106008B54FF05000A4
:102E800080F31188BFF34F8FBFF36F8FFFF7CFFB36
:102E90004FF0000080F31188BDE808401968086809
:102EA000B0E8F00F80F30988BFF36F8F70470E4BC7
:102EB00019680868B0E8F00F80F30988BFF36F8FD6
:102EC0004FF0000080F311884EF00D0E7047074858
:102ED0000068006880F3088862B661B6BFF34F8F60
:102EE000BFF36F8F00DF0000C811002008ED00E085
:102EF00070B582B00400206845682068866816F0C6
:102F00004100012805D1680603D52000216C8847BF
:102F10006AE0B00705D5280603D52000616C884714
:102F200062E016F0600F5FD0A8065DD570061BD575
:102F300094F8510003280DD0606D50F004006065D6
:102F4000002000902068C068009020688068009091
:102F5000009809E0002000902068C0680090206878
:102F60008068009000983FE0B0060FD5606D50F08B
:102F70000100606500200090206880680090206853
:102F8000006830F04000216808600098606D0028FB
:102F900029D02068406830F0E000216848600120B6
:102FA00084F8510015F0030F1AD02068406880089B
:102FB000800021684860E06C002806D00FF22D00E8
:102FC000E16C4863E06C00F01DF8A06C00280AD0AA
:102FD0000FF21900A16C4863A06C00F013F802E036
:102FE000200000F077F8FFE773BD000038B504005B
:102FF000656A0020E8870020E886280000F06AF86B
:1030000031BD000038B50400002594F821000228E5
:1030100004D00420A063012005004AE02068006875
:1030200030F00E0021680860206800684008400009
:10303000216808602068DFF88010884201D10120F3
:1030400028E02068DFF87410884201D1102021E0C8
:103050002068DFF86C10884202D14FF4807019E0CC
:103060002068DFF86010884202D14FF4805011E0F0
:103070002068DFF85410884202D15FF4803009E004
:103080002068DFF84810884202D15FF4801001E028
:103090005FF08070DFF838100860012084F82100AC
:1030A000002084F82000606B002802D02000616BB3
:1030B00088472800C0B232BD080002401C00024010
:1030C0003000024044000240580002406C000240C0
:1030D0000400024070470000016851F001010160E6
:1030E00070477FF00201016170470069400810F0ED
:1030F000010070477047FEE7FEE7FEE7FEE7704716
:1031000080B50A48FEF7E8FA01BD80B55FF080405F
:10311000FFF7EBFF012803D15FF08040FFF7E1FFED
:1031200001BD80B50248FFF7E3FE01BDF4100020A9
:103130009C10002080B54FF48050FEF7DEFD5FF05C
:103140008040FFF7C9FF01BD1348006850F001003F
:103150001149086011480068114908400F4908608A
:103160000D4800680F4908400B4908600A4800688C
:1031700030F48020084908600848006830F4FE00F8
:10318000064908605FF41F00074908605FF00060AF
:103190000649086070470000001002400410024019
:1031A0000000FFF8FFFFF6FE0810024008ED00E007
:1031B000433A5C55736572735C4D725A616E675C1D
:1031C0004941525F70726A5C76656E74696C6174B5
:1031D000696F6E5C447269766572735C53544D33EB
:1031E00032463178785F48414C5F44726976657247
:1031F0005C5372635C73746D3332663178785F68E8
:10320000616C5F636F727465782E6300433A5C553E
:10321000736572735C4D725A616E675C4941525FAF
:1032200070726A5C76656E74696C6174696F6E5CED
:10323000447269766572735C53544D33324631780B
:10324000785F48414C5F4472697665725C53726383
:103250005C73746D3332663178785F68616C5F6778
:1032600070696F2E63000000433A5C55736572739A
:103270005C4D725A616E675C4941525F70726A5C64
:1032800076656E74696C6174696F6E5C44726976A0
:103290006572735C53544D3332463178785F4841E0
:1032A0004C5F4472697665725C5372635C73746DD3
:1032B0003332663178785F68616C5F7263632E6366
:1032C00000000000433A5C55736572735C4D725A9E
:1032D000616E675C4941525F70726A5C76656E74BC
:1032E000696C6174696F6E5C447269766572735C57
:1032F00053544D3332463178785F48414C5F4472C5
:10330000697665725C5372635C73746D33326631D7
:1033100078785F68616C5F7370695F65782E6300B1
:10332000433A5C55736572735C4D725A616E675CAB
:103330004941525F70726A5C76656E74696C617443
:10334000696F6E5C447269766572735C53544D3379
:1033500032463178785F48414C5F447269766572D5
:103360005C5372635C73746D3332663178785F6876
:10337000616C5F74696D2E630000000019E050F805
:10338000041BCB0744BFA9F101035918121F0023E6
:10339000042A41F8043BF9D25FEA827C0B4604D54B
:1033A0004FF0000CA1F800C09B1CD10744BF0021C6
:1033B000197050F8042B002AE1D1704710B450F86E
:1033C000041B79B10268436802440830DC0744BF3B
:1033D000A9F10104E31852F8044B43F8044B091F08
:1033E000F9D1ECE710BC704710B5074979441831A2
:1033F000064C7C44163404E00A68081D11448847D2
:103400000146A142F8D110BD0800000028000000CC
:103410006DFFFFFFF80D0000100400200000000009
:103420009DFFFFFF0C000000C8000000000000200E
:103430000000000000F00BF8002801D0FFF7D4FFD7
:103440000020C046C046FDF74FFB00F002F8012007
:10345000704700F001B800000746384600F002F857
:10346000FBE7000080B5C046C046024A11001820A4
:10347000ABBEFBE726000200FC340008E5120008A2
:103480000100000000000000B40000003C3500080E
:10349000F1120008000000000000000080000000A1
:1034A000043500088D130008000000000000000033
:1034B0008000000002030405060708090A0B0C0D32
:1034C0000E0F1010000000000000000001020304B5
:1034D00006070809014880470148004749310008AC
:1034E000E5340008C046C046C046C046FFF7A2FF0C
:1034F000AAAAAAAA00A24A04010000004C6F5261C5
:10350000000000006D6375576F726B0000000000D3
:103510000102030449444C45000000000000000083
:103520000404040000000800000008000002040673
:10353000080A0C00000102030405060046616E0043
:1035400008000000FFF7FEBFFFF7FEBFFFF7FEBF5A
:10355000FFF7FEBFFFF7FEBFFFF7FEBFFFF7FEBF9F
:10356000FFF7FEBFFFF7FEBFFFF7FEBFFFF7FEBF8F
:10357000FFF7FEBFFFF7FEBFFFF7FEBFFFF7FEBF7F
:10358000FFF7FEBFFFF7FEBFFFF7FEBFFFF7FEBF6F
:10359000FFF7FEBFFFF7FEBFFFF7FEBFFFF7FEBF5F
:1035A000FFF7FEBFFFF7FEBFFFF7FEBFFFF7FEBF4F
:1035B000FFF7FEBFFFF7FEBFFFF7FEBFFFF7FEBF3F
:1035C000FFF7FEBFFFF7FEBFFFF7FEBFFFF7FEBF2F
:1035D000FFF7FEBFFFF7FEBFFFF7FEBFFFF7FEBF1F
:04000005080034E5D6
:00000001FF
