:020000040800F2
:10000000F8050020C5680008356700083767000854
:10001000396700083B6700083D67000800000000E2
:100020000000000000000000000000008B2F00080E
:100030003F67000800000000452F0008DB2E000885
:10004000496900084D6900085169000855690008B0
:10005000596900085D690008616900086569000860
:10006000696900086D690008716900087569000810
:10007000796900087D6900088169000885690008C0
:10008000896900088D690008916900089569000870
:10009000996900089D690008A1690008A569000820
:1000A000A969000841670008AD690008B169000846
:1000B000B5690008B9690008BD690008C169000890
:1000C000C5690008C9690008CD6900084B670008C8
:1000D000D1690008D5690008D9690008DD69000800
:1000E0005D670008E1690008E56900082DE9F04F47
:1000F00082460FF24860A5B015461E46D0E900239F
:10010000CDE91223002004910D900DF150086FF0FD
:10011000004900E03D440020ADF8020012AB4FF072
:10012000FF3229460DF1020001F0A5F80746012F24
:1001300004DA2878471EBF41FF43FF0FBDF80200D5
:1001400025280CBFA7F1010BBB46BBF1010F0EDB4D
:100150002C4614F8011B0498D0470028049000F0A6
:10016000F3800D98401CBBF1010B0D90F1D1BDF84F
:100170000200252807D100200790089009900A90D6
:100180000B900C9005E00028C4D10D98DEE240F001
:10019000010015F8011F2029F9D023290DD02B29A2
:1001A00004D02D2906D030290AD00CE040F00200FE
:1001B00080B2EEE740F00400FAE740F00800F7E70D
:1001C00040F01000F4E72A290ED13168316051F86F
:1001D000042B3160002A0F9204D5514240F00400F4
:1001E0000F9180B26D1C11E000210F9109E00F9971
:1001F000494505D001EB810302EB430130390F91F2
:100200006D1C2A78A2F130010A29F0D329782E2911
:1002100003D04FF0FF310E911DE015F8011F2A2980
:1002200007D1316831606D1C51F8042B31600E929A
:1002300011E000210E9109E00E99494505D001EB2E
:10024000810302EB430130390E916D1C2A78A2F133
:1002500030010A29F0D3ADF840000FF2E8402978C8
:1002600001F01AF808B115F8010B8DF842009DF85D
:100270004200682802BF29786829622005D06C28CE
:1002800004BF28786C2803D171208DF842006D1CC2
:1002900014A8069015F8017BB7F125002AD01C3868
:1002A00000F0DB80001F022840F2D780133800F0F6
:1002B000FC80093800F0D180801E00F06781401E6C
:1002C00000F03D81401E022840F2C780001F00F070
:1002D0003681401F00F09280401E00F0E680401EF4
:1002E00035D0C01E0BD0801E00F0DF80C01E00F095
:1002F000DC806EE125208DF85000012073E19DF82F
:1003000042006C283068306014D050F8044B3060E4
:1003100005940E9F002F04D5204600F0C9FF074624
:1003200006E03A460021204600F0DEFF00B1071B40
:10033000089759E150F8042B306002A9504600F0AC
:100340003FFA002840F150814FF0FF30FEE1316864
:100350003160002251F8040B31600021CDE9020127
:1003600014A80590DDE902019142069F08BF904262
:100370004FF03C0C01D10E9AC2B100F00F033033A4
:10038000DBB23A2BA8BF2733ACF101020009BB5402
:10039000944640EA017009090022914208BF904248
:1003A00004D0059A07EB0C039A42E6D307EB0C0046
:1003B0000590CCF13C010E980891814209DA401A6F
:1003C0000A904FF6EF71BDF840000840ADF84000CC
:1003D0000AE1002840F108819DF8400000F0140077
:1003E000102840F001810F98079A801A0A9A801A03
:1003F000401A0128C0F2F8800A90F5E09DF842000A
:1004000062281AD0682806D06A280CD06C281CD024
:10041000712808D019E03068306050F8041B306053
:100420000D980880E0E03068306050F8042B3060B0
:100430000D98C117C2E90001D6E03068306050F86D
:10044000041B30600D980870CEE03068306050F8C2
:10045000041B30600D980860C6E03068C01D20F0B5
:1004600007023260D2E9000108323260CDE90201B0
:10047000002902D507982D210AE0BDF84000810728
:1004800002D507982B2103E0C00705D50798202146
:1004900008F80010401C079014A80799084405901C
:1004A000394602A800F098FB9EE09DF842006C28B7
:1004B0000DD0712818BF6A2809D13068C01D20F0FE
:1004C00007023260D2E900010832326005E031688B
:1004D000316051F8040B31600021CDE902019DF833
:1004E0004200682803D1DDE9020180B20BE06228F6
:1004F00003D1DDE90201C0B205E0742818BF7A28F3
:1005000004D1DDE902010021CDE902019DF840009E
:10051000000732D5DDE902230020834208BF824272
:100520002BD047F02000782827D10798302108F8F1
:100530000010401C411C079108F800701DE09DF858
:100540004200314600F005F9CDE90201DDE9022360
:1005500000218B4202DA07982D210AE0BDF8400005
:10056000810702D507982B2103E0C00705D507981E
:10057000202108F80010401C079014A8079908448F
:100580000590394602A800F0A1FA2DE09DF842003E
:100590006C2809D0012007903068306050F8041BA7
:1005A00030608DF850101FE03068306001AA50F8BC
:1005B000041B3060ADF804100020ADF8060002A95D
:1005C0004FF0FF300E90504600F0FAF800280BD59F
:1005D000BAE625208DF8500001200790380003D09E
:1005E00088F80170022007900F980799401A0A991D
:1005F000401A0899401A0B99401A0999401A0C9907
:10060000471A9DF84000400710D42020012F8DF894
:1006100000000BDB3C4601236A4602A9504600F06D
:1006200005FE00287FF490AE641EF4D1DDF81CB006
:10063000BBF1000F14AC0DD014F8011B0498D04787
:10064000002804903FF480AE0D98401CBBF1010BD4
:100650000D90F1D130208DF800000A9C012C0ADBAE
:1006600001236A4602A9504600F0E0FD00287FF40D
:100670006BAE641EF4D1DDF820B0059CBBF1000F19
:100680000DD014F8011B0498D047002804903FF4C3
:100690005BAE0D98401CBBF1010B0D90F1D13020E9
:1006A0008DF800000B9C012C0ADB01236A4602A98D
:1006B000504600F0BBFD00287FF446AE641EF4D126
:1006C00005980899DDF824B04418BBF1000F0DD04F
:1006D00014F8011B0498D047002804903FF434AE6E
:1006E0000D98401CBBF1010B0D90F1D130208DF81D
:1006F00000000C9C012C0ADB01236A4602A950462B
:1007000000F094FD00287FF41FAE641EF4D19DF824
:10071000400040077FF5FFAC2020012F8DF800003E
:10072000FFF6F9AC01236A4602A9504600F07EFDAF
:1007300000287FF409AE7F1EF4D1ECE40000000035
:1007400000000000686A6C747A4C000025B0BDE8B7
:10075000F08F622826D068281DD06A2808D06C281F
:1007600027D0712804D0742823D07A280CD020E018
:100770000868C01D20F007000860D0E90023083099
:1007800008601946104670470A680A6052F8040B60
:100790000A60002170470A680A6052F8040B0A6078
:1007A00000B20BE00A680A6052F8040B0A6040B21B
:1007B00004E00A680A6052F8040B0A60C117704727
:1007C0002DE9F44F0D4694B0D5F830A0BAF1000FE2
:1007D000804648BF6FF0004A00F0B2FD696B4018D8
:1007E00001900FF67820D0E90023CDE9022395F897
:1007F0003800400702D40198412805D240200DF16D
:1008000010090190002609E000F0A0FD5FEA000950
:10081000F8D14FF0FF3056E1AAEB040ABAF1010F0C
:10082000C0F2CE801498018802AA0DF1010000F0F8
:10083000E5FD0028044600F1DE801498008810B918
:10084000641E00F1D880A245C0F2BA80686901999F
:100850002218914280F0A2806E634042296A401AB9
:10086000A969401A696A401AE969401AA96A461AD0
:1008700095F83800400710D42020012E8DF8000094
:100880000BDB374601236A462946404600F0CEFC82
:10089000002840F0B0807F1EF4D1D5F814B0BBF131
:1008A000000F4F460DD017F8011BA868C04700285D
:1008B000A86000F0A080E86A401CBBF1010BE86270
:1008C000F1D130208DF800002F6A012F0ADB0123BF
:1008D0006A462946404600F0A9FC002840F08B807B
:1008E0007F1EF4D1D5F818B0EF68BBF1000F0CD023
:1008F00017F8011BA868C0470028A8607BD0E86AE9
:10090000401CBBF1010BE862F2D130208DF80000F1
:100910006F6A012F09DB01236A462946404600F031
:1009200085FC002867D17F1EF5D1E868A969D5F854
:100930001CB04718BBF1000F0CD017F8011BA868BA
:10094000C0470028A86056D0E86A401CBBF1010BE4
:10095000E862F2D130208DF80000AF6A012F09DB88
:1009600001236A462946404600F060FC002842D137
:100970007F1EF5D195F8380040070DD52020012EB7
:100980008DF8000008DB01236A462946404600F046
:100990004DFC80BB761EF6D100266E61224668694A
:1009A0000DF10101484400F037FD686920186861C5
:1009B0001498801C1490801E008800287FF42CAFAF
:1009C000686B6969401A296A401AA969401A696AFC
:1009D000401AE969401AA96AA0EB010A95F83800A3
:1009E000400710D4BAF1010F0DDB5446A86820214E
:1009F000C047A86010B94FF0FF365DE0E86A401CC0
:100A0000641EE862F2D16B694A462946404600F00E
:100A10000DFC0028EFD12C6A012C0ADBA8683021DC
:100A2000C0470028A860E6D0E86A401C641EE8625F
:100A3000F4D1AB69EA682946404600F0F7FB00288C
:100A4000D9D16C6A012C0ADBA8683021C047002884
:100A5000A860D0D0E86A401C641EE862F4D1E8685F
:100A6000A969EB6942182946404600F0DFFB0028DF
:100A7000C1D1AC6A012C0ADBA8683021C04700282C
:100A8000A860B8D0E86A401C641EE862F4D195F80A
:100A9000380040070ED5BAF1010F0BDBA868202102
:100AA000C0470028A860A6D0E86A401CBAF1010A35
:100AB000E862F3D16E616E6304A881451CBF4846AD
:100AC00000F0E6FC304615B0BDE8F08F2DE9F343A9
:100AD000054608462F696F2808BF082405D041F055
:100AE0002001782914BF0A2410243C26D5E90023CC
:100AF000642818BF69289046994606D100218B4288
:100B000003DAD8F1000869EB49090020814508BFE4
:100B100080450CD1286B50B9082C38D195F8380095
:100B2000000734D530203B2687F83B002FE0701EAD
:100B300000900646404649462246E31700F0E8FC8E
:100B400002F13000C0B23A2803DB9DF8041051399D
:100B50000818B855494640462246E31700F0D8FC2D
:100B6000804689460020814508BF804503D0E8685B
:100B7000B9198842DBD3082C09D195F83800000751
:100B800005D5B85D302802D0761E3020B855B91989
:100B9000E960C6F13C00296BA861884208DA081AAE
:100BA00028624FF6EF71288F08402887BDE8F3834D
:100BB00000290ED595F8381001F01401102908D13C
:100BC000696B6A69891A2A6A891A0E1A012EA8BFE6
:100BD0002E62BDE8F38300002DE9F24F04468EB08B
:100BE000D4E90001CDE9020104AF9DF8380040F0DE
:100BF000200BBBF1610F0AD0206B002848BF0620F4
:100C000004D408BFBBF1670F01D1012020636168E4
:100C1000C1F30A5040F2FF7290421CD1080304BF96
:100C20002068002809D10320A0619DF838006138B0
:100C30001A2835D30FF2386108E00320A0619DF82F
:100C4000380061381A2828D30FF21C61E0680322AB
:100C500000F0E2FBBDE1012815DA204600F0CFFCF0
:100C6000012810DB00250020BBF1610F1FD1E168D6
:100C700030220A708A1CE2609DF83820612A0CBF7D
:100C8000782258220FE0626840F2FE3161F31E5272
:100C9000451A62604FF0FF30E6E70FF2C851D5E722
:100CA0000FF2C851D2E74A706169891C616110B9BD
:100CB0000026002584E1BBF1610F40F09880206B95
:100CC000D4E900AB00284CBF2126461CDDE9020117
:100CD0000022002300F0B6FC36B23ABF8BF0004091
:100CE000CDE902A0CDE902AB06F101082D1FB8F154
:100CF000010F8DF810200DF1110736DBDDE902013F
:100D00000022002300F0B6FC2FD21C2102A800F024
:100D1000C9FCDDE9020100F04BFDA8F10708B8F1BC
:100D2000010F814609DB00F06FFD02460B46DDE94D
:100D3000020100F081FDCDE90201F81D072105E067
:100D400009F00F0200F8012D4FEA2919B9F1010F3E
:100D500001DB491EF4D5491E5CBF002200F8012DBD
:100D6000F9D5C71DB8F1010FC8DA0DF11100391A14
:100D7000B142B8BF0E4636B230000DF111072FD484
:100D8000884206DA04A9014449780829A8BF0F213E
:100D900000DA002104AA024400E0761E12F80139AC
:100DA000401E8B42F9D00F2904D104A901444A788E
:100DB000521C4A70002802D504AF761C2D1D36B295
:100DC000701E0DD439180A783032D2B23A2A03DBB9
:100DD0009DF838303A3B9A18401E01F80129F2D5A7
:100DE000206B002840F1EC80701E2063E8E0DDE914
:100DF00002010022002300F025FC3CBF81F00041ED
:100E0000CDE902012DB247F2975068434B49DFF814
:100E1000309190FBF1F52DB2C5F1070ABAF1010F3F
:100E200090461CDBDDE902675FEACA7007D54246DF
:100E30004B463046394600F0BFFD06460F46404659
:100E4000494642464B464FEA6A0A00F0B5FDBAF100
:100E5000000F80468946E7D1CDE9026724E0CAF158
:100E6000000A0026374F14E05FEACA7007D54246F1
:100E70004B463046394600F09FFD06460F46404639
:100E8000494642464B4600F097FD4FEA6A0A8046C3
:100E90008946BAF1000FE7D1DDE9020132463B464F
:100EA00000F05CFECDE90201BBF1660F216BDFF8BB
:100EB00098900CBF05F10A0006204618142EA8BF12
:100EC000132630208DF810000DF11107012E3DDBA7
:100ED000DDE9020100F082FC07F1080104220A2387
:100EE000B0FBF3F303EB8307A0EB4700303001F8CE
:100EF000010C0A20B3FBF0F000EB8007A3EB4703E3
:100F00003033521E01F8023DE9D1083E012E01F1B5
:100F10000807DBDBDDE9020100F060FC00F07EFC8D
:100F200002460B46DDE9020100F086FC00224B463A
:100F300000F042FDCDE90201CAE700BFA086010032
:100F4000000024400000F03F84D797410DF11100CC
:100F5000381A0DF1110702E0401E6D1E7F1C397812
:100F60003029F9D0BBF1660F08BF691C04D0BBF172
:100F7000650F0CBF01210021226B8E1836B2B042E2
:100F8000B8BF064636B231001AD4814204DA785C22
:100F90003528A8BF392000DA30207A18521E00E028
:100FA000761E12F80139491E8342F9D0392802D140
:100FB000785C401C7854002902D57F1E761C6D1C7D
:100FC0002DB29DF83810009533B23A46204600F015
:100FD00003F80FB0BDE8F08F2DE9F04786B0064664
:100FE0008A4690461D4600F002FF012D406A376B8D
:100FF00090F8009002DA01250FF278284AF02000DC
:10100000BDF93840662808BF641C12D0672878D123
:1010100014F1040F7BDBBC4279DA96F83800641CCB
:10102000000702D4BD42B8BF2F4624B23F1B48BFC1
:10103000002724B2F068B169012C23DA4A1C30235E
:101040004354012F03DA96F83800000703D5F068FF
:1010500000F80290521CE742B8BF7C4224B26042C2
:101060007062E719AF42B261B8BF3D46F068B3693C
:101070002DB2F5612A464146184400F0CDF9781B9F
:10108000B062BCE022469542084416DA2A46414640
:1010900000F0C2F9B1696918601B012FB16170627B
:1010A00003DA96F83800000705D5F06800F80190DB
:1010B000F069401CF061B762A1E0414600F0ACF974
:1010C000B06920182D1B012F03DA96F83810090794
:1010D00003D5F16801F80090401CB0612DB2AF4219
:1010E000B8BF3D46F068B3692DB22A4608EB04014B
:1010F000184400F091F9B0692818B061781B70624B
:101100007DE0BAF1610F14D14FF0700A16E0BD42D4
:1011100004DA96F83810090758BF2F467F1E48BFDB
:101120000027BAF1670F14BF4FF0450A4FF0650A68
:1011300004E0BAF1410F08BF4FF0500AB169F368FB
:10114000481CB061012F18F8012B5A5403DA96F8A5
:101150003810090717D5F168431CB36101F80090F6
:10116000012F10DB6D1E2DB2AF42B8BF3D46F068B7
:101170002DB22A464146184400F04EF9B0692818AD
:10118000B061781B7062F068B1690144200081F899
:1011900000A004D42B20487001F1020804E02D22A5
:1011A0004A7001F102086442002502AF08E00A22F9
:1011B000684600F035FE019807F8010B6D1C009C95
:1011C00021B20129F3DA022D06DA4AF0200065285F
:1011D00004BF302008F8010B4DB9302008F8010B8E
:1011E00007E06D1E02A8405D303008F8010B012DAC
:1011F000F7DAF068B1690844A8EB0000F06196F8EE
:10120000380000F0140010280DD17069B169081879
:10121000716A0818F1690818B16A0818716B884278
:10122000BCBF081A306206B0BDE8F087F8B50446C6
:101230000D4616461F46002077B116F8011BA86818
:10124000A047A86030B1E86A401CE86200207F1E19
:10125000F3D1F2BD4FF0FF30F2BD000000000000FE
:10126000000000006E616E004E414E00696E660027
:10127000494E46003000F8B504460D4616461F4656
:1012800000F0D6FD3B4632462946204601B0BDE877
:10129000F04000F0E4BD01020278C9B28A421AB1FE
:1012A0001CBF10F8012FF9E718BF0020704700009D
:1012B00000F10103810704D010F8011B89B18107F7
:1012C000FAD10268B2F10131914311F0803F04BFBD
:1012D00050F8042FF6E710F8011B11B110F8011BAC
:1012E000FBE7C01A70470000C9B2830706D0521E40
:1012F00022D310F8013B9942F7D11FE0083A13D3EB
:1013000002F1040241EA012141EA014150F8043BA3
:10131000121F21BF4B40A3F1013C2CEA030C1CF02F
:10132000803FF3D0C9B2001F083210F8013B521EB3
:1013300028BF91EA030FF8D818BF0120401E70475C
:1013400080B500F075FD012002BD000070B50546B6
:1013500005F10F00C408C046C046E400A54232D2E1
:10136000082C04D2082402E0083000F091F822484A
:10137000026811000CD1011D0A6802B31368A34270
:1013800038BF111DF8D310E01D68A5420DD2191DFC
:101390000B68002BF8D11268011D00E0191D0B68C5
:1013A00093420CD01D68A542F8D361B10D682A683C
:1013B000A2F10803A3420AD26A680A600FE000F0B3
:1013C00071FD0028D0D1C046C046002070BD2B1949
:1013D0000B60121B6E685E600B681A602C600968F7
:1013E00000291DBF4A68002A091D00210160C0466E
:1013F000C04605F1080070BDA816002070B504466F
:101400000D46164600F014FD324629462046BDE83A
:10141000704000F017BD000062B38B0708D0521E69
:1014200011F8013B00F8013B00F024808B07F6D156
:10143000830740F0208000BF103A07D330B4B1E8F2
:101440003810103AA0E83810F9D230BC530724BF46
:10145000B1E80810A0E8081044BF51F8043B40F878
:10146000043BD20724BF31F8022B20F8022B44BFE3
:101470000B7803707047083A07D3B1E80810083AB0
:1014800040F8043B40F804CBF7D25307E4E70000F0
:1014900000B9704738B5A0F108042068082833D394
:1014A00010F0070F30D1C046C0461848416809B156
:1014B0008C4203D26160446017E019464B680BB15F
:1014C000A342FAD30B68CD18AC421BD3A54204D17A
:1014D0002268D2180A600C4607E04A681AB12368ED
:1014E00023449A420ED362604C60616851B1226815
:1014F000A3188B4206D1002303600868801820607F
:1015000048686060C046C04631BD0000A816002093
:101510001B4213D1094236D12AB18446B0FBF2F006
:1015200002FB10C2704700F0D3BCFCD300220023A2
:1015300070470B000200002100207047904271EBC1
:10154000030CF6D370B5B1FA81F4B3FA83F52C1B12
:10155000A340C4F1200532FA05F63343A2405FF000
:101560000046E64002E05B085FEA3202841A71EB53
:10157000030524BF204629467641F4D302000B0020
:101580003000002170BD012ACFD970B5140C20D0D5
:10159000B1FA81F4B2FA82F5C4F120046419B4F10D
:1015A0002006D6D3B2405FF00044F440002502E0AC
:1015B00052085FEA3303C61A71EB020E24BF3046AD
:1015C000714664416D41F3D302000B0020002900F5
:1015D00070BD0C46B1FBF2F102FB11452D0445EA4A
:1015E0001045B5FBF2F402FB145580B240EA054504
:1015F000B5FBF2F002FB105240EA044070BD30B47B
:10160000436803F000420121C3F313034360002B3E
:1016100004BF0368002B08D10DE00368DD0F45EA25
:10162000440444605B000360491E4468E302F4D54F
:10163000C4F31303436043681A434260084630BC56
:10164000704700004FF4001C1CEB410F94BF1CEBD3
:10165000430F09E041EA030C50EA4C0C52EA0C0C2F
:1016600003D2994208BF9042704714BF8B42824216
:10167000704700004FF4001C1CEB410F94BF1CEBA3
:10168000430F09E041EA030C50EA4C0C52EA0C0CFF
:1016900003D28B4208BF8242704714BF99429042E6
:1016A0007047000070B504460D466068C0F30A50EC
:1016B00040F2FF71884207D16068000304BF2068D0
:1016C000002817D0022070BD20B92046FFF797FFF1
:1016D000012866DA012D0FDB40F2FF71091A8D42F5
:1016E0000AD36068002847BF00202F4900202F49F7
:1016F000C4E90001012070BD4142A942616806DAD7
:101700006FF31E51401941EA0050606040E0401EF6
:1017100063684519012205F1350062F31F5335282E
:1017200001F00041636003D361600020206070BD60
:10173000002015F11F0F04DA2068236000222035F5
:1017400062606A4212D0401E25688041C2F12003C7
:10175000C0439D4045EAD07025686668D54006FACA
:1017600003F32B4323606368D340636062680A43DA
:10177000B0F1004F626003D80DD12078C0070AD5C0
:101780002068401C2060206828B96068401C6060A8
:101790004FF0FF3070BD6068884204BF20680028A9
:1017A000F6D1002070BD00BF0000F0FF0000F07F08
:1017B000F446400D40EAC120490006D200F014F87A
:1017C000004248BF6FF00040604700F00DF84FF056
:1017D000004188428CBF084640426047400D40EAC5
:1017E000C120490080F00D8040F00040490DA1F576
:1017F0008061491C05D4D1F11F0154BFC840C017F6
:1018000070474FF000007047010040F10980F44636
:10181000404200F005F851F000416047010000BF70
:1018200009D0B0FA80F18840C91CC1F5846109056E
:1018300001EBD02140057047F0B44FF0004591EA2C
:10184000030F44BF6B4000F045BB00BF841A71EB2F
:10185000030604D26E40001BB141121973414FF4CC
:10186000001C1CEB410F34BF7CEB430684E00C0DE5
:10187000A4EB1356362E7DDC012E43DC45EAC32350
:1018800043EA525312BFD20292025B08240545EA92
:10189000C12141EA5051D2EBC020994125D407D152
:1018A000B0FA80F610FA06F164D00020203608E085
:1018B000B1FA81F6B140C6F1200220FA02F21143DA
:1018C000B0404FEAF474B4EB465434F001064FEAEA
:1018D00074040AD8D6F50016760D04F00044F040E2
:1018E00061FA06F25040F1404840C00A40EA4150D7
:1018F00021F0004128BF5FEA500550F1000044EBA1
:10190000D12137E045EAC323DB0A45EAC121C90AF0
:10191000B6F120050EDD42EA0242120CC5F12006A6
:1019200003FA06F6EB4042EA06056D42984161F182
:1019300000010DE062FA06F5F240554063FA06FC3C
:1019400082EA0C02F3405A406D42904161EB030180
:1019500011F4801F05D1641E620502D06D00404164
:10196000494121F48011430875F1004350F1000012
:1019700041EB0451F0BC70471CEB410F15D223F032
:10198000004352EA43060BD04FEA4C0CBCEB410F2C
:1019900004D80C0D661E342EB7DDEBE7801A994192
:1019A00050EA410608BF0021E4E708BF1CEB430FE3
:1019B00028BF6FF00001DDE7B0B581EA030C0CF041
:1019C000004C40F2FF7515EA11541DBF15EA13577C
:1019D000AC42AF4239E0E41923EA455343F48013A3
:1019E000C90241F0004141EA505EC7021100A7FB65
:1019F000020200284FF00000EEFB01204FF0000132
:101A0000E3FB072118BF42F00102401800214941C1
:101A1000E3FB0E01A4F580640F0302D252004041A3
:101A2000494154F101046CDD470872F1004250F164
:101A3000000051EB0451A1F580115CBF41EA0C019B
:101A4000B0BD4CEA05510020B0BD05EA1357AC42C9
:101A500014BFAF4241E050EA410E1CBF52EA430EB0
:101A600002E061460020B0BD24423C441BD15FEA45
:101A7000070EF6D0090302BF01460020AEF1140E96
:101A8000B1FA81F7AEEB070401FA07FE0C37C7F194
:101A9000200100FA07F7C8404EEA000E23EA45533A
:101AA00043F48013A2E733F00043B3FA83F704BF93
:101AB000B2FA82FE77440B3FE41BB7F1200E2FBF32
:101AC00002FA0EF3BB40C7F1200E22FA0EFE38BF19
:101AD00043EA0E03BA40641C82E750EA410E14BF89
:101AE00052EA430E6FF000014FF4001717EB430F5B
:101AF0008ABF194617EB410FB5E74CEA05510020A4
:101B0000B0BDD4F10104B4F120070FDAC4F120070D
:101B1000520828BF42F0010210FA07F501FA07F750
:101B2000E1BF2A43E0403843E1400FE0352C98DC28
:101B3000C7F1200452EA400220FA07F218BF42F02F
:101B4000010231FA07F0A1400A43002172F100427C
:101B500050F1000051EB0C01B0BD00002DE9F04147
:101B600040F2FF7581EA030C0CF0004C15EA1154A9
:101B70001DBF15EA1357AC42AF42E9E0BC41C1F3C7
:101B80001301C3F31303801A994143F4801304D261
:101B9000641E4000494180185941C90241EA505130
:101BA000B1FBF3F603FB1611A2FB0675D7EBC020C1
:101BB000A94102D2761E80185941C90241EA50510A
:101BC000B1FBF3FE03FB1E11A2FB0E75D7EBC02089
:101BD000A94103D2AEF1010E80185941890241EAB0
:101BE0009051760546EA8E2EB1FBF3F603FB1611F3
:101BF000A2FB0675D7EB8020A94102D2761E801881
:101C00005941C90241EA50514EEA060EB1FBF3F6C2
:101C100003FB1611A2FB0675D7EBC020A94102D227
:101C2000761E80185941C90241EA5051B1FBF3F7C1
:101C300003FB1711A2FB0735D3EBC020A94167F1C5
:101C400000070CBF004247F0010766F3D5274FEAB3
:101C50001E31B80814F5806414DDBD0775F100422B
:101C600050EB0E5051EB045111F5801F5CBF41EA5F
:101C70000C01BDE8F0814CF07F6141F0E0410020B3
:101C8000BDE8F081BD076D0840EA0E5041F48011B7
:101C9000D4F10104B4F120060ADAC4F120060200EE
:101CA000E04001FA06F3E1401843B24015430EE06C
:101CB000342C14DCC6F1200445EA40056D0820FAF6
:101CC00006F2154321FA06F0A1400D43002175F1FB
:101CD000004250F1000051EB0C01BDE8F081002002
:101CE0005FEA0C01BDE8F081CFB992185B41B3FA0D
:101CF00083F704BFB2FA82F6BF190B3FB7F1200693
:101D00002FBF02FA06F3BB40C7F1200622FA06F6FF
:101D100038BF3343BA401CB1E419641E2FE77F4239
:101D200031F00041B1FA81F404BFB0FA80F6A41991
:101D30000B3CB4F120062FBF00FA06F1A140C4F11C
:101D4000200620FA06F638BF3143A0403C1B16E7B8
:101D5000AC421ABF05EA1357AF4214E050EA4106FD
:101D60001CBF52EA4306BFE750EA410730466146CE
:101D70001CBF41EA0551BDE8F08152EA430C08BF9F
:101D8000C143BDE8F08100204FF4001616EB410F6F
:101D900098BF16EB430F08BF16EB410F24BFC1439A
:101DA00005E016EB430F0CBF61464CEA0551BDE858
:101DB000F081000080B5134800F0F6F80FF24C02F5
:101DC0000FF244010160426241600FF244028263FB
:101DD00081600FF24402C1600161416181618162F1
:101DE000C16201634163C2630164416401BD10B516
:101DF000044800F0D9F80446206808B9FFF7DAFF74
:101E0000204610BDF0000020000000002E00000061
:101E100066616C73650000007472756500000000F7
:101E200091FBF2F303FB1211C0E90031704700008F
:101E300080B5DFF80C0000F0B7F8806902BD000043
:101E40008001002030B430B90FF24800D0E90045DD
:101E5000C2E900451BE00170012030BC704730B47E
:101E600031B90FF23800D0E90045C3E900450EE072
:101E70001AB930BC6FF00100704708B10A780280CF
:101E80000978481E804130BCC043C00F7047002015
:101E900030BC70470000000000000000000000009F
:101EA000000000000749086808B100207047064894
:101EB000C008C00008600549C908C900091A0160C6
:101EC000704700BF14170020FF050020F80700200E
:101ED00070470000841A71EB030603D2001BB14166
:101EE000121973414FF4001C1CEB410F34BF7CEB03
:101EF000430443E00C0DA4EB1356352E50DC45EAA9
:101F0000C323DB0A45EAC121C912B6F120050DDD64
:101F100063FA05F6EB4086EA0305124218BF45F066
:101F20000105C01851F100010CD213E062FA06F568
:101F3000F2405540F3415A40B340F3405A408018B4
:101F4000594107D349085FEA30005FEA350528BFE9
:101F500045F0010501F58011420875F1004250F18C
:101F6000000041EB0451F0BC4FF4001C1CEB410F8E
:101F700038BF70470020090D090570471CEB410F61
:101F800010D252EA43060BD0BCEB410F05D80C0D22
:101F9000AB43661E342EB5DD02E0AB4380185941D9
:101FA000F0BC7047F0BC7047704700002DE9F04F5F
:101FB00085B004000D0016001F00DDF83880DDF844
:101FC0003C90B6B2B00000F057FD8346BBF1000F65
:101FD0000DD0542000F050FD8246BAF1000F02D01F
:101FE000CAF830B005E0584600F0D3FD01E000200B
:101FF0008246BAF1000F14D000200390CDF808A05B
:10200000CDF80490CDF800803B00B6B23200290034
:10201000200000F00DF8504600F06EF8012004900A
:1020200002E05FF0FF300490049805B0BDE8F08F47
:102030002DE9F14F0C0015001E000A9FDDF82C80E1
:10204000DDF83090D9F8300000EB8500001F8246A3
:102050005FEADA0A5FEACA0A1AF00700002807D026
:10206000502080F31188BFF34F8FBFF36F8FFEE7CF
:1020700000208346BBF1100F0CD214F80B0009EBC3
:102080000B0181F8340014F80B00002802D01BF17A
:10209000010BEFE7002089F84300072F01D306204A
:1020A0000700C9F82C70C9F844700020C9F848002E
:1020B00019F1040000F031FE19F1180000F02DFEB6
:1020C000C9F81090D7F10700C9F81800C9F8249092
:1020D0000020C9F84C00002089F850003200009917
:1020E000504600F05BFEC9F80000B8F1000F01D0C7
:1020F000C8F80090BDE8F18F10B5040000F0B7FEFD
:10210000DFF8F8040068401CDFF8F0140860DFF81E
:102110008405006800280AD1DFF878050460DFF83C
:10212000DC040068012811D100F0CEFA0EE0DFF8DF
:1021300068050068002809D1E06ADFF858150968C9
:10214000C96A884202D3DFF84C050460DFF84C0509
:102150000068401CDFF844150860DFF86805006877
:102160000121E26A91400843DFF858150860211DFB
:10217000DFF8AC05E26A14235A43104400F0D0FDA6
:1021800000F092FEDFF81005006800280FD0DFF89D
:1021900004050068C06AE16A884208D25FF0805096
:1021A000DFF804170860BFF34F8FBFF36F8F10BDC8
:1021B00038B504000025002C15D0DFF8140600689F
:1021C000002807D0502080F31188BFF34F8FBFF352
:1021D0006F8FFEE700F047F80021200000F0E8FBD9
:1021E00000F049F80500002D08D15FF08050DFF8BD
:1021F00098170860BFF34F8FBFF36F8F31BD1CB5C9
:10220000DFF88C0701900020009000238022DFF887
:1022100084170FF28D40FFF7C9FE0400012C16D180
:10222000502080F31188BFF34F8FBFF36F8F5FF0A3
:10223000FF30DFF8641708600120DFF85C140860E5
:102240000020DFF85C17086000F0CDFD0AE014F113
:10225000010F07D1502080F31188BFF34F8FBFF3D8
:102260006F8FFEE713BDDFF868050068401CDFF8DC
:1022700060150860704770B500240025DFF8500530
:102280000068002807D1502080F31188BFF34F8FDA
:10229000BFF36F8FFEE700F0EAFDDFF8340500685A
:1022A000401EDFF82C150860DFF8240500680028C0
:1022B0005CD1DFF848030068002857D0DFF8CC066F
:1022C000006800282AD0DFF8C406C068C06804008F
:1022D00014F1180000F04DFD201D00F04AFDDFF85C
:1022E000E40300680121E26A91400843DFF8D41357
:1022F0000860211DDFF82804E26A14235A431044C1
:1023000000F00EFDE06ADFF88C130968C96A8842A4
:10231000D4D30120DFF81C170860CFE7002C01D0D0
:1023200000F03EFADFF874060668002E0ED000F0CA
:1023300021F8002803D00120DFF8F8160860761E87
:10234000002EF4D10020DFF854160860DFF8E40610
:10235000006800280AD0012005005FF08050DFF8F7
:1023600028160860BFF34F8FBFF36F8F00F09CFDFE
:10237000280070BD2DE9F0410026DFF85404006804
:10238000002840F07F80DFF818060068471CDFF85F
:1023900010060760002F24D1DFF8080600680068E7
:1023A000002807D0502080F31188BFF34F8FBFF370
:1023B0006F8FFEE7DFF8EC0500688046DFF8E80580
:1023C0000068DFF8E0150860DFF8DC05C0F8008081
:1023D000DFF8D8050068401CDFF8D015086000F071
:1023E000DFF9DFF8B405006887423ED3DFF8B405B3
:1023F00000680068002805D15FF0FF30DFF898150D
:10240000086032E0DFF89C050068C068C06804001E
:1024100060680500AF4203D2DFF87C05056024E068
:10242000201D00F0A6FCA06A002803D014F11800BB
:1024300000F09FFCDFF88C0200680121E26A914005
:102440000843A0490860211DDFF8D402E26A142382
:102450005A43104400F064FCE06A8E490968C96A76
:102460008842C3D301200600C0E7DFF8B4028949DF
:102470000968C96A142251434058022809D301202F
:10248000060006E0DFF814050068401CDFF80C15B4
:102490000860DFF8A0050068002801D001200600D0
:1024A0003000BDE8F081DFF828030068002804D080
:1024B0000120DFF8801508602EE00020DFF8741599
:1024C000086080490968B1FA81F1D1F11F01080063
:1024D0009349142202FB00F28958002907D15021A8
:1024E00081F31188BFF34F8FBFF36F8FFEE78C4AE4
:1024F000142303FB00F31A4411004A6852684A602F
:102500004A6811F108039A4202D14A6852684A6047
:102510004968C9685F4A1160704738B504000D000A
:10252000002C07D1502080F31188BFF34F8FBFF3E9
:102530006F8FFEE7DFF80805006810F11801200032
:1025400000F0FAFB0121280000F032FA31BD70B52D
:102550000400E068C0680500002D07D1502080F31A
:102560001188BFF34F8FBFF36F8FFEE715F118008F
:1025700000F0FFFB96480068002813D1281D00F0EA
:10258000F8FB504800680121EA6A914008434D4930
:102590000860291D6248EA6A14235A43104400F077
:1025A000BFFB05E015F11801DFF8E00300F0B8FB10
:1025B00038480068C06AE96A884206D201200600ED
:1025C0000120DFF87014086001E0002006003000F0
:1025D00070BD002807D1502181F31188BFF34F8FC0
:1025E000BFF36F8FFEE7DFF8C41309680160DFF8FF
:1025F000481409684160704700000000E816002098
:10260000F8B504000D00002C07D1502080F311888C
:10261000BFF34F8FBFF36F8FFEE7002D07D1502020
:1026200080F31188BFF34F8FBFF36F8FFEE700F089
:102630001EFCDFF86C030768286810F1010F02D157
:10264000002006001DE0DFF864030068216888426E
:1026500005D06068874202D30120060011E060685F
:10266000381A296888420AD22868C01B616808188D
:1026700028602000FFF7ADFF0020060001E00120E8
:10268000060000F011FC3000F2BD0120DFF8A413B9
:1026900008607047D8160020F416002004170020A8
:1026A00010B5040000F040F81D4800680228F9D376
:1026B0005FF08050DFF88C130860BFF34F8FBFF3DB
:1026C0006F8FEFE7F016002010B500200400072CF4
:1026D00008D21348142101FB04F1084400F00EFB5A
:1026E000641CF4E7DFF8600300F008FBDFF85C032C
:1026F00000F004FBDFF8940200F000FB094800F052
:10270000FDFAA04800F0FAFADFF83C03DFF8941273
:102710000860DFF83803DFF83813086010BD0000E8
:10272000F81300207816002038B5DFF82803006879
:1027300000282BD0FFF797FDDFF81C030068002866
:1027400001D1012400E00024FFF795FD002CECD11D
:1027500000F08DFBDFF80003C068C0680500281D8D
:1027600000F007FBDFF8D4020068401EDFF8CC124F
:102770000860DFF8E0020068401EDFF8D812086049
:1027800000F092FB280000F002F8CEE731BD10B552
:102790000400206B00F0FDF9200000F0FAF910BDF4
:1027A000DFF8001209680968002905D15FF0FF31E0
:1027B000DFF8E421116009E0DFF8E8110968C96871
:1027C000C96808004168DFF8D02111607047000037
:1027D00010170020DFF884120968002902D10121B6
:1027E000080009E0DFF878120968002902D1022107
:1027F000080001E000210800704738B504002500FA
:10280000002C4ED0E86ADFF838120968C96A88429D
:1028100047D2A869002806D4DFF824020068C06AFD
:10282000D0F10700A8616869DFF83812EA6A14235A
:102830005A43114488422FD1281D00F09AFA0028EB
:1028400011D1DFF82002E96A1422514340580028D0
:1028500009D1DFF8140200680121EA6A9140884337
:10286000DFF804120860DFF8D8010068C06AE86287
:10287000DFF8F40100680121EA6A91400843DFF8BB
:10288000E8110860291DDFF8DC01EA6A14235A43C5
:10289000104400F045FA04E0DFF8A4010068C06AC3
:1028A000E86231BD0000000004ED00E070B50400F6
:1028B00025000026002C53D0DFF8840100688542F3
:1028C00007D0502080F31188BFF34F8FBFF36F8F75
:1028D000FEE7A86C002807D1502080F31188BFF3D1
:1028E0004F8FBFF36F8FFEE7A86C401EA864E86AA5
:1028F000696C884234D0A86C002831D1281D00F0C2
:1029000038FA002811D1DFF85C01E96A142251433A
:102910004058002809D1DFF8500100680121EA6A17
:1029200091408843DFF840110860686CE862E86A0B
:10293000D0F10700A861DFF8300100680121EA6AE0
:1029400091400843DFF820110860291DDFF81401C9
:10295000EA6A14235A43104400F0E2F90120060009
:10296000300070BDDFF8D8000068002805D0DFF81F
:10297000D0000068816C491C8164DFF8C4000068E5
:10298000704700008C16002004ED00E06416002063
:102990000C1700203069000808170020F8160020E6
:1029A000EC160020DC160020E016002000170020A6
:1029B000F8B504000D002048076821480068001D94
:1029C00000F0D7F900280BD11D4800682649096896
:1029D0000122C06A12FA00F031EA000022490860C0
:1029E00014F1010F08D1002D06D015480068011D13
:1029F0001E4800F095F91BE0E01906001048006839
:102A00004660BE4207D20E480068011D10480068AB
:102A100000F092F90CE00A480068011D14480068B3
:102A200000F08AF913480068864201D21148066016
:102A3000F1BD0000FC160020EC160020E816002076
:102A4000D816002004ED00E03C16002050160020AF
:102A5000E0160020E416002078160020F41600206E
:102A600010170020F8130020F01600208C1600200C
:102A7000DC160020081700202DE9F04104005FF06B
:102A80000008FFF7F0FB96480068002801D100F02D
:102A9000BDF89448006804426AD1002C15D09248D1
:102AA0000068041914F0070F0FD014F1080014F097
:102AB0000701441A14F0070F07D0502080F3118843
:102AC000BFF34F8FBFF36F8FFEE7002C50D08748C6
:102AD0000068A0424CD3864806008548006805007F
:102AE0006868A04205D22868002802D02E002D6810
:102AF000F6E77B48006885423AD030687A49096831
:102B0000084480462868306077480068400069685B
:102B1000091B884215D205EB0400070017F00700D7
:102B2000002807D0502080F31188BFF34F8FBFF3E8
:102B30006F8FFEE76868001B78606C60380000F0FB
:102B40009CF86A4800686968401A684908606748E4
:102B5000006868490968884203D26448006865498A
:102B6000086068685F490968084368600020286059
:102B7000FFF781FB18F00700002807D0502080F3F2
:102B80001188BFF34F8FBFF36F8FFEE74046BDE85C
:102B9000F08170B504002600002C36D05248006841
:102BA00040420644350068684E490968084207D12A
:102BB000502080F31188BFF34F8FBFF36F8FFEE774
:102BC0002868002807D0502080F31188BFF34F8F6A
:102BD000BFF36F8FFEE7686842490968084214D066
:102BE0002868002811D168683E49096888436860F0
:102BF000FFF739FB3D480068696808183B490860E1
:102C0000280000F03AF8FFF736FB70BD30B44FF4FF
:102C10004063394C220012F0070F05D0D21DD208B4
:102C2000D2009B1A344CE3181100314C216000246F
:102C30002F4D6C605C1822002B4C2468121BD208AC
:102C4000D200274C22600024254D2D686C600024A2
:102C5000234D2D682C600800141A4460204C246811
:102C600004604468234D2C604468204D2C605FF064
:102C700000441C4D2C6030BC704710B41C4B1A0033
:102C80001368834201D21268FAE7110053680B44BB
:102C9000834204D153684468E31853601000010074
:102CA00043680B441468A34211D113680C4C246888
:102CB000A34208D0436814686468E318436013684B
:102CC0001B68036005E0064B1B68036001E01368A6
:102CD0000360824200D0106010BC7047000000000A
:102CE000C0160020CC1600203C690008C416002045
:102CF000A0160020C8160020F807002010F10801D7
:102D000041605FF0FF31816010F10801C16010F196
:102D100008010161002101607047002101617047D5
:102D200042684A6093688B6093685960916008615B
:102D300003685B1C0360704710B40B6813F1010F4C
:102D400002D10469220008E010F10804220054684E
:102D50002468A34201D35268F9E754684C604C6878
:102D6000A1608A60516008610468641C046010BC42
:102D70007047010008698A684B689A604A688B68E6
:102D80005A6042688A4201D18A68426000220A6120
:102D90000268521E0260006870470000001F5FF06A
:102DA00080730360001F4B085B000360001F0FF27D
:102DB0000D030360143802602038704751480068E2
:102DC00010F1010F07D0502080F31188BFF34F8F0F
:102DD000BFF36F8FFEE7502080F31188BFF34F8F52
:102DE000BFF36F8FFEE700B583B0474801780191CC
:102DF000FF21017001788DF800109DF8001011F08E
:102E00005001424A11700721414A11609DF800109B
:102E100009060AD53E490968491E3D4A11609DF8D8
:102E2000001049008DF80010F0E7394909680902DF
:102E3000374A11603649096811F4E061344A11607B
:102E4000019901703348006850F4700031490860FE
:102E50003048006850F070402E49086000F05EF87D
:102E600000202849086000F0A0F800200EBD502086
:102E700080F31188BFF34F8FBFF36F8F2148006835
:102E8000401C204908601F48006801280BD12248D7
:102E90000068000607D0502080F31188BFF34F8FE1
:102EA000BFF36F8FFEE7704716480068002807D110
:102EB000502080F31188BFF34F8FBFF36F8FFEE771
:102EC00010480068401E0F4908600E48006800283E
:102ED00002D1002080F31188704780B5502080F324
:102EE0001188BFF34F8FBFF36F8FFFF743FA0028AE
:102EF00003D05FF0805008490860002080F31188FB
:102F000001BD00000000002000E400E018170020D0
:102F1000D016002020ED00E004ED00E00648006837
:102F20004FF47A71B0FBF1F0401E044908600720AD
:102F300003490860704700BF0400002014E000E06F
:102F400010E000E0EFF30980BFF36F8F1D4B1A68AC
:102F500020E9F00F106008B54FF0500080F31188A1
:102F6000BFF34F8FBFF36F8FFFF79DFA4FF0000055
:102F700080F31188BDE8084019680868B0E8F00FD0
:102F800080F30988BFF36F8F70470E4B196808688C
:102F9000B0E8F00F80F30988BFF36F8F4FF00000A7
:102FA00080F311884EF00D0E7047074800680068E6
:102FB00080F3088862B661B6BFF34F8FBFF36F8F9F
:102FC00000DF0000D816002008ED00E070B582B0E8
:102FD00004000025002C05D14FF4B871DFF8B409C6
:102FE00000F043FD2068002809D0207810F00F0F72
:102FF00005D140F27111DFF89C0900F036FD207810
:10300000C00740F19580606800280DD06068B0F579
:10301000803F09D06068B0F5A02F05D040F277114D
:10302000DFF8700900F021FDDFF83009006810F0CA
:103030000C0004280BD0DFF82409006810F00C0005
:1030400008280ED1DFF814090068C00309D5DFF89D
:103050000809006880036BD56068002868D10120EA
:10306000A1E26068B0F5803F08D1DFF8EC080068A5
:1030700050F48030DFF8E018086038E0606800281D
:1030800010D1DFF8D408006830F48030DFF8C818B9
:103090000860DFF8C408006830F48020DFF8B81852
:1030A000086024E06068B0F5A02F10D1DFF8A80810
:1030B000006850F48020DFF8A0180860DFF8980856
:1030C000006850F48030DFF8901808600FE0DFF8F7
:1030D0008808006830F48030DFF87C180860DFF87A
:1030E0007808006830F48020DFF86C1808606068A9
:1030F00000280ED000F0BAFC0500DFF85C0800687C
:10310000800315D400F0B2FC401B6528F5D30320E2
:1031100049E200F0ABFC0500DFF83C0800688003E2
:1031200006D500F0A3FC401B6528F5D303203AE246
:103130002078800771D52069002808D020690128EF
:1031400005D040F2AB11DFF84C0800F08EFC60694E
:10315000202805D34FF4D671DFF8380800F085FC3D
:10316000DFF8F807006810F00C0F0BD0DFF8EC0761
:10317000006810F00C0008281AD1DFF8E00700689A
:10318000C00315D4DFF8D0070068800704D5206994
:10319000012801D0012006E2DFF8BC07006830F00A
:1031A000F800616950EAC100DFF8AC17086034E04C
:1031B000206900281ED00120DFF8DC17086000F02D
:1031C00055FC0500DFF890070068800706D400F082
:1031D0004DFC401B0328F5D30320E4E1DFF878071A
:1031E000006830F0F800616950EAC100DFF8681744
:1031F000086012E00020DFF8A017086000F036FC3D
:103200000500DFF854070068800706D500F02EFCA3
:10321000401B0328F5D30320C5E12078000738D5EB
:10322000A069002808D0A069012805D04FF4F671E4
:10323000DFF8600700F019FCA069002816D0012013
:10324000DFF85817086000F011FC0500DFF84007B0
:103250000068800706D400F009FC401B0328F5D362
:103260000320A0E1012000F07BFB12E00020DFF84A
:103270002C17086000F0FAFB0500DFF8140700685F
:10328000800706D500F0F2FB401B0328F5D303208E
:1032900089E12078400740F1B6800026E0680028E8
:1032A0000BD0E068012808D0E068052805D040F27E
:1032B0001B21DFF8E00600F0D8FBDFF8E406006829
:1032C000C00010D4DFF8D806006850F08050DFF856
:1032D000D0160860DFF8C806006810F08050009033
:1032E000009801200600DFF8BC060068C00516D46F
:1032F000DFF8B006006850F48070DFF8A8160860A8
:1033000000F0B4FB0500DFF89C060068C00506D499
:1033100000F0ACFB401B6528F5D3032043E1E068D7
:10332000012808D1DFF88006006850F00100DFF8BE
:103330007816086037E0E068002810D1DFF86806EA
:10334000006840084000DFF860160860DFF85806A3
:10335000006830F00400DFF85016086023E0E068F1
:10336000052810D1DFF84006006850F00400DFF8AF
:1033700038160860DFF83006006850F00100DFF80A
:10338000281608600FE0DFF82006006840084000BB
:10339000DFF814160860DFF81006006830F004004B
:1033A000DFF804160860E068002810D000F05EFB2B
:1033B0000500DFF8F4050068800719D400F056FB1B
:1033C000401B41F289318842F3D30320EBE000F047
:1033D0004DFB0500DFF8D0050068800708D500F038
:1033E00045FB401B41F289318842F3D30320DAE0E8
:1033F000F6B2012E07D1DFF8A805006830F0805042
:10340000DFF89C150860E06900280BD0E06901280E
:1034100008D0E069022805D040F2B921DFF8740530
:1034200000F023FBE069002800F0BC80DFF82C05E9
:10343000006810F00C00082800F0B280E069022853
:1034400040F09B80206A002809D0206AB0F5803FB8
:1034500005D040F2C221DFF83C0500F006FB606AAF
:1034600000283DD0606AB0F5802F39D0606AB0F591
:10347000002F35D0606AB0F5402F31D0606AB0F5CA
:10348000801F2DD0606AB0F5A01F29D0606AB0F50A
:10349000C01F25D0606AB0F5E01F21D0606AB0F58A
:1034A000001F1DD0606AB0F5101F19D0606AB0F51A
:1034B000201F15D0606AB0F5301F11D0606AB0F5DA
:1034C000401F0DD0606AB0F5501F09D0606AB0F59A
:1034D000601F05D040F2C321DFF8B80400F0C5FA40
:1034E0000020DFF8C814086000F0C0FA0500DFF81B
:1034F00068040068800106D500F0B8FA401B032874
:10350000F5D303204FE0206AB0F5803F16D1A068C4
:10351000002809D0A068B0F5003F05D040F2D921BD
:10352000DFF8700400F0A1FADFF83004006830F42E
:103530000030A1680843DFF824140860DFF81C0499
:10354000006830F47410216A0843616A0843DFF8A8
:103550000C1408600120DFF85414086000F086FAAB
:103560000500DFF8F403006880011BD400F07EFA48
:10357000401B0328F5D3032015E00020DFF82C14AE
:10358000086000F073FA0500DFF8CC0300688001E2
:1035900008D500F06BFA401B0328F5D3032002E0A6
:1035A000012000E0002076BD70B504000D0000266B
:1035B000002C05D140F22E31DFF8D80300F055FA87
:1035C000207810F00F0F05D140F22F31DFF8C4033F
:1035D00000F04BFA002D09D0012D07D0022D05D0A7
:1035E0004FF44C71DFF8AC0300F03FFADFF8C00392
:1035F000006810F00700A84211D2DFF8B403006899
:10360000C008C0002843DFF8A8130860DFF8A00353
:10361000006810F00700A84201D0012022E12078C4
:10362000800740D52078400707D5DFF830030068D1
:1036300050F4E060DFF8241308602078000707D515
:10364000DFF81803006850F46050DFF810130860CA
:10365000A06800281DD0A06880281AD0A0689028F3
:1036600017D0A068A02814D0A068B02811D0A068F6
:10367000C0280ED0A068D0280BD0A068E02808D0C1
:10368000A068F02805D040F25631DFF8080300F0BA
:10369000ECF9DFF8C802006830F0F000A1680843D8
:1036A000DFF8B81208602078C0076BD56068002882
:1036B0000BD06068012808D06068022805D040F26D
:1036C0005D31DFF8D00200F0D0F96068012806D142
:1036D000DFF884020068800312D40120C2E0606831
:1036E000022806D1DFF870020068800108D40120AA
:1036F000B8E0DFF864020068800701D40120B1E07F
:10370000DFF8580200688008800061680843DFF82D
:103710004C12086000F0AAF90600606801280FD179
:10372000DFF83802006810F00C0004282AD000F0FE
:103730009DF9801B41F289318842F1D3032091E049
:10374000606802280FD1DFF81402006810F00C0046
:10375000082817D000F08AF9801B41F2893188428D
:10376000F1D303207EE0DFF8F401006810F00C0FC5
:1037700008D000F07BF9801B41F289318842F2D3F6
:1037800003206FE0DFF82802006810F00700854290
:1037900011D2DFF81C020068C008C0002843DFF81F
:1037A00010120860DFF80802006810F00700A84255
:1037B00001D0012056E02078400720D5E06800289D
:1037C00015D0E068B0F5806F11D0E068B0F5A06F5B
:1037D0000DD0E068B0F5C06F09D0E068B0F5E06FDB
:1037E00005D040F2B131DFF8AC0100F03EF95B48A2
:1037F000006830F4E060E1680843584908602078C8
:10380000000720D52069002814D02069B0F5806F0A
:1038100010D02069B0F5A06F0CD02069B0F5C06F52
:1038200008D02069B0F5E06F04D04FF46E715948AC
:1038300000F01BF94948006830F46050216950EAF3
:10384000C1004649086000F00EF85A49434A126820
:10385000C2F30312895CC8404C490860002000F0A4
:103860000BF9002070BD70B586B001A85249102236
:10387000FDF7E2FD51480088ADF80000002100226C
:10388000002300240020354D2D68290011F00C057F
:10389000042D02D0082D03D01DE03B4D28001CE074
:1038A00001ADC1F38346AD5D2C00CD030DD56D4652
:1038B0002A4E3668C6F34046AD5D2A00324D05FB00
:1038C00004F5B5FBF2F52B0003E03D4D05FB04F5D7
:1038D0002B00180001E02C4D280006B070BD2B48CD
:1038E0000068704780B5FFF7FAFF36491B4A126837
:1038F000C2F3C222895CC84002BD38B504000D0085
:10390000002C04D14FF4A661224800F0AEF8002D3F
:1039100004D140F231511F4800F0A7F80F20206079
:103920000E48006810F0030060600C48006810F05A
:10393000F000A0600948006810F4E060E06007480B
:103940000068C00810F4E06020611948006810F0B9
:103950000700286031BD0000001002400410024042
:1039600081B00A490968C9084FF47A72B1FBF2F1D3
:1039700001FB00F1009100BF00994A1E009200294E
:10398000F9D101B07047000000127A000400002055
:10399000241002409C64000800004242800442421D
:1039A0001C100240007000402010024060004242A3
:1039B00000200240B4680008A468000896120008BD
:1039C00000093D002869000880B500F09DF800F06E
:1039D00009F800F0ADF800F03FF900F0B5F900F09B
:1039E000D4FAFEE700B58FB005A8282100F0F8FA58
:1039F0006846142100F0F4FA012005905FF480304D
:103A00000690002007900120099002200C905FF49E
:103A100080300D905FF4E0100E9005A8FFF7D6FA05
:103A2000002801D000F020F80F2000900220019023
:103A3000002002904FF48060039000200490022147
:103A40006846FFF7B1FD002801D000F00DF80FB077
:103A500000BD10B5040020680249884201D100F081
:103A6000C3FA10BD002C0140704770470148006840
:103A7000704700BFD416002070B588B00400002540
:103A8000002600222100192000F021FB192000F05F
:103A90003DFB1948006850F400601749086016485B
:103AA000006810F400600090009801A902A8FFF7D8
:103AB00024FFFFF717FF05001048B5FBF0F0401E8C
:103AC00006000F480F49086040F2E7300D49C86012
:103AD0000C48466000200B490861002009498860B5
:103AE000084800F02DFB002803D1064800F08BFBAE
:103AF00000E0012008B070BD1810024040420F00E5
:103B0000002C0140FC15002080B50848006850F0EA
:103B1000100006490860032000F0C5FA0020FFF7F6
:103B2000ABFF00F09DFC002002BD00000020024021
:103B300000B585B001A8102100F052FA4148006894
:103B400050F010003F4908603E48006810F0100037
:103B5000009000983B48006850F020003949086008
:103B60003848006810F02000009000983548006840
:103B700050F00400334908603248006810F0040037
:103B8000009000982F48006850F008002D49086008
:103B90002C48006810F008000090009800224FF4B4
:103BA0002041294800F069FE00221E21274800F02C
:103BB00064FE4FF420400190012002900020039009
:103BC0000220049001A9204800F07AFC4FF48040C4
:103BD00001900320029001A91B4800F071FC49F6F6
:103BE000017001900320029001A9184800F068FCC0
:103BF0001E200190012002900020039002200490DA
:103C000001A9124800F05CFC4EF6FF700190032001
:103C1000029001A90E4800F053FC4FF4805001902F
:103C20000C4802900020039001A9094800F048FCCC
:103C300000220521282000F04AFA282000F066FA28
:103C400005B000BD181002400010014000080140FE
:103C5000000C01400000311080B53748374908603A
:103C60004FF4827035494860002034498860002054
:103C70003249C86000203149086100202F4948615D
:103C80004FF400702D49886138202C49C86100200C
:103C90002A49086200202949486200202749886291
:103CA0000A202649C862254800F040FE002801D0BD
:103CB000FFF7DAFE01BD10B586B0040001A810219F
:103CC00000F08EF920681C49884233D11C480068F6
:103CD00050F480501A4908601948006810F4805068
:103CE000009000981648006850F0040014490860DD
:103CF0001348006810F0040000900098A020019084
:103D0000022002900320049001A90E4800F0D8FB85
:103D100040200190002002900020039001A9094852
:103D200000F0CEFB00220521232000F0D0F9232053
:103D300000F0ECF906B010BD003001400415002081
:103D4000181002400008014000B58FB00AA87A4957
:103D50001422FDF771FB00210AA800F01BF9774936
:103D6000086005A876491422FDF766FB002105A826
:103D700000F010F973490860684673491422FDF792
:103D80005BFB0021684600F005F9704908600022DD
:103D90000121032000F0DAFE6D4908600FB000BD7C
:103DA00030B5D3B004006B480690042005906948F4
:103DB00008901020079067480490022003906648FE
:103DC000099003A81090654801F08EF90A2001902F
:103DD0000320009002230122002110A801F070FBB3
:103DE0005F4801F081F94FF4FA62102110A801F048
:103DF000DBFA05004FF47A7000F0E3F810A801F048
:103E000025FB0500072DF5D128000200D2B20AA932
:103E100010A801F06CFB9DF82E00302804D02CD3A4
:103E200032281DD00ED328E000208DF808004D4820
:103E300001F05AF90023642202A94548006800F005
:103E4000CAFE1AE001208DF80800474801F04CF93D
:103E50000023642202A93E48006800F0BCFE0CE08A
:103E600002208DF80800414801F03EF90023642249
:103E700002A93748006800F0AEFE0AAA29003C48B3
:103E800001F032F9B6E710B582B0040000208DF8D9
:103E900000000023002269462D48006800F074FFEE
:103EA0009DF80000002803D002281BD007D3F0E7BC
:103EB00000224FF400412F4800F0DFFCE9E7012227
:103EC0004FF400412B4800F0D8FC322000F079F884
:103ED00000224FF40041274800F0CFFC642000F09E
:103EE00070F8D6E701224FF40041224800F0C5FCEB
:103EF000322000F066F800224FF400411D4800F027
:103F0000BCFC002000F05DF8C3E710B504000022FF
:103F10004FF40051174800F0B0FC4FF47A7000F0F5
:103F200050F801224FF40051124800F0A6FC4FF463
:103F30007A7000F046F8EAE758680008B4160020E6
:103F40006C680008B816002080680008BC160020C5
:103F5000B01600200008014004150020D0670008BA
:103F6000B0670008D4680008E0680008EC68000842
:103F700094680008001001400100002009B2842963
:103F800002D009B2CA1C1018704780B5FEF737F985
:103F9000002002BD3EB504000D00B4F90800FFF793
:103FA000EBFF02A9019100902B00226992B22168D7
:103FB0006068FDF7FBFF012801D0002000E00298B7
:103FC0003EBD38B504000120B4FBF0F5002D01D052
:103FD000280000E00120FEF7EBF8002032BD0000D1
:103FE000002201F0A3BA00000348006803490978E1
:103FF0000818014908607047D4160020F00100201D
:1040000010F00702DFF820311B6819004FF6FF039C
:104010001940DFF8183153EA02231943DFF8083159
:104020001960704740480068C0F3022070470121C2
:1040300010F01F0291403E4A40B2430942F823105B
:10404000704710B440B2002808D50A01394B40B27D
:1040500010F00F04234403F8042C03E00A01364B4C
:1040600040B21A5410BC704770B4030013F0070438
:10407000D4F10706052E01D3042001E0D4F1070096
:10408000261D072E01D2002500E0E51E012616FAA6
:1040900000F0401E0840A8400121A940491E1140DF
:1040A000084370BC704710B50400072C0BD0062CD9
:1040B00009D0052C07D0042C05D0032C03D0A22155
:1040C0001E48FFF7D2FC2000FFF79AFF10BDF8B59D
:1040D00004000D0016000027102E03D3BA21174844
:1040E000FFF7C3FC102D03D3BB211448FFF7BDFC21
:1040F000FFF798FF0700320029003800FFF7B4FFF0
:104100000100200040B2FFF79CFFF1BD10B5040094
:1041100064B2002C03D5CE210848FFF7A6FC20008E
:1041200040B2FFF784FF10BD0CED00E00000FA057F
:1041300000E100E018ED00E000E400E0E4630008C6
:1041400010B50400002C01D101205BE02068DFF8ED
:104150000811884212D02068B0F1804F0ED020683C
:10416000DFF8F810884209D02068DFF8F4108842A0
:1041700004D0D921DFF8EC00FFF777FCA068002815
:1041800010D0A06810280DD0A06820280AD0A06800
:10419000402807D0A068602804D0DA21DFF8C400E6
:1041A000FFF763FC206900280CD02069B0F5807F00
:1041B00008D02069B0F5007F04D0DB21DFF8A4002F
:1041C000FFF753FCA069002807D0A069802804D01D
:1041D000DC21DFF89000FFF748FC94F83D00002850
:1041E00005D1002084F83C00200000F037F90220BF
:1041F00084F83D00211D206800F0F3F8012084F8C8
:104200003D00002010BD10B504002068DFF8481004
:10421000884213D02068B0F1804F0FD02068DFF8BB
:104220003C1088420AD02068DFF83410884205D05C
:1042300040F26111DFF83000FFF717FC2068C0681A
:1042400050F001002168C8602068006850F001004B
:1042500021680860002010BD002C014000040040CF
:1042600000080040B0650008B065000810B5040003
:104270002068006980071AD52068C068800716D5B5
:104280007FF00200216808610120207720688069A2
:1042900010F0030F03D0200001F061F905E02000C9
:1042A00001F05EF9200001F05CF900202077206821
:1042B000006940071AD52068C068400716D57FF00E
:1042C000040021680861022020772068806910F4CA
:1042D000407F03D0200001F042F905E0200001F00A
:1042E0003FF9200001F03DF90020207720680069A7
:1042F00000071AD52068C068000716D57FF00800AF
:1043000021680861042020772068C06910F0030F3D
:1043100003D0200001F023F905E0200001F020F98E
:10432000200001F01EF90020207720680069C006F7
:104330001AD52068C068C00616D57FF01000216825
:104340000861082020772068C06910F4407F03D0FE
:10435000200001F004F905E0200001F001F920003F
:1043600001F0FFF80020207720680069C0070AD517
:104370002068C068C00706D57FF001002168086189
:104380002000FFF766FB2068006900060AD5206858
:10439000C068000606D57FF0800021680861200013
:1043A00001F0E0F82068006940060AD52068C0687E
:1043B000400606D57FF0400021680861200001F02A
:1043C000D2F82068006980060AD52068C068800697
:1043D00006D57FF0200021680861200001F0C4F8B4
:1043E00010BD002203681A00DFF86C30984208D034
:1043F000B0F1804F05D0164B984202D0154B984231
:1044000003D132F070024B681A43DFF84C30984207
:1044100008D0B0F1804F05D00D4B984202D00D4B23
:10442000984203D132F44072CB681A4332F08002D2
:104430004B691A4302608B68C3620B688362DFF8C2
:104440001830984201D10B6903630123436170471F
:104450000004004000080040002C014070470000AC
:1044600080B51448006850F00100124908601148F6
:10447000006810F00100009000980F48006850F0AC
:1044800080500D4908600C48006810F08050009082
:10449000009800220F217FF00100FFF718FE074966
:1044A0000968080030F0E06050F0007003490860CF
:1044B00001BD00BF181002401C1002400400014062
:1044C0002DE9F04F83B004000D0000275FF00008D5
:1044D0005FF000095FF0000A5FF0000BDFF8FC03FB
:1044E000844214D0DFF8F803844210D0DFF8F403DC
:1044F00084420CD0DFF8F003844208D0DFF8EC03EC
:10450000844204D0CD21DFF8E803FFF7AEFA286833
:10451000000404D02868000C0004002804D0CE2138
:10452000DFF8CC03FFF7A1FA6868002831D068688B
:1045300001282ED0686811282BD06868022828D05E
:104540006868122825D06868DFF8A813884220D050
:104550006868DFF8A41388421BD06868DFF89C13F2
:10456000884216D06868DFF89813884211D06868CE
:10457000DFF8901388420CD06868DFF88C1388420B
:1045800007D06868032804D0CF21DFF86403FFF761
:104590006CFA00200600102E80F056810120B040F9
:1045A0000700286838408046B84540F04B81DFF866
:1045B0002C03844214D0DFF82803844210D0DFF8A3
:1045C000240384420CD0DFF82003844208D0DFF8B3
:1045D0001C03844204D0DD21DFF81403FFF745FA01
:1045E000686800286AD0012821D0022842D0032818
:1045F00000F0848011282BD012284DD0DFF8F4125F
:1046000088425BD0DFF8F812884257D0DFF8E81212
:10461000884253D0DFF8EC1288424FD0DFF8DC122A
:1046200088424BD0DFF8E012884247D069E0E86862
:1046300002280AD0E868012807D0E868032804D0D7
:10464000E521DFF8AC02FFF710FAE868824658E08F
:10465000E86802280AD0E868012807D0E86803283B
:1046600004D0EC21DFF88802FFF7FFF9E868001DAD
:10467000824646E0E86802280AD0E868012807D0A8
:10468000E868032804D0F321DFF86402FFF7EDF9AE
:10469000E8680830824634E0E86802280AD0E86812
:1046A000012807D0E868032804D0FA21DFF8400287
:1046B000FFF7DBF9E8680C30824622E0A8680028A2
:1046C0000BD0A868012808D0A868022805D040F2BD
:1046D0000711DFF81C02FFF7C8F9A868002802D10B
:1046E0000420824609E0A868012803D108208246F8
:1046F000276102E008208246676102E000208246CE
:10470000FFE7B8F1FF0F01D8009401E0201D0090F1
:10471000B8F1FF0F02D85FEA860B03E0B6F108009C
:104720005FEA800B009800680F2111FA0BF18843B3
:104730001AFA0BF10843009908606868C00040F15C
:104740008180DFF8C801006850F00100DFF8BC117B
:104750000860DFF8B801006810F0010001900198CE
:10476000DFF8AC01B10850F8210081460F2016F0A7
:104770000301C9B28900884039EA0009DFF85C0109
:10478000844201D1002011E0DFF85401844201D1BC
:1047900001200BE0DFF84C01844201D1022005E04A
:1047A0005148844201D1032000E0042016F00301A7
:1047B000C9B28900884050EA0909DFF85401B108FC
:1047C00040F821906868C00306D55248006858EA4E
:1047D00000005049086005E04E48006830EA0800D3
:1047E0004C4908606868800306D54B48006858EA61
:1047F00000004949086005E04748006830EA0800C1
:10480000454908606868C00206D54448006858EA0F
:1048100000004249086005E04048006830EA0800AE
:104820003E4908606868800206D53D48006858EA3D
:1048300000003B49086005E03948006830EA08009C
:1048400037490860761CA6E6BDE8F78F70B504000E
:104850000D00ADB2002D04D140F2C3112448FFF782
:1048600004F9A068ADB2284202D00120060001E0A0
:10487000002006003000C0B270BD70B504000D000D
:104880001600ADB2002D04D140F2E3111848FFF735
:10489000ECF8F6B2002E07D0F6B2012E04D04FF499
:1048A000F2711348FFF7E1F8F6B2002E02D0ADB274
:1048B000256102E0ADB22804206170BD10B504008E
:1048C00018480068A4B2204206D0A4B2154804607B
:1048D000200080B200F028F810BD00000008014060
:1048E000000C01400010014000140140001801407C
:1048F0004064000800001110000021100000311079
:1049000000001210000022100000321018100240A7
:104910000800014000040140040401400804014073
:104920000C040140140401407047000010B504005D
:10493000002C01D10120B7E020685C49884207D0F3
:1049400020685B49884203D06B215A48FFF78DF8F5
:104950006068002807D06068B0F5827F03D06C21C2
:104960005448FFF782F8A06800280BD0A068B0F583
:10497000806F07D0A068B0F5004F03D06D214D487F
:10498000FFF773F8E068B0F5006F06D0E068002824
:1049900003D06E214748FFF768F82069002806D049
:1049A0002069022803D06F214248FFF75EF8606952
:1049B000002806D06069012803D070213D48FFF728
:1049C00054F8A069B0F5007F0AD0A069002807D08C
:1049D000A069B0F5802F03D071213648FFF745F864
:1049E000E069002818D0E069082815D0E06910288F
:1049F00012D0E06918280FD0E06920280CD0E069B7
:104A0000282809D0E069302806D0E069382803D08A
:104A100072212848FFF729F8206A002806D0206A6A
:104A2000802803D073212348FFF71FF80020A062DD
:104A300094F85100002802D12000FFF73CF9022031
:104A400084F851002068006830F040002168086058
:104A50006068A1680843E168084321690843616907
:104A60000843A16911F400710843E1690843216A10
:104A70000843A16A084321680860A069000C10F08F
:104A80000400616A084321684860E06A216808619F
:104A90002068C06930F400602168C861002060654A
:104AA000012084F85100002010BD00BF00300140FB
:104AB000003800405465000870B504000D00260061
:104AC000002E07D1502080F31188BFF34F8FBFF322
:104AD0006F8FFEE7FEF7CBF93068F16B326C514314
:104AE000084470600020B0633068B0603068F16BDB
:104AF000491E326C51430844F0605FF0FF3086F885
:104B000044005FF0FF3086F84500002D12D1306977
:104B1000002817D016F11000FDF719FD002811D05C
:104B20005FF08050DFF8BC150860BFF34F8FBFF314
:104B30006F8F07E016F11000FEF7E0F816F1240081
:104B4000FEF7DCF8FEF7B0F9012070BD2DE9F8435F
:104B500004000D001600002C07D1502080F31188AE
:104B6000BFF34F8FBFF36F8FFEE7002D02D1002000
:104B7000804602E005FB04F0804618F14800FDF78E
:104B80007BFF0700002F0AD017F1480081460097ED
:104B90003300DBB24A462900200000F003F8380059
:104BA000BDE8F2832DE9F04104000D0016001F005E
:104BB000DDF81880002D02D1C8F8008001E0C8F8A7
:104BC0000060C8F83C40C8F8405001214046FFF75B
:104BD00073FFBDE8F0812DE9F74304000D001E00CE
:104BE0005FF00008A146B9F1000F07D1502080F313
:104BF0001188BFF34F8FBFF36F8FFEE7002D03D1F6
:104C0000D9F84000002801D1012000E00020C0B206
:104C1000002807D1502080F31188BFF34F8FBFF3D6
:104C20006F8FFEE7022E03D1D9F83C00012801D195
:104C3000012000E00020C0B2002807D1502080F3FE
:104C40001188BFF34F8FBFF36F8FFEE7FDF7C2FDF3
:104C5000002802D10298002801D1012000E00020A4
:104C6000C0B2002807D1502080F31188BFF34F8FC6
:104C7000BFF36F8FFEE7FEF7FAF8D9F83800D9F8DE
:104C80003C10884201D3022E28D132002900484628
:104C900000F068F90700D9F8240000280FD019F1B6
:104CA0002400FDF754FC002814D05FF08050DFF89A
:104CB00034140860BFF34F8FBFF36F8F0AE0002FEB
:104CC00008D05FF08050DFF81C140860BFF34F8FEE
:104CD000BFF36F8FFEF7E8F8012053E00298002839
:104CE00003D1FEF7E1F800204CE0B8F1000F04D149
:104CF0006846FDF76EFC01208046FEF7D5F8FDF70B
:104D0000B2FAFEF7B4F899F9440010F1010F02D19C
:104D1000002089F8440099F9450010F1010F02D1F3
:104D2000002089F84500FEF7BFF802A96846FDF7A4
:104D300067FC002820D1484600F0C2F9002815D0B1
:104D4000029919F11000FDF7E8FB484600F071F9EF
:104D5000FDF791FA00288ED15FF08050DFF88413C0
:104D60000860BFF34F8FBFF36F8F84E7484600F0B2
:104D700060F9FDF780FA7EE7484600F05AF9FDF742
:104D80007AFA0020BDE8FE832DE9F44783B00400E1
:104D90000D001E000027A146B9F1000F07D15020D9
:104DA00080F31188BFF34F8FBFF36F8FFEE7002DA5
:104DB00003D1D9F84000002801D1012000E00020F3
:104DC000C0B2002807D1502080F31188BFF34F8F65
:104DD000BFF36F8FFEE7FDF7FDFC002802D10398BB
:104DE000002801D1012000E00020C0B2002807D136
:104DF000502080F31188BFF34F8FBFF36F8FFEE712
:104E0000FEF735F8D9F838A0BAF1000F41D0D9F83B
:104E10000C0080462900484600F0F3F8002E1FD110
:104E2000BAF10100C9F83800D9F80000002803D110
:104E3000FDF798FDC9F80400D9F81000002824D027
:104E400019F11000FDF783FB00281ED05FF08050A1
:104E5000DFF890120860BFF34F8FBFF36F8F14E03D
:104E6000C9F80C80D9F8240000280ED019F12400CC
:104E7000FDF76DFB002808D05FF08050DFF864126A
:104E80000860BFF34F8FBFF36F8FFEF70DF801205F
:104E900065E00398002803D1FEF706F800205EE0E5
:104EA000002F04D16846FDF794FB01200700FDF7B1
:104EB000FBFFFDF7D8F9FDF7DAFF99F9440010F18F
:104EC000010F02D1002089F8440099F9450010F142
:104ED000010F02D1002089F84500FDF7E5FF03A985
:104EE0006846FDF78DFB00282DD1484600F0D8F824
:104EF000002822D0D9F80000002807D1FDF7B7FF1D
:104F0000D9F80400FDF779FCFDF7CEFF039919F1FC
:104F10002400FDF702FB484600F08BF8FDF7ABF9E3
:104F200000287FF46DAF5FF08050DFF8B8110860A3
:104F3000BFF34F8FBFF36F8F62E7484600F079F8F9
:104F4000FDF799F95CE7484600F073F8FDF793F92F
:104F5000484600F0A5F800283FF452AF002004B006
:104F6000BDE8F0872DE9F04704000D00160000278A
:104F7000A06B8046206C002809D1206800283AD117
:104F80006068FDF793FC07000020606033E0002EAE
:104F900013D1D4F84090D4F808A04A4629005046CE
:104FA000FCF73AFAA068216C0844A060A068616828
:104FB000884220D32068A0601DE0D4F84090D4F847
:104FC0000CA04A4629005046FCF726FAE068216CFE
:104FD00049420844E060E0682168884204D2606881
:104FE000216C49420844E060022E04D1B8F1000F60
:104FF00001D0B8F1010818F10100A0633800BDE844
:10500000F087F8B504000D00206C002810D0E0688F
:10501000216C0844E060E0686168884201D3206840
:10502000E060266CE768320039002800FCF7F4F9EC
:10503000F1BD70B50400FDF71AFF94F945506DB24B
:10504000012D0CDB606A002809D014F12400FDF763
:105050007EFA002801D0FDF718FB6D1EEFE75FF028
:10506000FF3084F84500FDF71FFFFDF700FF94F9BE
:10507000446076B2012E0CDB2069002809D014F1BF
:105080001000FDF764FA002801D0FDF7FEFA761E45
:10509000EFE75FF0FF3084F84400FDF705FF70BDD7
:1050A00038B50400FDF7E3FEA06B002802D1012013
:1050B000050001E000200500FDF7F6FE280032BDE6
:1050C00038B50400FDF7D3FEA06BE16B884202D136
:1050D0000120050001E000200500FDF7E5FE2800A5
:1050E00032BD000004ED00E00EB400B582B003A9AB
:1050F000009102466B460121034878440A30FAF7D2
:10510000F5FF06BC5DF810FB2D17000070B504001C
:105110000D002900C9B2206800F027FA206800F0CD
:1051200037FA06000121206800F050FA3000C0B2C2
:1051300070BD70B504000D0016000021206800F05D
:1051400045FA55F08001C9B2206800F00EFA31002E
:10515000C9B2206800F009FA0121206800F036FA8F
:1051600070BD2DE9F04104000D0016001F00FFB2D4
:10517000022F1EDB0021206800F028FA2900C9B2A6
:10518000206800F0F2F90020804640463900C0B2A5
:10519000C9B2884209D2206800F0FAF95FFA88F8AB
:1051A00006F8080018F10108EFE70121206800F077
:1051B0000DFABDE8F0812DE9F04104000D00160064
:1051C0001F00FFB2022F1FDB0021206800F0FEF954
:1051D00055F08001C9B2206800F0C7F90020804670
:1051E00040463900C0B2C9B2884209D25FFA88F895
:1051F00016F80810206800F0B8F918F10108EFE778
:105200000121206800F0E2F9BDE8F08110B582B01C
:105210000400E0790090A37962792179200000F000
:1052200001F813BD2DE9F84305000E00170098465C
:10523000089C280000F09EF80F2000F0D7F9280005
:1052400000F0A2F803234248F6B2032101FB06F165
:1052500000EB010206212800FFF7ADFF3D48FFB239
:10526000C25D09212800FFF764FF0B220B212800F3
:10527000FFF75FFF23220C212800FFF75AFF364873
:105280005FFA88F810F8080006282CD13348E4B2F9
:10529000005D0001C01C0200D2B21D212800FFF7F2
:1052A00048FF2D485FFA88F810F808000001C01D7B
:1052B0000200D2B21E212800FFF73BFF3121280057
:1052C000FFF724FF814619F0F80959F005094A460D
:1052D000D2B231212800FFF72CFF0C223721280001
:1052E000FFF727FF17E01D48E4B2005D0001801CB6
:1052F0000200D2B21D212800FFF71BFF16485FFAFB
:1053000088F810F808000001C01D0200D2B21E216A
:105310002800FFF70EFFFF221F212800FFF709FFDB
:10532000002220212800FFF704FF0C222121280061
:10533000FFF7FFFE012241212800FFF7FAFE0020BF
:1053400085F80A01280000F00BF8BDE8F1830000A1
:10535000406900084469000820690008F8680008EE
:1053600010B50400092201212000FFF7E2FE012010
:10537000607210BD10B50400082201212000FFF763
:10538000D8FE0020607210BD10B5040088220121F3
:105390002000FFF7CEFE10BD10B50400FF22122141
:1053A0002000FFF7C6FE10BDF8B504000D00160082
:1053B00025722000FFF72AFF84224D212000FFF7ED
:1053C000B8FEFF2224212000FFF7B3FE0122402176
:1053D0002000FFF7AEFE3F2211212000FFF7A9FEBB
:1053E0002000FFF7D9FF2A00D2B222212000FFF7C8
:1053F000A0FE0F212000FFF789FE07003A00D2B27D
:105400000D212000FFF795FE8D2201212000FFF7DE
:1054100090FE002084F80A0118212000FFF776FE94
:10542000400703D50320607201200EE0761E002E97
:1054300007D1206800F0E0F82000FFF7E7FE002029
:1054400003E0012000F0D2F8E6E7F2BD2DE9F843D1
:105450000400206800F0EBF800282DD04FF480778E
:105460005FF0000814F10A0942463900484600F08E
:10547000EDF810212000FFF749FE05002A00D2B206
:105480000D212000FFF755FEA079002802D1207AD7
:10549000060004E013212000FFF738FE0600330069
:1054A000DBB214F10A0200212000FFF75AFE84F853
:1054B0000A612000FFF770FF94F80A01BDE8F2834B
:1054C0002DE9F84306000F0090469946089D099C77
:1054D000306800F0EEF8377186F8058086F806909F
:1054E000F57134723000FFF791FEBDE8F183F8B535
:1054F00004000D001600300094F80A11C0B2884272
:1055000002D094F80A010600F6B214F10A0732003C
:1055100039002800FBF780FF0020F6B2A8550020D4
:1055200084F80A013000C0B2F2BD000000B500BF2F
:10553000130096469446103928BFA0E80C50FAD8BC
:105540005FEA417C28BF0CC048BF40F8042BC90764
:1055500028BF20F8022B48BF00F8012B00BD704780
:105560007047704770477047704713B504000021BB
:10557000200000F02BF84FF47A73012201A9A069F2
:1055800000F0A6F8A06900F032FB0128FAD113BDA3
:105590001CB5040000208DF8050000208DF80400E3
:1055A0000021200000F012F84FF47A7000900123DF
:1055B00001AA0DF10501A06900F074F9A06900F0DD
:1055C00016FB0128FAD19DF8040016BD38B5040079
:1055D0000D00012D01D1012200E00022D2B220698C
:1055E000010089B26069FFF748F931BD10B50400C8
:1055F000200000F073FB10BD10B504000121200055
:10560000FFF7E4FF00222068010089B26068FFF71D
:1056100034F90120FFF7EAFF01222068010089B276
:105620006068FFF72AF96420FFF7E0FF10BD10B5AE
:105630000400A068010089B2E068FFF707F90128BB
:1056400001D1012000E00020C0B210BD62F30F22A2
:1056500062F31F42401810F0030308D0C91A1FD389
:10566000DB0748BF00F8012D28BF20F8022D1300EA
:1056700030B414461546103928BF20E93C00FAD84A
:10568000490728BF20E90C0048BF40F8042D8900D5
:1056900028BF20F8022D48BF00F8012D30BC70470C
:1056A000C91818BF00F8012DCB0728BF00F8012D3D
:1056B000704710B5040001212000FFF787FF012289
:1056C0002068010089B26068FFF7D7F810BD0000BC
:1056D0002DE9F8430400894615001E0000275FF0FD
:1056E0000008A068002809D0A068B0F5004F05D0D8
:1056F0004FF4E171DFF8F803FEF7B7F994F85000C2
:10570000012801D10220CBE0012084F85000FEF7EF
:10571000ADF9070094F85100012802D0022080461C
:10572000B6E0B9F1000F02D0ADB2002D02D10120D8
:105730008046ADE0032084F8510000206065C4F885
:105740003090A586E5860020A0630020A087002079
:10575000E0870020606400202064A068B0F5004F5E
:1057600005D12068006850F48040216808602068F6
:105770000068400605D42068006850F040002168A9
:105780000860E068B0F5006F2CD16068002802D096
:10579000E08E012808D1B9F800002168C86019F12D
:1057A0000209E08E401EE086E08E002847D0206887
:1057B0008068800709D5B9F800002168C86019F130
:1057C0000209E08E401EE086EEE7002E07D016F1BB
:1057D000010FE9D0FEF74AF9C01BB042E4D3032021
:1057E000804655E06068002802D0E08E012808D18C
:1057F00099F800002168087319F10109E08E401E34
:10580000E086E08E00281AD020688068800709D5DD
:1058100099F800002168087319F10109E08E401E13
:10582000E086EEE7002E07D016F1010FE9D0FEF773
:105830001DF9C01BB042E4D30320804628E0009746
:10584000330001220221200000F0E0F9002802D0FC
:10585000032080461CE03A003100200000F027FAC7
:10586000002804D0012080462020606510E0A06858
:10587000002808D1002000902068C06800902068AF
:10588000806800900098606D002801D0012080465B
:10589000012084F85100002084F850004046C0B236
:1058A000BDE8F2832DE9FE4F04008A4693461D00B1
:1058B0000C9E002001900020029000275FF001085C
:1058C0005FF00009A068002805D040F24131DFF800
:1058D0002002FEF7CAF894F85000012801D10220F6
:1058E00003E1012084F85000FEF7C0F8070094F8A7
:1058F0005100019060680290019801280CD0029834
:10590000B0F5827F05D1A068002802D10198042853
:1059100002D002208146E0E0BAF1000F05D0BBF1D1
:10592000000F02D0ADB2002D02D101208146D4E09B
:1059300094F85100012802D1052084F8510000207C
:105940006065C4F838B0E587A587C4F830A0E5865F
:10595000A58600202064002060642068006840065E
:1059600005D42068006850F0400021680860E068B5
:10597000B0F5006F46D16068002802D0E08E0128A3
:1059800008D1BAF800002168C8601AF1020AE08E56
:10599000401EE086E08E002802D1E08F002878D0FB
:1059A000B8F1000F11D0E08E00280ED0206880687A
:1059B00080070AD5BAF800002168C8601AF1020A07
:1059C000E08E401EE08600208046E08F00280ED04A
:1059D00020688068C0070AD52068C068ABF800005E
:1059E0001BF1020BE08F401EE0870120804616F17C
:1059F000010FCFD0FEF73AF8C01BB042CAD3032044
:105A000081466AE06068002802D0E08E012808D153
:105A10009AF80000216808731AF1010AE08E401E0E
:105A2000E086E08E002802D1E08F002831D0B8F166
:105A3000000F11D0E08E00280ED02068806880070B
:105A40000AD59AF80000216808731AF1010AE08E5D
:105A5000401EE08600208046E08F00280ED020689F
:105A60008068C0070AD52068C0688BF800001BF169
:105A7000010BE08F401EE0870120804616F1010FE8
:105A8000CFD0FDF7F3FFC01BB042CAD3032081463D
:105A900023E00097330001220221200000F0B6F835
:105AA000002802D00320814617E03A003100200090
:105AB00000F0FDF8002804D0012081462020606518
:105AC0000BE0A068002808D1002000902068C06882
:105AD00000902068806800900098012084F85100B0
