:020000040800F2
:1000000010040020B94000086D3F00086F3F000851
:10001000713F0008733F0008753F000800000000B2
:10002000000000000000000000000000FF0F0008BA
:10003000773F000800000000B90F00084F0F0008CC
:1000400025410008294100082D41000831410008E0
:1000500035410008394100083D4100084141000890
:1000600045410008494100084D4100085141000840
:1000700055410008594100085D41000861410008F0
:1000800065410008694100086D41000871410008A0
:1000900075410008794100087D4100088141000850
:1000A00085410008793F0008894100088D4100081A
:1000B0009141000895410008994100089D410008C0
:1000C000A1410008A5410008A9410008833F00089C
:1000D000AD410008B1410008B5410008B941000830
:1000E000953F0008BD410008C14100082DE9F043DB
:1000F00085B004000D0016001F00B6B2B00000F07D
:100100000BFD8146B9F1000F0DD0542000F004FD25
:100110008046B8F1000F02D0C8F8309005E048469C
:1001200000F080FD01E05FF00008B8F1000F13D08F
:1001300000200390CDF808800D9801900C98009055
:100140003B00B6B232002900200000F00AF8404619
:1001500000F058F8012001E05FF0FF3005B0BDE885
:10016000F0832DE9F04105001E00089C206B00EB98
:100170008200071FFF08FF0017F00700002807D0C4
:10018000502080F31188BFF34F8FBFF36F8FFEE7CE
:10019000002000E0401C102807D20A5C04EB00039A
:1001A00083F834200A5C002AF4D1002084F843004C
:1001B000DDF81880B8F1070F01D35FF00608C4F826
:1001C0002C80C4F844800020A064201D00F0E3FDD2
:1001D00014F1180000F0DFFD2461D8F10700A061E0
:1001E00064620020E064002084F85000320029009E
:1001F000380000F00DFE20600798002800D0046051
:10020000BDE8F08110B5040000F06BFEDFF8740566
:100210000068401CDFF86C150860DFF86C050068AA
:1002200000280AD1DFF860050460DFF8580500688F
:10023000012811D100F0ACFA0EE0DFF8500500689B
:10024000002809D1E06ADFF840150968C96A8842C8
:1002500002D3DFF834050460DFF888050068401C2D
:10026000DFF880150860DFF8800500680121E26A88
:1002700091400843DFF870150860211DDFF8C805BC
:10028000E26A14235A43104400F088FD00F046FE51
:10029000DFF8F804006800280FD0DFF8EC040068ED
:1002A000C06AE16A884208D25FF08050DFF86417C4
:1002B0000860BFF34F8FBFF36F8F10BD10B5040000
:1002C0000020002C14D0DFF8EC050068002807D0CF
:1002D000502080F31188BFF34F8FBFF36F8FFEE77D
:1002E00000F045F80021200000F0B8FB00F047F8CE
:1002F000002808D15FF08050DFF840170860BFF396
:100300004F8FBFF36F8F10BD00B583B0DFF830079C
:1003100001900020009000238022DFF828170FF2C0
:100320004140FFF7E3FE012816D1502080F31188E9
:10033000BFF34F8FBFF36F8F5FF0FF30DFF8081709
:1003400008600120DFF8441408600020DFF800177F
:10035000086000F082FD07BD10F1010FFBD15020B5
:1003600080F31188BFF34F8FBFF36F8FFEE7DFF885
:1003700044050068401CDFF83C150860704738B53C
:1003800000250024DFF82C050068002807D1502044
:1003900080F31188BFF34F8FBFF36F8FFEE700F03C
:1003A000A0FDDFF810050068401EDFF808150860A2
:1003B000DFF80005006800285AD1DFF8C80300689C
:1003C000002829D154E0DFF88406C068C56815F11B
:1003D000180000F00AFD281D00F007FDDFF80804F2
:1003E00000680121EA6A91400843DFF8FC130860C5
:1003F000291DDFF85404EA6A14235A43104400F01C
:10040000CDFCE86ADFF880130968C96A884203D323
:100410000120DFF8CC160860DFF8300600680028FD
:10042000D1D1002D01D000F01AFADFF828060568B6
:10043000002D0ED000F020F8002803D00120DFF8B6
:10044000A01608606D1E002DF4D10020DFF8041600
:100450000860DFF88C060068002809D001245FF0EE
:100460008050DFF8D8150860BFF34F8FBFF36F8F50
:1004700000F054FD200032BD70B50024DFF83404D4
:100480000068002878D1DFF8C8050068451CDFF84F
:10049000C0050560002D22D1DFF8BC0500680068AA
:1004A000002807D0502080F31188BFF34F8FBFF38F
:1004B0006F8FFEE7DFF8A0050068DFF834160968E3
:1004C000DFF894251160DFF828160860DFF82406AD
:1004D0000068401CDFF81C16086000F0C0F9DFF867
:1004E0006805006885423BD323E0301D00F07DFCA9
:1004F000B06A002803D016F1180000F076FCDFF88F
:10050000E80200680121F26A91400843DFF8D8123E
:100510000860311DDFF83003F26A14235A43104497
:1005200000F03CFCF06A98490968C96A884200D327
:100530000124DFF8240500680068002805D15FF079
:10054000FF30DFF8041508600AE0DFF80C050068EA
:10055000C068C66870688542C7D2DFF8EC140860CE
:10056000DFF8E40288490968C96A142251434058F7
:10057000022808D3012406E0DFF8D8040068401CF4
:10058000DFF8D0140860DFF858050068002800D0B4
:100590000124200070BDDFF81C030068002804D08F
:1005A0000120DFF83C1508602BE00020DFF8301553
:1005B00008608D480068B0FA80F0D0F11F00A249B1
:1005C000142202FB00F28958002907D1502080F341
:1005D0001188BFF34F8FBFF36F8FFEE79A49142244
:1005E00050430844416849684160416810F108027D
:1005F000914202D14168496841604068C0686249DF
:100600000860704710B50C00002807D1502080F317
:100610001188BFF34F8FBFF36F8FFEE7DFF8CC1465
:100620000968183100F0C6FB0121200000F016FA1D
:1006300010BD10B5C068C468002C07D1502080F3ED
:100640001188BFF34F8FBFF36F8FFEE714F11800CF
:1006500000F0CBFB97480068002813D1201D00F064
:10066000C4FB614800680121E26A914008435E4989
:100670000860211D7448E26A14235A43104400F0B4
:100680008DFB05E014F11801DFF8C00300F086FBD4
:100690003D480068C06AE16A884205D20120012114
:1006A000DFF83C24116000E0002010BD002807D1D5
:1006B000502080F31188BFF34F8FBFF36F8FFEE799
:1006C000DFF8301409680160DFF818140968416028
:1006D000704738B504000D00002C07D1502080F37E
:1006E0001188BFF34F8FBFF36F8FFEE7002D07D147
:1006F000502080F31188BFF34F8FBFF36F8FFEE759
:1007000000F0EFFBDFF848030068296811F1010FE2
:1007100001D100241AE0DFF8DC1309682268914255
:1007200004D06168884201D301240FE06168411A56
:100730002A68914209D22968081A61680818286055
:100740002000FFF7B3FF002400E0012400F0E6FBE7
:10075000200032BD0120DFF88813086070470000D8
:1007600080B500F043F8384800680228F9D35FF0FC
:100770008050DFF8C8120860BFF34F8FBFF36F8F50
:10078000EFE70000D8110020C8110020E41100207C
:1007900010B5002407E02C48142101FB04F10844A3
:1007A00000F0EAFA641C072CF5D3DFF84C0300F0E4
:1007B000E3FADFF8480300F0DFFADFF8900200F018
:1007C000DBFA3A4800F0D8FA9B4800F0D5FADFF897
:1007D0002803DFF884120860DFF82003DFF8101325
:1007E000086010BDF4110020E011002010B51DE0DC
:1007F0000024FFF7C4FD002C18D100F072FB2B4839
:10080000C068C468201D00F0F0FADFF8DC02006860
:10081000401EDFF8D412086025480068401E2449B5
:10082000086000F07BFB200000F010F82048006812
:10083000002807D0FFF79BFD1C4800680028D7D18F
:100840000124D6E710BD00001010002010B50400F0
:10085000206B00F0E7F9200000F0E4F910BDDFF8AC
:10086000F80100680068002805D15FF0FF30DFF86C
:10087000D811086008E0DFF8E0010068C068C068CF
:100880004068DFF8C41108607047DFF85002006864
:10089000002801D1012007E0DFF864020068002889
:1008A00001D1022000E000207047000070110020FC
:1008B000D41100200012002010B50400002C4ED0EE
:1008C000E06ADFF828120968C96A884247D2A0693D
:1008D000002806D4DFF814020068C06AD0F10700CF
:1008E000A0616069DFF81C12E26A14235A431144C4
:1008F00088422FD1201D00F078FA002811D1DFF8AE
:100900000402E16A142251434058002809D1DFF85B
:10091000F80100680121E26A91408843DFF8E8119C
:100920000860DFF8C8010068C06AE062DFF8D8013B
:1009300000680121E26A91400843DFF8CC110860A9
:10094000211DDFF8C001E26A14235A43104400F06D
:1009500025FA04E0DFF894010068C06AE06210BD87
:1009600010B504000020002C52D0DFF88011096877
:100970008C4207D0502080F31188BFF34F8FBFF314
:100980006F8FFEE7A16C002907D1502080F31188FA
:10099000BFF34F8FBFF36F8FFEE7A16C491EA164B9
:1009A000E16A626C914233D0A16C002930D1201DE4
:1009B00000F01BFA002811D1DFF84801E16A142287
:1009C00051434058002809D1DFF83C01006801215B
:1009D000E26A91408843DFF830110860606CE062A1
:1009E000E06AD0F10700A061DFF81C010068012176
:1009F000E26A91400843DFF810110860211DDFF81A
:100A00000401E26A14235A43104400F0C7F901209C
:100A100010BD000004ED00E0DFF8D0000068002801
:100A200005D0DFF8C8000068816C491C8164DFF8DC
:100A3000BC000068704700008411002004ED00E055
:100A4000FC1100200C410008F81100205C1100206E
:100A5000DC110020E8110020CC11002070B504004A
:100A60000D002048066821480068001D00F0BDF90F
:100A700000280BD11D480068234909680122C06A7B
:100A800012FA00F031EA00001F49086014F1010F6A
:100A900008D1002D06D015480068011D1B4800F044
:100AA0007DF91AE0A419114800684460B44207D2E5
:100AB0000E480068011D0E48006800F07BF90CE04C
:100AC0000A480068011D1248006800F073F91148D7
:100AD0000068844201D20F48046070BDE411002018
:100AE000EC110020DC110020D8110020C8110020DA
:100AF000D0110020F01100203411002048110020F6
:100B00000012002010100020E011002084110020AD
:100B1000CC110020F811002070B505000024FFF76B
:100B200026FC8E480068002801D100F0B6F88C48F9
:100B30000068054266D1002D15D08A480068451925
:100B400015F0070F0FD015F1080015F00701451A31
:100B500015F0070F07D0502080F31188BFF34F8F97
:100B6000BFF36F8FFEE7002D4CD07F480068A8428E
:100B700048D37E487D490E6801E0300036687168D0
:100B8000A94202D231680029F7D1744909688E421E
:100B900038D00168734A126801EB020431680160C1
:100BA0007048006840007168491B884213D206EB08
:100BB000050010F00701002907D0502080F31188AC
:100BC000BFF34F8FBFF36F8FFEE77168491B416022
:100BD000756000F094F8644800687168401A6249D2
:100BE00008606148006862490968884203D25E482B
:100BF00000685F4908607068594909680843706077
:100C000000203060FFF7BBFB14F00700002807D07E
:100C1000502080F31188BFF34F8FBFF36F8FFEE733
:100C2000200070BD10B50400002C35D04D48006880
:100C30004042044460684A490968084207D150208C
:100C400080F31188BFF34F8FBFF36F8FFEE72068EB
:100C5000002807D0502080F31188BFF34F8FBFF3D7
:100C60006F8FFEE760683E490968084214D020682B
:100C7000002811D160683A49096888436060FFF72D
:100C800076FB394800686168081837490860200019
:100C900000F035F8FFF773FB10BD4FF440623549A3
:100CA00011F0070F05D0C91DC908C900501A314AF3
:100CB000121808002D49086000212C4B59601118AA
:100CC000284A1268891AC908C900244A11600022FA
:100CD000224B1B685A600022204B1B681A60091ABD
:100CE00041601E49096801604168214A11604068FD
:100CF0001D4908605FF000401949086070471B49B2
:100D000000E009680A688242FBD30A004B681A4473
:100D1000824204D14A684068801848600800020096
:100D200043681A440B689A4211D10A680B4B1B683E
:100D30009A4208D042680B685B689A1842600A6859
:100D40001268026005E0054A1268026001E00A6864
:100D50000260814200D0086070470000B01100209E
:100D6000BC11002018410008B41100209811002087
:100D7000B81100201004002010F1080141605FF05C
:100D8000FF31816010F10801C16010F108010161BB
:100D900000210160704700210161704742684A608C
:100DA00093688B6093685960916008610168491C81
:100DB0000160704710B40B6813F1010F01D1026993
:100DC00007E010F1080200E0526854682468A3426A
:100DD000FAD253684B604B6899608A605160086131
:100DE0000168491C016010BC704701698268436852
:100DF0009A60426883685A604A68824201D1826878
:100E00004A60002202610868401E08600868704756
:100E1000001F5FF080730360001F490849000160F4
:100E2000001F0FF20D010160143802602038704776
:100E30005148006810F1010F07D0502080F311884D
:100E4000BFF34F8FBFF36F8FFEE7502080F3118801
:100E5000BFF34F8FBFF36F8FFEE700B583B04748F6
:100E600001780191FF21017001788DF800109DF843
:100E7000001011F05001424A11700721414A1160DF
:100E800009E040490968491E3E4A11609DF800107A
:100E900049008DF800109DF800100906F1D4394979
:100EA00009680902374A11603649096811F4E0619E
:100EB000344A1160019901703348006850F47000A1
:100EC000314908603048006850F070402E49086091
:100ED00000F05EF800202849086000F0A0F800202B
:100EE0000EBD502080F31188BFF34F8FBFF36F8F7B
:100EF00021480068401C204908601F4800680128FC
:100F00000BD122480068000607D0502080F31188DA
:100F1000BFF34F8FBFF36F8FFEE77047164800682F
:100F2000002807D1502080F31188BFF34F8FBFF303
:100F30006F8FFEE710480068401E0F4908600E489A
:100F40000068002802D1002080F31188704780B526
:100F5000502080F31188BFF34F8FBFF36F8FFFF7DF
:100F60008BFA002803D05FF0805008490860002009
:100F700080F3118801BD00000000002000E400E0C3
:100F800004120020C011002020ED00E004ED00E07C
:100F9000064800684FF47A71B0FBF1F0401E044936
:100FA0000860072003490860704700BF0400002064
:100FB00014E000E010E000E0EFF30980BFF36F8F72
:100FC0001D4B1A6820E9F00F106008B54FF0500073
:100FD00080F31188BFF34F8FBFF36F8FFFF7DBFAFA
:100FE0004FF0000080F31188BDE8084019680868D8
:100FF000B0E8F00F80F30988BFF36F8F70470E4B96
:1010000019680868B0E8F00F80F30988BFF36F8FA4
:101010004FF0000080F311884EF00D0E7047074826
:101020000068006880F3088862B661B6BFF34F8F2E
:10103000BFF36F8F00DF0000C811002008ED00E053
:1010400070B582B004000025002C05D14FF4B871B2
:10105000DFF8980900F035FD2068002809D02078D5
:1010600010F00F0F05D140F27111DFF8800900F088
:1010700028FD2078C00740F19580606800280DD0D9
:101080006068B0F5803F09D06068B0F5A02F05D04A
:1010900040F27711DFF8540900F013FDDFF818096A
:1010A000006810F00C0004280BD0DFF80C09006871
:1010B00010F00C0008280ED1DFF8FC080068C0030F
:1010C00009D5DFF8F008006880036BD56068002858
:1010D00068D101209FE26068B0F5803F08D1DFF859
:1010E000D408006850F48030DFF8C818086038E091
:1010F0006068002810D1DFF8BC08006830F4803048
:10110000DFF8B0180860DFF8AC08006830F4802021
:10111000DFF8A018086024E06068B0F5A02F10D1B7
:10112000DFF89008006850F48020DFF88818086025
:10113000DFF88008006850F48030DFF87818086025
:101140000FE0DFF87008006830F48030DFF86418D2
:101150000860DFF86008006830F48020DFF8541879
:101160000860606800280ED000F0ACFC0500DFF8D5
:1011700044080068800315D400F0A4FC401B6528D7
:10118000F5D3032047E200F09DFC0500DFF82408BA
:101190000068800306D500F095FC401B6528F5D358
:1011A000032038E2207880073BD52069002808D04A
:1011B0002069012805D040F2AB11DFF8300800F0BB
:1011C00080FC6069202805D34FF4D671DFF81C0835
:1011D00000F077FCDFF8E007006810F00C0F0BD090
:1011E000DFF8D407006810F00C0008283FD1DFF8C2
:1011F000C8070068C0033AD4DFF8B8070068800762
:1012000004D52069012801D0012004E2DFF8A407F9
:10121000006830F0F800616950EAC100DFF8941707
:101220000860207800075AD5A069002808D0A06976
:10123000012805D04FF4F671DFF8B00700F041FC4B
:10124000A069002800F090800120DFF8A417086052
:1012500000F038FC0500DFF89007006880073BD4F9
:1012600000F030FC401B0328F5D30320D3E12069B4
:1012700000281ED00120DFF87C17086000F022FC57
:101280000500DFF830070068800706D400F01AFC7C
:10129000401B0328F5D30320BDE1DFF818070068E1
:1012A00030F0F800616950EAC100DFF80817086003
:1012B000B7E70020DFF83C17086000F003FC0500EA
:1012C000DFF8F00600688007ABD500F0FBFB401BA1
:1012D0000328F5D303209EE1012000F06FFB207866
:1012E000400740F1C8800026E06800280BD0E06885
:1012F000012808D0E068052805D040F21B21DFF85E
:10130000EC0600F0DEFBDFF8F0060068C0000FD44A
:10131000DFF8E406006850F08050DFF8DC16086063
:10132000DFF8D406006810F0805000900098012685
:10133000DFF8C8060068C00529D4DFF8C0060068D9
:1013400050F48070DFF8B416086000F0BBFB0500B5
:10135000DFF8A8060068C00519D400F0B3FB401BF5
:101360006528F5D3032056E10020DFF884160860D5
:1013700000F0A8FB0500DFF8700600688007AED516
:1013800000F0A0FB401B0328F5D3032043E1E068F5
:10139000012808D1DFF86806006850F00100DFF886
:1013A0006016086037E0E068002810D1DFF85006CA
:1013B000006840084000DFF848160860DFF8400683
:1013C000006830F00400DFF83816086023E0E068B9
:1013D000052810D1DFF82806006850F00400DFF877
:1013E00020160860DFF81806006850F00100DFF8EA
:1013F000101608600FE0DFF808060068400840009B
:10140000DFF8FC150860DFF8F805006830F004002C
:10141000DFF8EC150860E068002810D000F052FBFF
:101420000500DFF8DC050068800719D400F04AFBEE
:10143000401B41F289318842F3D30320EBE000F0F6
:1014400041FB0500DFF8B8050068800708D500F00B
:1014500039FB401B41F289318842F3D30320DAE0A3
:10146000F6B2012E07D1DFF89005006830F0805009
:10147000DFF884150860E06900280BD0E0690128D6
:1014800008D0E069022805D040F2B921DFF85C05F8
:1014900000F017FBE069002800F0BC80DFF81805B9
:1014A000006810F00C00082800F0B280E069022803
:1014B00040F09B80206A002809D0206AB0F5803F68
:1014C00005D040F2C221DFF8240500F0FAFA606A84
:1014D00000283DD0606AB0F5802F39D0606AB0F541
:1014E000002F35D0606AB0F5402F31D0606AB0F57A
:1014F000801F2DD0606AB0F5A01F29D0606AB0F5BA
:10150000C01F25D0606AB0F5E01F21D0606AB0F539
:10151000001F1DD0606AB0F5101F19D0606AB0F5C9
:10152000201F15D0606AB0F5301F11D0606AB0F589
:10153000401F0DD0606AB0F5501F09D0606AB0F549
:10154000601F05D040F2C321DFF8A00400F0B9FA13
:101550000020DFF8B014086000F0B4FA0500DFF8EE
:1015600054040068800106D500F0ACFA401B032843
:10157000F5D303204FE0206AB0F5803F16D1A06874
:10158000002809D0A068B0F5003F05D040F2D9216D
:10159000DFF8580400F095FADFF81C04006830F416
:1015A0000030A1680843DFF810140860DFF8080471
:1015B000006830F47410216A0843616A0843DFF858
:1015C000F81308600120DFF83C14086000F07AFA94
:1015D0000500DFF8E003006880011BD400F072FA18
:1015E000401B0328F5D3032015E00020DFF8141476
:1015F000086000F067FA0500DFF8B80300688001B2
:1016000008D500F05FFA401B0328F5D3032002E061
:10161000012000E0002076BD70B504000D0000261A
:10162000002C05D140F22E31DFF8C00300F049FA5A
:10163000207810F00F0F05D140F22F31DFF8AC0306
:1016400000F03FFA002D09D0012D07D0022D05D062
:101650004FF44C71DFF8940300F033FADFF8A8037D
:10166000006810F00700A84211D2DFF89C03006860
:10167000C008C0002843DFF890130860DFF8880333
:10168000006810F00700A84201D0012022E1207874
:10169000800740D52078400707D5DFF81C03006895
:1016A00050F4E060DFF8101308602078000707D5D9
:1016B000DFF80403006850F46050DFF8FC120860A3
:1016C000A06800281DD0A06880281AD0A0689028A3
:1016D00017D0A068A02814D0A068B02811D0A068A6
:1016E000C0280ED0A068D0280BD0A068E02808D071
:1016F000A068F02805D040F25631DFF8F00200F083
:10170000E0F9DFF8B402006830F0F000A1680843A7
:10171000DFF8A41208602078C0076BD56068002845
:101720000BD06068012808D06068022805D040F21C
:101730005D31DFF8B80200F0C4F96068012806D115
:10174000DFF870020068800312D40120C2E06068F4
:10175000022806D1DFF85C020068800108D401206D
:10176000B8E0DFF850020068800701D40120B1E042
:10177000DFF8440200688008800061680843DFF8F1
:101780003812086000F09EF90600606801280FD149
:10179000DFF82402006810F00C0004282AD000F0C2
:1017A00091F9801B41F289318842F1D3032091E005
:1017B000606802280FD1DFF80002006810F00C000A
:1017C000082817D000F07EF9801B41F28931884249
:1017D000F1D303207EE0DFF8E001006810F00C0F89
:1017E00008D000F06FF9801B41F289318842F2D3B2
:1017F00003206FE0DFF81002006810F00700854258
:1018000011D2DFF804020068C008C0002843DFF8E6
:10181000F8110860DFF8F001006810F00700A84236
:1018200001D0012056E02078400720D5E06800284C
:1018300015D0E068B0F5806F11D0E068B0F5A06F0A
:101840000DD0E068B0F5C06F09D0E068B0F5E06F8A
:1018500005D040F2B131DFF8940100F032F956487A
:10186000006830F4E060E16808435349086020787C
:10187000000720D52069002814D02069B0F5806FBA
:1018800010D02069B0F5A06F0CD02069B0F5C06F02
:1018900008D02069B0F5E06F04D04FF46E71534862
:1018A00000F00FF94448006830F46050216950EAB4
:1018B000C1004149086000F00EF854493E4A1268E0
:1018C000C2F30312895CC84046490860002000F05A
:1018D000FFF8002070BD00B585B001A84C4910226A
:1018E00000F04CF94B480088ADF8000000200020C3
:1018F0000020002100203048006810F00C0104296D
:1019000002D0082902D016E0354815E001A9C0F33D
:101910008342895CC0030AD56846274A1268C2F32D
:101920004042805C2E4A5143B1FBF0F002E03A485D
:1019300000FB01F000E02A4805B000BD294800681E
:10194000704780B5FFF7FAFF34491B4A1268C2F3AB
:10195000C222895CC84002BD38B504000D00002CCD
:1019600004D14FF4A661214800F0ABF8002D04D15A
:1019700040F231511D4800F0A4F80F2020600E48BD
:10198000006810F0030060600B48006810F0F00081
:10199000A0600948006810F4E060E0600648006854
:1019A000C00810F4E06020611748006810F00700DC
:1019B000286031BD001002400410024081B0094986
:1019C0000968C9084FF47A72B1FBF2F148430090FC
:1019D00000BF0098411E00910028F9D101B0704766
:1019E00000127A000400002024100240BC3D0008D0
:1019F00080044242000042421C100240007000403D
:101A0000201002406000424200200240A84000082E
:101A100098400008D21B000800093D00044100085E
:101A200080B500F0D7F800F009F800F0E7F800F012
:101A300079F900F0EFF900F0E6FAFEE700B58FB0B3
:101A400005A8282100F006FB6846142100F002FBDF
:101A5000012005905FF4803006900020079001205F
:101A6000099002200C905FF480300D905FF4E0103C
:101A70000E9005A8FFF7E4FA002801D000F020F846
:101A80000F20009002200190002002904FF480600F
:101A900003900020049002216846FFF7BDFD002856
:101AA00001D000F00DF80FB000BD80B5006803490B
:101AB000884201D100F0D2FA01BD0000002C0140A3
:101AC0007047704701480068704700BFC41100208C
:101AD00000B587B00021002100220100192000F08C
:101AE0002BFB192000F045FB1848006850F40060FB
:101AF000164908601548006810F4006000900098CE
:101B000001A902A8FFF728FFFFF71BFF01001048FB
:101B1000B1FBF0F0411E0F480F4A106040F2E73071
:101B20000D4AD0600C48416000200B49086100203C
:101B300009498860084800F037FB002803D10648AF
:101B400000F095FB00E0012007B000BD1810024036
:101B500040420F00002C0140F410002062B38B07BC
:101B600008D0521E11F8013B00F8013B00F0248020
:101B70008B07F6D1830740F0208000BF103A07D3CF
:101B800030B4B1E83810103AA0E83810F9D230BCBF
:101B9000530724BFB1E80810A0E8081044BF51F86B
:101BA000043B40F8043BD20724BF31F8022B20F855
:101BB000022B44BF0B7803707047083A07D3B1E893
:101BC0000810083A40F8043B40F804CBF7D253071A
:101BD000E4E7010280B50848006850F010000649AB
:101BE0000860032000F094FA0020FFF771FF00F076
:101BF0006BFC002002BD00000020024000B585B053
:101C000001A8102100F026FA4148006850F01000A9
:101C10003F4908603E48006810F0100000900098AE
:101C20003B48006850F02000394908603848006897
:101C300010F02000009000983548006850F0040033
:101C4000334908603248006810F0040000900098A2
:101C50002F48006850F008002D4908602C480068A3
:101C600010F008000090009800224FF4204129480D
:101C700000F015FE00221E21274800F010FE4FF450
:101C80002040019001200290002003900220049047
:101C900001A9204800F046FC4FF480400190032049
:101CA000029001A91B4800F03DFC49F6017001902B
:101CB0000320029001A9184800F034FC1E20019076
:101CC00001200290002003900220049001A91248F4
:101CD00000F028FC4EF6FF7001900320029001A94D
:101CE0000E4800F01FFC4FF4805001900C48029009
:101CF0000020039001A9094800F014FC00220521EE
:101D0000282000F019FA282000F033FA05B000BDB1
:101D1000181002400010014000080140000C014072
:101D20000000311080B53748374908604FF48270A1
:101D30003549486000203449886000203249C86035
:101D400000203149086100202F4948614FF400709C
:101D50002D49886138202C49C86100202A49086231
:101D60000020294948620020274988620A20264924
:101D7000C862254800F0EAFD002801D0FFF7A0FE68
:101D800001BD10B586B0040001A8102100F062F971
:101D900020681C49884233D11C48006850F48050A8
:101DA0001A4908601948006810F4805000900098A3
:101DB0001648006850F00400144908601348006891
:101DC00010F0040000900098A020019002200290E2
:101DD0000320049001A90E4800F0A4FB40200190CC
:101DE000002002900020039001A9094800F09AFB0E
:101DF00000220521232000F09FF9232000F0B9F9EB
:101E000006B010BD003001409C10002018100240A8
:101E10000008014000B58FB00AA86C491422FFF7F2
:101E2000ADFE00210AA800F0F3F86949086005A892
:101E300068491422FFF7A2FE002105A800F0E8F887
:101E400065490860684665491422FFF797FE00213E
:101E5000684600F0DDF86249086000220121032095
:101E600000F083FE5F4908600FB000BD00B5D3B03D
:101E70005D480690042005905B480890102007906C
:101E800059480490022003905848099003A81090E4
:101E90000A2001900320009002230122002110A8B3
:101EA00001F0A1FA4FF4FA62102110A801F018FA1B
:101EB00009E000208DF808000023642202A94948A7
:101EC000006800F085FE4FF47A7000F0B8F810A8B2
:101ED00001F056FA0728F6D10200D2B20AA910A8DA
:101EE00001F094FA9DF82E003028E2D0EBD332288E
:101EF0000BD0E8D201208DF808000023642202A94B
:101F00003848006800F064FEDDE702208DF8080024
:101F10000023642202A93348006800F059FED2E78A
:101F200080B500208DF8000005E000224FF400414C
:101F30002F4800F0B4FC00230022694629480068BD
:101F400000F011FF9DF800000028EED0022813D009
:101F5000F1D201224FF40041254800F0A0FC3220CC
:101F600000F06DF800224FF40041214800F097FC8A
:101F7000642000F064F8DEE701224FF400411C48C1
:101F800000F08DFC322000F05AF800224FF400419E
:101F9000174800F084FC002000F051F8CBE780B532
:101FA00000224FF40051124800F079FC4FF47A708F
:101FB00000F045F801224FF400510D4800F06FFC8D
:101FC0004FF47A7000F03BF8EAE700005C4000084C
:101FD000A411002070400008A811002084400008CF
:101FE000AC110020A0110020000801409C1000202E
:101FF00000100140002100B2842802D000B2C01CB1
:1020000041180800704780B5FEF77EF9002002BD38
:102010003EB504000D00B4F90800FFF7EBFF02A97C
:10202000019100902B00226992B221686068FEF74E
:102030005DF8012801D0002000E002983EBD80B587
:102040000121B0FBF1F0002800D10120FEF736F9A4
:10205000002002BD002201F0F5B90000034800682D
:10206000034909780818014908607047C411002025
:102070000800002010F00701DFF8140100684FF697
:10208000FF021040434A52EA0121084340490860D8
:1020900070473F480068C0F302207047012110F0EC
:1020A0001F0291403C4A40B2400942F8201070475C
:1020B00040B2002808D50901384A40B210F00F009C
:1020C000104400F8041C03E00901354A40B21154E1
:1020D000704710B410F00700D0F10703052B01D3AF
:1020E000042301E0D0F10703041D072C01D20020D6
:1020F00000E0C01E012414FA03F35B1E1940814066
:10210000012313FA00F0401E1040084310BC704732
:1021100010B50400072C0BD0062C09D0052C07D0D5
:10212000042C05D0032C03D0A2211E48FFF7C9FCC4
:102130002000FFF79FFF10BD70B504000D001600D2
:102140000020102E03D3BA211648FFF7BAFC102D39
:1021500003D3BB211348FFF7B4FCFFF79AFF32000B
:102160002900FFF7B6FF0100200040B2FFF7A0FFF3
:1021700070BD10B5040064B2002C03D5CE2109480F
:10218000FFF79FFC200040B2FFF788FF10BD000062
:102190000CED00E00000FA0500E100E018ED00E0C1
:1021A00000E400E0043D000810B50400002C01D15B
:1021B00001205BE02068DFF80811884212D0206817
:1021C000B0F1804F0ED02068DFF8F810884209D0B7
:1021D0002068DFF8F410884204D0D921DFF8EC0041
:1021E000FFF76FFCA068002810D0A06810280DD061
:1021F000A06820280AD0A068402807D0A0686028DE
:1022000004D0DA21DFF8C400FFF75BFC2069002866
:102210000CD02069B0F5807F08D02069B0F5007F30
:1022200004D0DB21DFF8A400FFF74BFCA0690028F5
:1022300007D0A069802804D0DC21DFF89000FFF7E8
:1022400040FC94F83D00002805D1002084F83C00B3
:10225000200000F037F9022084F83D00211D20689D
:1022600000F0F3F8012084F83D00002010BD10B507
:1022700004002068DFF84810884213D02068B0F1CD
:10228000804F0FD02068DFF83C1088420AD02068C9
:10229000DFF83410884205D040F26111DFF83000D9
:1022A000FFF70FFC2068C06850F001002168C8608B
:1022B0002068006850F0010021680860002010BD0F
:1022C000002C01400004004000080040D03E0008FF
:1022D000D03E000810B504002068006980071AD5B8
:1022E0002068C068800716D57FF002002168086169
:1022F000012020772068806910F0030F03D02000B0
:1023000001F0B9F805E0200001F0B6F8200001F076
:10231000B4F8002020772068006940071AD52068AB
:10232000C068400716D57FF00400216808610220CC
:1023300020772068806910F4407F03D0200001F0EE
:102340009AF805E0200001F097F8200001F095F8D8
:10235000002020772068006900071AD52068C0682F
:10236000000716D57FF00800216808610420207757
:102370002068C06910F0030F03D0200001F07BF843
:1023800005E0200001F078F8200001F076F8002048
:10239000207720680069C0061AD52068C068C0068A
:1023A00016D57FF01000216808610820207720688A
:1023B000C06910F4407F03D0200001F05CF805E014
:1023C000200001F059F8200001F057F80020207794
:1023D00020680069C0070AD52068C068C00706D514
:1023E0007FF00100216808612000FFF75EFB206894
:1023F000006900060AD52068C068000606D57FF08F
:10240000800021680861200001F038F82068006928
:1024100040060AD52068C068400606D57FF0400017
:1024200021680861200001F02AF820680069800610
:102430000AD52068C068800606D57FF02000216894
:102440000861200001F01CF810BD00220268DFF8CE
:102450007030984208D0B0F1804F05D0164B9842AA
:1024600002D0164B984203D132F070024B681A43E7
:10247000DFF84C30984208D0B0F1804F05D00E4BB9
:10248000984202D00D4B984203D132F44072CB688F
:102490001A4332F080024B691A4302608A68C262B2
:1024A0000A688262DFF81820904201D1096901634D
:1024B0000121416170470000000400400008004015
:1024C000002C01407047000080B51348006850F0B0
:1024D0000100114908601048006810F001000090E8
:1024E00000980E48006850F080500C4908600B4876
:1024F000006810F080500090009800220F217FF0BB
:102500000100FFF719FE0648006830F0E06050F067
:1025100000700349086001BD181002401C10024001
:10252000040001402DE9F84380460C005FF00009EB
:102530000026002000270021DFF8C003804514D0CA
:10254000DFF8BC03804510D0DFF8B80380450CD01D
:10255000DFF8B403804508D0DFF8B003804504D02D
:10256000CD21DFF8AC03FFF7ACFA2068000404D0FB
:102570002068000C0004002804D0CE21DFF890036E
:10258000FFF79FFA6068002831D0606801282ED0DC
:10259000606811282BD06068022828D06068122853
:1025A00025D06068DFF86C13884220D06068DFF8BF
:1025B000681388421BD06068DFF86013884216D029
:1025C0006068DFF85C13884211D06068DFF854134C
:1025D00088420CD06068DFF85013884207D06068EA
:1025E000032804D0CF21DFF82803FFF76AFA00257B
:1025F00007E0DFF838030068B043DFF83013086005
:102600006D1C102D80F03581012010FA05F920682D
:1026100019EA00064E45F3D1DFF8E002804514D0F8
:10262000DFF8DC02804510D0DFF8D80280450CD0FE
:10263000DFF8D402804508D0DFF8D002804504D00E
:10264000DD21DFF8CC02FFF73CFA6068002868D093
:10265000012821D0022840D0032800F081801128D1
:102660002AD012284BD0DFF8AC12884259D0DFF8BC
:10267000B012884255D0DFF8A012884251D0DFF85E
:10268000A41288424DD0DFF89412884249D0DFF876
:102690009812884245D065E0E06802280AD0E068D8
:1026A000012807D0E068032804D0E521DFF86002A4
:1026B000FFF707FAE76855E0E06802280AD0E0680B
:1026C000012807D0E068032804D0EC21DFF840029D
:1026D000FFF7F7F9E068071D44E0E06802280AD038
:1026E000E068012807D0E068032804D0F321DFF870
:1026F0002002FFF7E6F9E06810F1080732E0E06831
:1027000002280AD0E068012807D0E068032804D036
:10271000FA21DFF8FC01FFF7D4F9E06810F10C07AB
:1027200020E0A06800280BD0A068012808D0A0688D
:10273000022805D040F20711DFF8D401FFF7C1F9F4
:10274000A068002801D1042709E0A068012803D16E
:102750000827C8F8109002E00827C8F8149001E094
:102760000027FFE7FF2E01D8404601E018F10400E2
:10277000FF2E01D8A90002E0B5F108018900026826
:102780000F238B409A4317FA01F1114301606068EF
:10279000C0007FF535AFDFF89801006850F0010008
:1027A000DFF88C110860DFF88801006810F0010084
:1027B00000900098DFF87C01A90850F821000F2153
:1027C00015F00302D2B29200914088434B498845EC
:1027D00001D100210FE04A49884501D101210AE0D9
:1027E0004849884501D1022105E04749884501D182
:1027F000032100E0042115F00302D2B292009140BF
:1028000008434C49AA0841F822006068C00305D576
:102810004948006830434849086004E04648006879
:10282000B043454908606068800305D543480068A7
:1028300030434249086004E040480068B0433F49E3
:1028400008606068C00205D53D48006830433C49D7
:10285000086004E03A480068B0433949086060689D
:1028600080027FF5C6AE3148006830432F490860CA
:10287000C6E6BDE8F18338B504000D00ADB2002D09
:1028800004D140F2C3112248FFF71BF9A068ADB292
:10289000284201D0012000E00020C0B232BD70B556
:1028A00004000D001600ADB2002D04D140F2E3117A
:1028B0001748FFF706F9F6B2002E07D0F6B2012E40
:1028C00004D04FF4F2711248FFF7FBF8F6B2002E75
:1028D00002D0ADB2256102E0ADB22804206170BD26
:1028E00080B51849096880B2014205D080B2154907
:1028F000086080B200F028F801BD00000008014027
:10290000000C01400010014000140140001801407B
:10291000603D00080000111000002110000031107F
:102920000000121000002210000032100C040140C0
:102930001810024008000140000401400404014056
:1029400008040140140401407047000010B5040061
:10295000002C01D10120B7E020685C49884207D0F3
:1029600020685B49884203D06B215A48FFF7A9F8D9
:102970006068002807D06068B0F5827F03D06C21C2
:102980005448FFF79EF8A06800280BD0A068B0F567
:10299000806F07D0A068B0F5004F03D06D214D487F
:1029A000FFF78FF8E068B0F5006F06D0E068002808
:1029B00003D06E214748FFF784F82069002806D02D
:1029C0002069022803D06F214248FFF77AF8606936
:1029D000002806D06069012803D070213D48FFF728
:1029E00070F8A069B0F5007F0AD0A069002807D070
:1029F000A069B0F5802F03D071213648FFF761F848
:102A0000E069002818D0E069082815D0E06910288E
:102A100012D0E06918280FD0E06920280CD0E069B6
:102A2000282809D0E069302806D0E069382803D08A
:102A300072212848FFF745F8206A002806D0206A4E
:102A4000802803D073212348FFF73BF80020A062C1
:102A500094F85100002802D12000FFF792F90220DB
:102A600084F851002068006830F040002168086058
:102A70006068A1680843E168084321690843616907
:102A80000843A16911F400710843E1690843216A10
:102A90000843A16A084321680860A069000C10F08F
:102AA0000400616A084321684860E06A216808619F
:102AB0002068C06930F400602168C861002060654A
:102AC000012084F85100002010BD00BF00300140FB
:102AD00000380040743E000838B505000C00002D99
:102AE00007D1502080F31188BFF34F8FBFF36F8F52
:102AF000FEE7FEF7F6F92868E96B2A6C51430844B3
:102B000068600020A8632868A8602868E96B491EEF
:102B10002A6C51430844E8605FF0FF3085F84400B8
:102B20005FF0FF3085F84500002C12D1286900289D
:102B300017D015F11000FDF77CFD002811D05FF0D3
:102B40008050DFF838150860BFF34F8FBFF36F8FE9
:102B500007E015F11000FEF70FF915F12400FEF75C
:102B60000BF9FEF7DBF9012032BDF8B504000D00CA
:102B70001600002C07D1502080F31188BFF34F8F2F
:102B8000BFF36F8FFEE7002D01D1002001E005FBB0
:102B900004F04830FDF7C0FF0700002F08D017F100
:102BA000480200973300DBB22900200000F002F851
:102BB0003800F2BD80B5029B002901D11B6000E006
:102BC0001A60D863196401211800FFF785FF01BD61
:102BD000F7B504000D001E000027002C07D150207F
:102BE00080F31188BFF34F8FBFF36F8FFEE7002D87
:102BF00002D1206C002801D1012000E00020C0B2E9
:102C0000002807D1502080F31188BFF34F8FBFF306
:102C10006F8FFEE7022E02D1E06B012801D1012067
:102C200000E00020C0B2002807D1502080F31188B6
:102C3000BFF34F8FBFF36F8FFEE7FDF726FE00282F
:102C400002D10298002801D1012000E00020C0B28A
:102C500000280CD1502080F31188BFF34F8FBFF3B1
:102C60006F8FFEE7200000F0B5F9FDF788FBFEF757
:102C700038F9A06BE16B884201D3022E26D13200D5
:102C80002900200000F04EF9616A00290FD014F1EC
:102C90002400FDF7CEFC002814D05FF08050DFF850
:102CA000DC130860BFF34F8FBFF36F8F0AE000287B
:102CB00008D05FF08050DFF8C4130860BFF34F8F77
:102CC000BFF36F8FFEF72AF901204BE0029800282E
:102CD00003D1FEF723F9002044E0002F03D168461A
:102CE000FDF7E4FC0127FEF719F9FDF740FBFEF7BD
:102CF000F8F894F9440010F1010F02D1002084F893
:102D0000440094F9450010F1010F02D1002084F82D
:102D10004500FEF703F902A96846FDF7DAFC002832
:102D20001AD1200000F09BF900289BD0029914F1E1
:102D30001000FDF767FC200000F04CF9FDF71FFBC9
:102D4000002894D15FF08050DFF830130860BFF3A3
:102D50004F8FBFF36F8F8AE7200000F03BF9FDF73C
:102D60000EFB0020FEBD2DE9F44183B006000C00EF
:102D70001D000027002E07D1502080F31188BFF3DB
:102D80004F8FBFF36F8FFEE7002C02D1306C00280D
:102D900001D1012000E00020C0B2002807D150205E
:102DA00080F31188BFF34F8FBFF36F8FFEE7FDF7FE
:102DB0006CFD002802D10398002801D1012000E019
:102DC0000020C0B200280CD1502080F31188BFF33E
:102DD0004F8FBFF36F8FFEE7300000F0FBF8FDF779
:102DE000CEFAFEF77EF8D6F83880B8F1000F39D069
:102DF000F7682100300000F0D8F8002D1BD1B8F1A1
:102E00000100B0633068002802D1FDF705FE706054
:102E10003069002822D016F11000FDF70AFC0028C6
:102E20001CD05FF08050DFF854120860BFF34F8F62
:102E3000BFF36F8F12E0F760706A00280ED016F1B2
:102E40002400FDF7F6FB002808D05FF08050DFF883
:102E50002C120860BFF34F8FBFF36F8FFEF75EF841
:102E600001205CE00398002803D1FEF757F800200A
:102E700055E0002F03D16846FDF718FC0127FEF747
:102E80004DF8FDF774FAFEF72CF896F9440010F1AE
:102E9000010F02D1002086F8440096F9450010F198
:102EA000010F02D1002086F84500FEF737F803A98C
:102EB0006846FDF70EFC002825D1300000F0C1F86F
:102EC000002889D03068002806D1FEF70AF870681B
:102ED000FDF7F2FCFEF722F8039916F12400FDF746
:102EE00091FB300000F076F8FDF749FA00287FF4F6
:102EF00078AF5FF08050DFF884110860BFF34F8F28
:102F0000BFF36F8F6DE7300000F064F8FDF737FA1C
:102F1000300000F096F800283FF463AF002004B0C2
:102F2000BDE8F0812DE9F041040017000025A66BF3
:102F3000206C002809D12068002831D16068FDF795
:102F40000FFD0500002060602AE0002F0FD1226CE9
:102F5000A7683800FEF702FEA068216C0844A06054
:102F6000A068616888421BD32068A06018E0226CCA
:102F7000D4F80C804046FEF7F1FDE068216C494230
:102F80000844E060E0682168884204D26068216CEF
:102F900049420844E060022F02D1002E00D0761E84
:102FA000701CA0632800BDE8F08110B50C00016C16
:102FB00000290ED0C168026C1144C160C16842682A
:102FC000914201D30168C160026CC1682000FEF724
:102FD000C5FD10BD38B50400FDF783FF94F94550D9
:102FE00008E014F12400FDF724FB002801D0FDF7D0
:102FF000B1FB6D1E6DB2012D02DB606A0028F0D1BD
:103000005FF0FF3084F84500FDF788FFFDF769FFAA
:1030100094F9445008E014F11000FDF70AFB002871
:1030200001D0FDF797FB6D1E6DB2012D02DB20690B
:103030000028F0D15FF0FF3084F84400FDF76EFF08
:1030400031BD10B50400FDF74CFFA06B002801D185
:10305000012400E00024FDF761FF200010BD10B541
:103060000400FDF73EFFA06BE16B884201D1012413
:1030700000E00024FDF752FF200010BD04ED00E049
:1030800038B50400C9B2206800F0FBF9206800F0F0
:103090000BFA05000121206800F024FA2800C0B2D4
:1030A00032BD70B504000D0016000021206800F04C
:1030B00019FA55F08001C9B2206800F0E2F9310038
:1030C000C9B2206800F0DDF90121206800F00AFA99
:1030D00070BDF8B504000D0016001F00FFB2022FEE
:1030E0001ADB0021206800F0FDF92900C9B2206830
:1030F00000F0C7F9002505E0206800F0D5F9EDB231
:1031000070556D1C28003900C0B2C9B28842F3D393
:103110000121206800F0E6F9F1BDF8B504000D00CA
:1031200016001F00FFB2022F1BDB0021206800F0F9
:10313000D9F955F08001C9B2206800F0A2F9002544
:1031400005E0EDB2715D206800F09BF96D1C280070
:103150003900C0B2C9B28842F3D30121206800F01F
:10316000C1F9F1BD80B5C1790091837942790179C6
:1031700000F001F801BDF8B504000E0017001D00B5
:10318000200000F097F80F2000F0B9F9200000F0BF
:103190009BF803233E48F6B2032101FB06F100EB46
:1031A000010206212000FFF7B8FF3A48FFB2C25DD6
:1031B00009212000FFF775FF0B220B212000FFF7EC
:1031C00070FF23220C212000FFF76BFF0698324985
:1031D000EDB2495D062929D13049C0B2085C000131
:1031E000C01C0200D2B21D212000FFF75AFF2A485E
:1031F000EDB2405D0001C01D0200D2B21E212000D0
:10320000FFF74FFF31212000FFF73AFF10F0F800E1
:1032100050F005000200D2B231212000FFF741FF3B
:103220000C2237212000FFF73CFF15E01B49C0B2FC
:10323000085C0001801C0200D2B21D212000FFF7B3
:1032400030FF1548EDB2405D0001C01D0200D2B252
:103250001E212000FFF725FFFF221F212000FFF77E
:1032600020FF002220212000FFF71BFF0C2221213C
:103270002000FFF716FF012241212000FFF711FF78
:10328000002084F80A01200000F00AF8F1BD0000D7
:103290001C41000820410008FC400008C84000080C
:1032A00010B50400092201212000FFF7FAFE0120D9
:1032B000607210BD10B50400082201212000FFF744
:1032C000F0FE0020607210BD80B588220121FFF75A
:1032D000E8FE01BD80B5FF221221FFF7E2FE01BD2D
:1032E00070B504000D00160025722000FFF73AFFAC
:1032F00084224D212000FFF7D4FEFF22242120004C
:10330000FFF7CFFE012240212000FFF7CAFE3F2237
:1033100011212000FFF7C5FE2000FFF7DBFF2A0088
:10332000D2B222212000FFF7BCFE0F212000FFF7C0
:10333000A7FE0200D2B20D212000FFF7B2FE8D22BF
:1033400001212000FFF7ADFE002084F80A0102E011
:10335000012000F0D4F818212000FFF791FE40076B
:1033600003D503206072012009E0761E002EEFD104
:10337000206800F0C8F82000FFF7F4FE002070BDC0
:1033800038B50400206800F0D9F8002828D04FF4A0
:103390008071002214F10A05280000F0DDF81021E8
:1033A0002000FFF76DFE0200D2B20D212000FFF7D2
:1033B00078FEA079002801D1257A04E013212000AD
:1033C000FFF75EFE05002B00DBB214F10A020021BC
:1033D0002000FFF77EFE84F80A512000FFF77AFFF5
:1033E00094F80A0132BDF8B504000D0016001F0064
:1033F000206800F0E4F825716671A7710698E07105
:10340000079820722000FFF7ADFEF1BD70B50400F3
:103410000D001600300094F80A11C0B2884201D0A5
:1034200094F80A61F6B214F10A0132002800FEF79E
:1034300095FB0020F6B2A855002084F80A01300060
:10344000C0B270BD00B500BF130096469446103957
:1034500028BFA0E80C50FAD85FEA417C28BF0CC016
:1034600048BF40F8042BC90728BF20F8022B48BFEB
:1034700000F8012B00BD70477047704770477047D8
:10348000704713B504000021200000F02BF84FF422
:103490007A73012201A9A06900F0A0F8A06900F0E8
:1034A0000DFB0128FAD113BD1CB5040000208DF8D6
:1034B000050000208DF804000021200000F012F823
:1034C0004FF47A700090012301AA0DF10501A06963
:1034D00000F062F9A06900F0F1FA0128FAD19DF834
:1034E000040016BD80B5012901D1012200E00022AF
:1034F000D2B2016989B24069FFF7D1F901BD80B547
:1035000000F050FB01BD10B5040001212000FFF7C1
:10351000E9FF00222068010089B26068FFF7BFF967
:103520000120FFF7ECFF01222068010089B26068EA
:10353000FFF7B5F96420FFF7E2FF10BD80B58168A1
:1035400089B2C068FFF797F9012801D1012000E096
:103550000020C0B202BD000062F30F2262F31F42DE
:10356000401810F0030308D0C91A1FD3DB0748BF67
:1035700000F8012D28BF20F8022D130030B41446A6
:103580001546103928BF20E93C00FAD8490728BF62
:1035900020E90C0048BF40F8042D890028BF20F81E
:1035A000022D48BF00F8012D30BC7047C91818BF64
:1035B00000F8012DCB0728BF00F8012D704710B58A
:1035C000040001212000FFF78DFF01222068010087
:1035D00089B26068FFF763F910BD00002DE9F84378
:1035E00004000E00170098465FF000090025A0684F
:1035F000002809D0A068B0F5004F05D04FF4E17164
:10360000DFF8BC03FEF75DFA94F85000012801D101
:103610000220BFE0012084F85000FEF753FA8146F3
:1036200094F85100012801D00225ABE0002E02D011
:10363000BFB2002F01D10125A4E0032084F851007E
:10364000002060652663A786E7860020A06300202F
:10365000A0870020E0870020606400202064A0682C
:10366000B0F5004F05D12068006850F48040216813
:10367000086020680068400605D42068006850F0A3
:10368000400021680860E068B0F5006F29D16068EB
:10369000002802D0E08E01280ED130882168C86051
:1036A000B61CE08E401EE08606E030882168C860C7
:1036B000B61CE08E401EE086E08E00283BD02068DD
:1036C00080688007F1D4B8F1000F08D018F1010F1D
:1036D000F2D0FEF7F7F9B0EB09004045ECD3032533
:1036E00050E06068002802D0E08E01280ED13078CA
:1036F00021680873761CE08E401EE08606E0307874
:1037000021680873761CE08E401EE086E08E00285B
:1037100011D0206880688007F1D4B8F1000F08D07C
:1037200018F1010FF2D0FEF7CDF9B0EB09004045DA
:10373000ECD3032526E0CDF8009043460122022178
:10374000200000F0C9F9002801D003251AE04A46FC
:103750004146200000F011FA002803D00125202066
:1037600060650FE0A068002808D100200090206864
:10377000C06800902068806800900098606D002804
:1037800000D00125012084F85100002084F8500069
:103790002800C0B2BDE8F2832DE9F04782B00400F2
:1037A0000E0017009A46002000215FF000095FF02C
:1037B00001080025A068002805D040F24131DFF85B
:1037C0000002FEF77EF994F85000012801D1022092
:1037D000F3E0012084F85000FEF774F9814694F874
:1037E00051006168012809D0B1F5827F04D1A16838
:1037F000002901D1042801D00225D6E0002E06D0F0
:10380000002F04D01FFA8AFABAF1000F01D1012566
:10381000CBE094F85100012802D1052084F8510032
:1038200000206065A763A4F83EA0A4F83CA026632E
:10383000A4F836A0A4F834A000202064002060641E
:1038400020680068400605D42068006850F04000F9
:1038500021680860DDF828A0E068B0F5006F40D16D
:103860006068002802D0E08E012806D130882168E7
:10387000C860B61CE08E401EE086E08E002802D1B3
:10388000E08F00286ED0B8F1000F0FD0E08E002836
:103890000CD020688068800708D530882168C8600F
:1038A000B61CE08E401EE0865FF00008E08F002826
:1038B0000CD020688068C00708D52068C0683880B0
:1038C000BF1CE08F401EE0875FF001081AF1010F76
:1038D000D3D0FEF7F7F8B0EB09005045CDD3032560
:1038E00063E06068002802D0E08E012806D13078BD
:1038F00021680873761CE08E401EE086E08E00286A
:1039000002D1E08F00282DD0B8F1000F0FD0E08E4B
:1039100000280CD020688068800708D5307821689E
:103920000873761CE08E401EE0865FF00008E08F92
:1039300000280CD020688068C00708D52068C068BF
:1039400038707F1CE08F401EE0875FF001081AF19D
:10395000010FD3D0FEF7B6F8B0EB09005045CDD338
:10396000032522E0CDF800905346012202212000D9
:1039700000F0B2F8002801D0032516E04A4651466F
:10398000200000F0FAF8002803D00125202060650F
:103990000BE0A068002808D1002000902068C068D3
:1039A00000902068806800900098012084F8510001
:1039B000002084F850002800C0B2BDE8F68700005F
:1039C000183E000810B582B00400206840682168E5
:1039D000896811F04102012A05D1420603D5200071
:1039E000216C884769E08A0705D5020603D52000C7
:1039F000616C884761E011F0600F5ED082065CD593
:103A00004A0610D594F85120032A48D0626D52F02E
:103A100004026265002200922268D2680092226845
:103A200092680092009A89060FD5616D51F00101EC
:103A30006165002100912168896800912168096809
:103A400031F04001226811600099616D002933D086
:103A50002168496831F0E00122685160012184F851
:103A6000511010F0030F24D02068406880088000B7
:103A700021684860E06C002806D00FF24900E16C34
:103A80004863E06C00F0A2F8A06C002814D00FF29C
:103A90003500A16C4863A06C00F098F80CE00020A1
:103AA00000902068C06800902068806800900098AE
:103AB00003E0200000F0F0F8FFE713BD90F851009C
:103AC0007047000080B5406A0021C1870021C1868F
:103AD00000F0E2F801BD00002DE9F04104000D0006
:103AE00016001F00DDF81880206880682840A84272
:103AF00001D1012000E00020B0423BD017F1010FBE
:103B0000F2D0002F05D0FDF7DDFFB0EB0800B84282
:103B1000EAD32068406830F0E000216848606068BF
:103B2000B0F5827F0DD1A068B0F5004F03D0A0683A
:103B3000B0F5806F05D12068006830F04000216842
:103B40000860A06AB0F5005F0CD1206800684DF6EF
:103B5000FF710840216808602068006850F4005038
:103B600021680860012084F85100002084F850008A
:103B7000032000E00020BDE8F08110B582B0040011
:103B800000920B00002280212000FFF7A5FF0028F3
:103B900005D0606D50F020006065032000E000203B
:103BA00016BD000038B50400FDF78CFF050014F1C8
:103BB000010F02D0044800780419FDF783FF401B71
:103BC000A042FAD331BD00BF0800002010B5002488
:103BD00090F82110022903D004218163012449E0D7
:103BE0000168096831F00E01026811600168096816
:103BF00049084900026811600168DFF8802091429D
:103C000001D1012128E00168DFF87420914201D13F
:103C1000102121E00168DFF86C20914202D14FF4BD
:103C2000807119E00168DFF86020914202D14FF401
:103C3000805111E00168DFF85420914202D15FF415
:103C4000803109E00168DFF84820914202D15FF439
:103C5000801101E05FF08071DFF8382011600121F0
:103C600080F82110002180F82010416B002901D03C
:103C7000416B88472000C0B210BD00000800024020
:103C80001C00024030000240440002405800024044
:103C90006C000240040002407047000013480068B6
:103CA00050F00100114908601148006811490840AE
:103CB0000F4908600D4800680F4908400B4908602B
:103CC0000A48006830F48020084908600848006805
:103CD00030F4FE00064908605FF41F0007490860E1
:103CE0005FF0006006490860704700000010024065
:103CF000041002400000FFF8FFFFF6FE081002402B
:103D000008ED00E0433A5C55736572735C4D725A7E
:103D1000616E675C4941525F70726A5C76656E7471
:103D2000696C6174696F6E5C447269766572735C0C
:103D300053544D3332463178785F48414C5F44727A
:103D4000697665725C5372635C73746D333266318D
:103D500078785F68616C5F636F727465782E63005A
:103D6000433A5C55736572735C4D725A616E675C61
:103D70004941525F70726A5C76656E74696C6174F9
:103D8000696F6E5C447269766572735C53544D332F
:103D900032463178785F48414C5F4472697665728B
:103DA0005C5372635C73746D3332663178785F682C
:103DB000616C5F6770696F2E63000000433A5C5569
:103DC000736572735C4D725A616E675C4941525FF4
:103DD00070726A5C76656E74696C6174696F6E5C32
:103DE000447269766572735C53544D333246317850
:103DF000785F48414C5F4472697665725C537263C8
:103E00005C73746D3332663178785F68616C5F72B1
:103E100063632E6300000000433A5C557365727360
:103E20005C4D725A616E675C4941525F70726A5CA8
:103E300076656E74696C6174696F6E5C44726976E4
:103E40006572735C53544D3332463178785F484124
:103E50004C5F4472697665725C5372635C73746D17
:103E60003332663178785F68616C5F7370692E6396
:103E700000000000433A5C55736572735C4D725AE2
:103E8000616E675C4941525F70726A5C76656E7400
:103E9000696C6174696F6E5C447269766572735C9B
:103EA00053544D3332463178785F48414C5F447209
:103EB000697665725C5372635C73746D333266311C
:103EC00078785F68616C5F7370695F65782E6300F6
:103ED000433A5C55736572735C4D725A616E675CF0
:103EE0004941525F70726A5C76656E74696C617488
:103EF000696F6E5C447269766572735C53544D33BE
:103F000032463178785F48414C5F44726976657219
:103F10005C5372635C73746D3332663178785F68BA
:103F2000616C5F74696D2E630000000019E050F849
:103F3000041BCB0744BFA9F101035918121F00232A
:103F4000042A41F8043BF9D25FEA827C0B4604D58F
:103F50004FF0000CA1F800C09B1CD10744BF00210A
:103F6000197050F8042B002AE1D170477047FEE722
:103F7000FEE7FEE7FEE7704780B50448FEF7AAF9C2
:103F800001BD80B50248FFF71DFD01BDF410002002
:103F90009C10002080B54FF48050FEF7A1FC01BDBD
:103FA00010B450F8041B79B1026843680244083029
:103FB000DC0744BFA9F10104E31852F8044B43F8AD
:103FC000044B091FF9D1ECE710BC704710B5074945
:103FD00079441831064C7C44163404E00A68081D04
:103FE000114488470146A142F8D110BD08000000E5
:103FF0002800000039FFFFFFF80D0000100400202A
:10400000000000009DFFFFFF0C000000D400000036
:10401000000000200000000000F00BF8002801D094
:10402000FFF7D4FF0020C046C046FDF7F9FC00F0C2
:1040300002F80120704700F001B80000074638463A
:1040400000F002F8FBE7000080B5C046C046024A17
:1040500011001820ABBEFBE726000200EC40000870
:104060006D1E00080100000000000000B400000008
:1040700014410008211F000800000000000000009B
:1040800080000000F44000089F1F000800000000AE
:104090000000000080000000020304050607080974
:1040A0000A0B0C0D0E0F10100000000000000000A5
:1040B0000102030406070809014880470148004738
:1040C0009D3C0008D54000080001020304050607D6
:1040D00008090000C046C046C046C046FFF79CFF26
:1040E000AAAAAAAA00A24A04010000004C6F5261C9
:1040F000000000006D6375576F726B0006070809BA
:104100000A0B0C00000000000102030449444C4566
:104110000000000046616E00080000006C80000096
:10412000FFFCF9F6FFF7FEBFFFF7FEBFFFF7FEBF8C
:10413000FFF7FEBFFFF7FEBFFFF7FEBFFFF7FEBFB3
:10414000FFF7FEBFFFF7FEBFFFF7FEBFFFF7FEBFA3
:10415000FFF7FEBFFFF7FEBFFFF7FEBFFFF7FEBF93
:10416000FFF7FEBFFFF7FEBFFFF7FEBFFFF7FEBF83
:10417000FFF7FEBFFFF7FEBFFFF7FEBFFFF7FEBF73
:10418000FFF7FEBFFFF7FEBFFFF7FEBFFFF7FEBF63
:10419000FFF7FEBFFFF7FEBFFFF7FEBFFFF7FEBF53
:1041A000FFF7FEBFFFF7FEBFFFF7FEBFFFF7FEBF43
:1041B000FFF7FEBFFFF7FEBFFFF7FEBFFFF7FEBF33
:0441C000FFF7FEBF48
:04000005080040D5DA
:00000001FF
