:020000040800F2
:1000000008050020B5540008AD530008AF530008A0
:10001000B1530008B3530008B553000800000000B6
:10002000000000000000000000000000934F0008E6
:10003000B7530008000000004D4F0008F3480008C7
:100040001D550008215500082555000829550008B0
:100050002D55000831550008355500083955000860
:100060003D55000841550008455500084955000810
:100070004D550008515500085555000859550008C0
:100080005D55000861550008655500086955000870
:100090006D55000871550008755500087955000820
:1000A0007D550008B95300088155000885550008A2
:1000B000895500088D550008915500089555000890
:1000C000995500089D550008A1550008C353000824
:1000D000A5550008A9550008AD550008B155000800
:1000E000D5530008B5550008B95500082DE9F04F63
:1000F00082460FF24860A5B015461E46D0E900239F
:10010000CDE91223002004910D900DF150086FF0FD
:10011000004900E03D440020ADF8020012AB4FF072
:10012000FF3229460DF1020001F0A5F80746012F24
:1001300004DA2878471EBF41FF43FF0FBDF80200D5
:1001400025280CBFA7F1010BBB46BBF1010F0EDB4D
:100150002C4614F8011B0498D0470028049000F0A6
:10016000F3800D98401CBBF1010B0D90F1D1BDF84F
:100170000200252807D100200790089009900A90D6
:100180000B900C9005E00028C4D10D98DEE240F001
:10019000010015F8011F2029F9D023290DD02B29A2
:1001A00004D02D2906D030290AD00CE040F00200FE
:1001B00080B2EEE740F00400FAE740F00800F7E70D
:1001C00040F01000F4E72A290ED13168316051F86F
:1001D000042B3160002A0F9204D5514240F00400F4
:1001E0000F9180B26D1C11E000210F9109E00F9971
:1001F000494505D001EB810302EB430130390F91F2
:100200006D1C2A78A2F130010A29F0D329782E2911
:1002100003D04FF0FF310E911DE015F8011F2A2980
:1002200007D1316831606D1C51F8042B31600E929A
:1002300011E000210E9109E00E99494505D001EB2E
:10024000810302EB430130390E916D1C2A78A2F133
:1002500030010A29F0D3ADF840000FF2E8402978C8
:1002600001F01EF808B115F8010B8DF842009DF859
:100270004200682802BF29786829622005D06C28CE
:1002800004BF28786C2803D171208DF842006D1CC2
:1002900014A8069015F8017BB7F125002AD01C3868
:1002A00000F0DB80001F022840F2D780133800F0F6
:1002B000FC80093800F0D180801E00F06781401E6C
:1002C00000F03D81401E022840F2C780001F00F070
:1002D0003681401F00F09280401E00F0E680401EF4
:1002E00035D0C01E0BD0801E00F0DF80C01E00F095
:1002F000DC806EE125208DF85000012073E19DF82F
:1003000042006C283068306014D050F8044B3060E4
:1003100005940E9F002F04D5204600F0CDFF074620
:1003200006E03A460021204600F0E2FF00B1071B3C
:10033000089759E150F8042B306002A9504600F0AC
:100340003FFA002840F150814FF0FF30FEE1316864
:100350003160002251F8040B31600021CDE9020127
:1003600014A80590DDE902019142069F08BF904262
:100370004FF03C0C01D10E9AC2B100F00F033033A4
:10038000DBB23A2BA8BF2733ACF101020009BB5402
:10039000944640EA017009090022914208BF904248
:1003A00004D0059A07EB0C039A42E6D307EB0C0046
:1003B0000590CCF13C010E980891814209DA401A6F
:1003C0000A904FF6EF71BDF840000840ADF84000CC
:1003D0000AE1002840F108819DF8400000F0140077
:1003E000102840F001810F98079A801A0A9A801A03
:1003F000401A0128C0F2F8800A90F5E09DF842000A
:1004000062281AD0682806D06A280CD06C281CD024
:10041000712808D019E03068306050F8041B306053
:100420000D980880E0E03068306050F8042B3060B0
:100430000D98C117C2E90001D6E03068306050F86D
:10044000041B30600D980870CEE03068306050F8C2
:10045000041B30600D980860C6E03068C01D20F0B5
:1004600007023260D2E9000108323260CDE90201B0
:10047000002902D507982D210AE0BDF84000810728
:1004800002D507982B2103E0C00705D50798202146
:1004900008F80010401C079014A80799084405901C
:1004A000394602A800F098FB9EE09DF842006C28B7
:1004B0000DD0712818BF6A2809D13068C01D20F0FE
:1004C00007023260D2E900010832326005E031688B
:1004D000316051F8040B31600021CDE902019DF833
:1004E0004200682803D1DDE9020180B20BE06228F6
:1004F00003D1DDE90201C0B205E0742818BF7A28F3
:1005000004D1DDE902010021CDE902019DF840009E
:10051000000732D5DDE902230020834208BF824272
:100520002BD047F02000782827D10798302108F8F1
:100530000010401C411C079108F800701DE09DF858
:100540004200314600F005F9CDE90201DDE9022360
:1005500000218B4202DA07982D210AE0BDF8400005
:10056000810702D507982B2103E0C00705D507981E
:10057000202108F80010401C079014A8079908448F
:100580000590394602A800F0A1FA2DE09DF842003E
:100590006C2809D0012007903068306050F8041BA7
:1005A00030608DF850101FE03068306001AA50F8BC
:1005B000041B3060ADF804100020ADF8060002A95D
:1005C0004FF0FF300E90504600F0FAF800280BD59F
:1005D000BAE625208DF8500001200790380003D09E
:1005E00088F80170022007900F980799401A0A991D
:1005F000401A0899401A0B99401A0999401A0C9907
:10060000471A9DF84000400710D42020012F8DF894
:1006100000000BDB3C4601236A4602A9504600F06D
:1006200005FE00287FF490AE641EF4D1DDF81CB006
:10063000BBF1000F14AC0DD014F8011B0498D04787
:10064000002804903FF480AE0D98401CBBF1010BD4
:100650000D90F1D130208DF800000A9C012C0ADBAE
:1006600001236A4602A9504600F0E0FD00287FF40D
:100670006BAE641EF4D1DDF820B0059CBBF1000F19
:100680000DD014F8011B0498D047002804903FF4C3
:100690005BAE0D98401CBBF1010B0D90F1D13020E9
:1006A0008DF800000B9C012C0ADB01236A4602A98D
:1006B000504600F0BBFD00287FF446AE641EF4D126
:1006C00005980899DDF824B04418BBF1000F0DD04F
:1006D00014F8011B0498D047002804903FF434AE6E
:1006E0000D98401CBBF1010B0D90F1D130208DF81D
:1006F00000000C9C012C0ADB01236A4602A950462B
:1007000000F094FD00287FF41FAE641EF4D19DF824
:10071000400040077FF5FFAC2020012F8DF800003E
:10072000FFF6F9AC01236A4602A9504600F07EFDAF
:1007300000287FF409AE7F1EF4D1ECE40000000035
:1007400000000000686A6C747A4C000025B0BDE8B7
:10075000F08F622826D068281DD06A2808D06C281F
:1007600027D0712804D0742823D07A280CD020E018
:100770000868C01D20F007000860D0E90023083099
:1007800008601946104670470A680A6052F8040B60
:100790000A60002170470A680A6052F8040B0A6078
:1007A00000B20BE00A680A6052F8040B0A6040B21B
:1007B00004E00A680A6052F8040B0A60C117704727
:1007C0002DE9F44F0D4694B0D5F830A0BAF1000FE2
:1007D000804648BF6FF0004A00F0B6FD696B4018D4
:1007E00001900FF67820D0E90023CDE9022395F897
:1007F0003800400702D40198412805D240200DF16D
:1008000010090190002609E000F0A4FD5FEA00094C
:10081000F8D14FF0FF3056E1AAEB040ABAF1010F0C
:10082000C0F2CE801498018802AA0DF1010000F0F8
:10083000E9FD0028044600F1DE801498008810B914
:10084000641E00F1D880A245C0F2BA80686901999F
:100850002218914280F0A2806E634042296A401AB9
:10086000A969401A696A401AE969401AA96A461AD0
:1008700095F83800400710D42020012E8DF8000094
:100880000BDB374601236A462946404600F0CEFC82
:10089000002840F0B0807F1EF4D1D5F814B0BBF131
:1008A000000F4F460DD017F8011BA868C04700285D
:1008B000A86000F0A080E86A401CBBF1010BE86270
:1008C000F1D130208DF800002F6A012F0ADB0123BF
:1008D0006A462946404600F0A9FC002840F08B807B
:1008E0007F1EF4D1D5F818B0EF68BBF1000F0CD023
:1008F00017F8011BA868C0470028A8607BD0E86AE9
:10090000401CBBF1010BE862F2D130208DF80000F1
:100910006F6A012F09DB01236A462946404600F031
:1009200085FC002867D17F1EF5D1E868A969D5F854
:100930001CB04718BBF1000F0CD017F8011BA868BA
:10094000C0470028A86056D0E86A401CBBF1010BE4
:10095000E862F2D130208DF80000AF6A012F09DB88
:1009600001236A462946404600F060FC002842D137
:100970007F1EF5D195F8380040070DD52020012EB7
:100980008DF8000008DB01236A462946404600F046
:100990004DFC80BB761EF6D100266E61224668694A
:1009A0000DF10101484400F03BFD686920186861C1
:1009B0001498801C1490801E008800287FF42CAFAF
:1009C000686B6969401A296A401AA969401A696AFC
:1009D000401AE969401AA96AA0EB010A95F83800A3
:1009E000400710D4BAF1010F0DDB5446A86820214E
:1009F000C047A86010B94FF0FF365DE0E86A401CC0
:100A0000641EE862F2D16B694A462946404600F00E
:100A10000DFC0028EFD12C6A012C0ADBA8683021DC
:100A2000C0470028A860E6D0E86A401C641EE8625F
:100A3000F4D1AB69EA682946404600F0F7FB00288C
:100A4000D9D16C6A012C0ADBA8683021C047002884
:100A5000A860D0D0E86A401C641EE862F4D1E8685F
:100A6000A969EB6942182946404600F0DFFB0028DF
:100A7000C1D1AC6A012C0ADBA8683021C04700282C
:100A8000A860B8D0E86A401C641EE862F4D195F80A
:100A9000380040070ED5BAF1010F0BDBA868202102
:100AA000C0470028A860A6D0E86A401CBAF1010A35
:100AB000E862F3D16E616E6304A881451CBF4846AD
:100AC00000F0EAFC304615B0BDE8F08F2DE9F343A5
:100AD000054608462F696F2808BF082405D041F055
:100AE0002001782914BF0A2410243C26D5E90023CC
:100AF000642818BF69289046994606D100218B4288
:100B000003DAD8F1000869EB49090020814508BFE4
:100B100080450CD1286B50B9082C38D195F8380095
:100B2000000734D530203B2687F83B002FE0701EAD
:100B300000900646404649462246E31700F0ECFC8A
:100B400002F13000C0B23A2803DB9DF8041051399D
:100B50000818B855494640462246E31700F0DCFC29
:100B6000804689460020814508BF804503D0E8685B
:100B7000B9198842DBD3082C09D195F83800000751
:100B800005D5B85D302802D0761E3020B855B91989
:100B9000E960C6F13C00296BA861884208DA081AAE
:100BA00028624FF6EF71288F08402887BDE8F3834D
:100BB00000290ED595F8381001F01401102908D13C
:100BC000696B6A69891A2A6A891A0E1A012EA8BFE6
:100BD0002E62BDE8F38300002DE9F24F04468EB08B
:100BE000D4E90001CDE9020104AF9DF8380040F0DE
:100BF000200BBBF1610F0AD0206B002848BF0620F4
:100C000004D408BFBBF1670F01D1012020636168E4
:100C1000C1F30A5040F2FF7290421CD1080304BF96
:100C20002068002809D10320A0619DF838006138B0
:100C30001A2835D30FF2386108E00320A0619DF82F
:100C4000380061381A2828D30FF21C61E0680322AB
:100C500000F0E6FBBDE1012815DA204600F0D3FCE8
:100C6000012810DB00250020BBF1610F1FD1E168D6
:100C700030220A708A1CE2609DF83820612A0CBF7D
:100C8000782258220FE0626840F2FE3161F31E5272
:100C9000451A62604FF0FF30E6E70FF2C851D5E722
:100CA0000FF2C851D2E74A706169891C616110B9BD
:100CB0000026002584E1BBF1610F40F09880206B95
:100CC000D4E900AB00284CBF2126461CDDE9020117
:100CD0000022002300F0BAFC36B23ABF8BF000408D
:100CE000CDE902A0CDE902AB06F101082D1FB8F154
:100CF000010F8DF810200DF1110736DBDDE902013F
:100D00000022002300F0BAFC2FD21C2102A800F020
:100D1000CDFCDDE9020100F04FFDA8F10708B8F1B4
:100D2000010F814609DB00F073FD02460B46DDE949
:100D3000020100F085FDCDE90201F81D072105E063
:100D400009F00F0200F8012D4FEA2919B9F1010F3E
:100D500001DB491EF4D5491E5CBF002200F8012DBD
:100D6000F9D5C71DB8F1010FC8DA0DF11100391A14
:100D7000B142B8BF0E4636B230000DF111072FD484
:100D8000884206DA04A9014449780829A8BF0F213E
:100D900000DA002104AA024400E0761E12F80139AC
:100DA000401E8B42F9D00F2904D104A901444A788E
:100DB000521C4A70002802D504AF761C2D1D36B295
:100DC000701E0DD439180A783032D2B23A2A03DBB9
:100DD0009DF838303A3B9A18401E01F80129F2D5A7
:100DE000206B002840F1EC80701E2063E8E0DDE914
:100DF00002010022002300F029FC3CBF81F00041E9
:100E0000CDE902012DB247F2975068434B49DFF814
:100E1000309190FBF1F52DB2C5F1070ABAF1010F3F
:100E200090461CDBDDE902675FEACA7007D54246DF
:100E30004B463046394600F0C3FD06460F46404655
:100E4000494642464B464FEA6A0A00F0B9FDBAF1FC
:100E5000000F80468946E7D1CDE9026724E0CAF158
:100E6000000A0026374F14E05FEACA7007D54246F1
:100E70004B463046394600F0A3FD06460F46404635
:100E8000494642464B4600F09BFD4FEA6A0A8046BF
:100E90008946BAF1000FE7D1DDE9020132463B464F
:100EA00000F060FECDE90201BBF1660F216BDFF8B7
:100EB00098900CBF05F10A0006204618142EA8BF12
:100EC000132630208DF810000DF11107012E3DDBA7
:100ED000DDE9020100F086FC07F1080104220A2383
:100EE000B0FBF3F303EB8307A0EB4700303001F8CE
:100EF000010C0A20B3FBF0F000EB8007A3EB4703E3
:100F00003033521E01F8023DE9D1083E012E01F1B5
:100F10000807DBDBDDE9020100F064FC00F082FC85
:100F200002460B46DDE9020100F08AFC00224B4636
:100F300000F046FDCDE90201CAE700BFA08601002E
:100F4000000024400000F03F84D797410DF11100CC
:100F5000381A0DF1110702E0401E6D1E7F1C397812
:100F60003029F9D0BBF1660F08BF691C04D0BBF172
:100F7000650F0CBF01210021226B8E1836B2B042E2
:100F8000B8BF064636B231001AD4814204DA785C22
:100F90003528A8BF392000DA30207A18521E00E028
:100FA000761E12F80139491E8342F9D0392802D140
:100FB000785C401C7854002902D57F1E761C6D1C7D
:100FC0002DB29DF83810009533B23A46204600F015
:100FD00003F80FB0BDE8F08F2DE9F04786B0064664
:100FE0008A4690461D4600F006FF012D406A376B89
:100FF00090F8009002DA01250FF278284AF02000DC
:10100000BDF93840662808BF641C12D0672878D123
:1010100014F1040F7BDBBC4279DA96F83800641CCB
:10102000000702D4BD42B8BF2F4624B23F1B48BFC1
:10103000002724B2F068B169012C23DA4A1C30235E
:101040004354012F03DA96F83800000703D5F068FF
:1010500000F80290521CE742B8BF7C4224B26042C2
:101060007062E719AF42B261B8BF3D46F068B3693C
:101070002DB2F5612A464146184400F0D1F9781B9B
:10108000B062BCE022469542084416DA2A46414640
:1010900000F0C6F9B1696918601B012FB161706277
:1010A00003DA96F83800000705D5F06800F80190DB
:1010B000F069401CF061B762A1E0414600F0B0F970
:1010C000B06920182D1B012F03DA96F83810090794
:1010D00003D5F16801F80090401CB0612DB2AF4219
:1010E000B8BF3D46F068B3692DB22A4608EB04014B
:1010F000184400F095F9B0692818B061781B706247
:101100007DE0BAF1610F14D14FF0700A16E0BD42D4
:1011100004DA96F83810090758BF2F467F1E48BFDB
:101120000027BAF1670F14BF4FF0450A4FF0650A68
:1011300004E0BAF1410F08BF4FF0500AB169F368FB
:10114000481CB061012F18F8012B5A5403DA96F8A5
:101150003810090717D5F168431CB36101F80090F6
:10116000012F10DB6D1E2DB2AF42B8BF3D46F068B7
:101170002DB22A464146184400F052F9B0692818A9
:10118000B061781B7062F068B1690144200081F899
:1011900000A004D42B20487001F1020804E02D22A5
:1011A0004A7001F102086442002502AF08E00A22F9
:1011B000684600F039FE019807F8010B6D1C009C91
:1011C00021B20129F3DA022D06DA4AF0200065285F
:1011D00004BF302008F8010B4DB9302008F8010B8E
:1011E00007E06D1E02A8405D303008F8010B012DAC
:1011F000F7DAF068B1690844A8EB0000F06196F8EE
:10120000380000F0140010280DD17069B169081879
:10121000716A0818F1690818B16A0818716B884278
:10122000BCBF081A306206B0BDE8F087F8B50446C6
:101230000D4616461F46002077B116F8011BA86818
:10124000A047A86030B1E86A401CE86200207F1E19
:10125000F3D1F2BD4FF0FF30F2BD000000000000FE
:10126000000000006E616E004E414E00696E660027
:10127000494E46003000F8B504460D4616461F4656
:1012800000F0DAFD3B4632462946204601B0BDE873
:10129000F04000F0E8BD0268531C03601170704715
:1012A0000278C9B28A421AB11CBF10F8012FF9E7BF
:1012B00018BF00207047010200F10103810704D02C
:1012C00010F8011B89B18107FAD10268B2F101312E
:1012D000914311F0803F04BF50F8042FF6E710F857
:1012E000011B11B110F8011BFBE7C01A7047000089
:1012F000C9B2830706D0521E22D310F8013B99428F
:10130000F7D11FE0083A13D302F1040241EA0121A8
:1013100041EA014150F8043B121F21BF4B40A3F1A9
:10132000013C2CEA030C1CF0803FF3D0C9B2001F33
:10133000083210F8013B521E28BF91EA030FF8D87B
:1013400018BF0120401E704780B500F075FD0120D8
:1013500002BD000070B5054605F10F00C408C04687
:10136000C046E400A54232D2082C04D2082402E090
:10137000083000F091F82248026811000CD1011DDC
:101380000A6802B31368A34238BF111DF8D310E0F6
:101390001D68A5420DD2191D0B68002BF8D11268EB
:1013A000011D00E0191D0B6893420CD01D68A54279
:1013B000F8D361B10D682A68A2F10803A3420AD2EA
:1013C0006A680A600FE000F071FD0028D0D1C046C5
:1013D000C046002070BD2B190B60121B6E685E604A
:1013E0000B681A602C60096800291DBF4A68002A32
:1013F000091D00210160C046C04605F1080070BD0E
:101400009814002070B504460D46164600F014FDF1
:10141000324629462046BDE8704000F017BD000066
:1014200062B38B0708D0521E11F8013B00F8013B54
:1014300000F024808B07F6D1830740F0208000BFA6
:10144000103A07D330B4B1E83810103AA0E8381099
:10145000F9D230BC530724BFB1E80810A0E8081047
:1014600044BF51F8043B40F8043BD20724BF31F895
:10147000022B20F8022B44BF0B7803707047083A08
:1014800007D3B1E80810083A40F8043B40F804CB11
:10149000F7D25307E4E7000000B9704738B5A0F170
:1014A00008042068082833D310F0070F30D1C04655
:1014B000C0461848416809B18C4203D2616044605B
:1014C00017E019464B680BB1A342FAD30B68CD184D
:1014D000AC421BD3A54204D12268D2180A600C4644
:1014E00007E04A681AB1236823449A420ED3626027
:1014F0004C60616851B12268A3188B4206D1002369
:10150000036008688018206048686060C046C04674
:1015100031BD0000981400201B4213D1094236D17E
:101520002AB18446B0FBF2F002FB10C2704700F013
:10153000D3BCFCD30022002370470B000200002123
:1015400000207047904271EB030CF6D370B5B1FAEE
:1015500081F4B3FA83F52C1BA340C4F1200532FAC1
:1015600005F63343A2405FF00046E64002E05B0828
:101570005FEA3202841A71EB030524BF2046294634
:101580007641F4D302000B003000002170BD012A27
:10159000CFD970B5140C20D0B1FA81F4B2FA82F52B
:1015A000C4F120046419B4F12006D6D3B2405FF030
:1015B0000044F440002502E052085FEA3303C61AF3
:1015C00071EB020E24BF3046714664416D41F3D386
:1015D00002000B002000290070BD0C46B1FBF2F1A7
:1015E00002FB11452D0445EA1045B5FBF2F402FB60
:1015F000145580B240EA0545B5FBF2F002FB1052EB
:1016000040EA044070BD30B4436803F00042012159
:10161000C3F313034360002B04BF0368002B08D1FE
:101620000DE00368DD0F45EA440444605B0003609D
:10163000491E4468E302F4D5C4F3130343604368CE
:101640001A434260084630BC704700004FF4001C4B
:101650001CEB410F94BF1CEB430F09E041EA030C64
:1016600050EA4C0C52EA0C0C03D2994208BF90424B
:10167000704714BF8B428242704700004FF4001C39
:101680001CEB410F94BF1CEB430F09E041EA030C34
:1016900050EA4C0C52EA0C0C03D28B4208BF824237
:1016A000704714BF994290427047000070B50446DD
:1016B0000D466068C0F30A5040F2FF71884207D1BE
:1016C0006068000304BF2068002817D0022070BDA6
:1016D00020B92046FFF797FF012866DA012D0FDBBE
:1016E00040F2FF71091A8D420AD36068002847BF93
:1016F00000202F4900202F49C4E90001012070BDBE
:101700004142A942616806DA6FF31E51401941EA6D
:101710000050606040E0401E63684519012205F1F9
:10172000350062F31F53352801F00041636003D395
:1017300061600020206070BD002015F11F0F04DAE9
:10174000206823600022203562606A4212D0401E69
:1017500025688041C2F12003C0439D4045EAD07016
:1017600025686668D54006FA03F32B432360636857
:10177000D340636062680A43B0F1004F626003D8EF
:101780000DD12078C0070AD52068401C2060206851
:1017900028B96068401C60604FF0FF3070BD606821
:1017A000884204BF20680028F6D1002070BD00BF29
:1017B0000000F0FF0000F07FF446400D40EAC12039
:1017C000490006D200F014F8004248BF6FF0004014
:1017D000604700F00DF84FF0004188428CBF08468A
:1017E00040426047400D40EAC120490080F00D8032
:1017F00040F00040490DA1F58061491C05D4D1F1AC
:101800001F0154BFC840C01770474FF00000704719
:10181000010040F10980F446404200F005F851F023
:1018200000416047010000BF09D0B0FA80F1884054
:10183000C91CC1F58461090501EBD0214005704741
:10184000F0B44FF0004591EA030F44BF6B4000F045
:1018500045BB00BF841A71EB030604D26E40001B27
:10186000B141121973414FF4001C1CEB410F34BFFE
:101870007CEB430684E00C0DA4EB1356362E7DDC86
:10188000012E43DC45EAC32343EA525312BFD2027E
:1018900092025B08240545EAC12141EA5051D2EB8E
:1018A000C020994125D407D1B0FA80F610FA06F18C
:1018B00064D00020203608E0B1FA81F6B140C6F1CC
:1018C000200220FA02F21143B0404FEAF474B4EB64
:1018D000465434F001064FEA74040AD8D6F50016CF
:1018E000760D04F00044F04061FA06F25040F140F9
:1018F0004840C00A40EA415021F0004128BF5FEA59
:10190000500550F1000044EBD12137E045EAC323F4
:10191000DB0A45EAC121C90AB6F120050EDD42EA1B
:101920000242120CC5F1200603FA06F6EB4042EA29
:1019300006056D42984161F100010DE062FA06F57D
:10194000F240554063FA06FC82EA0C02F3405A402A
:101950006D42904161EB030111F4801F05D1641EBB
:10196000620502D06D004041494121F480114308D5
:1019700075F1004350F1000041EB0451F0BC704799
:101980001CEB410F15D223F0004352EA43060BD063
:101990004FEA4C0CBCEB410F04D80C0D661E342EE4
:1019A000B7DDEBE7801A994150EA410608BF0021F4
:1019B000E4E708BF1CEB430F28BF6FF00001DDE731
:1019C000B0B581EA030C0CF0004C40F2FF7515EA4B
:1019D00011541DBF15EA1357AC42AF4239E0E41968
:1019E00023EA455343F48013C90241F0004141EA20
:1019F000505EC7021100A7FB020200284FF0000052
:101A0000EEFB01204FF00001E3FB072118BF42F07D
:101A10000102401800214941E3FB0E01A4F5806456
:101A20000F0302D252004041494154F101046CDDE0
:101A3000470872F1004250F1000051EB0451A1F54A
:101A400080115CBF41EA0C01B0BD4CEA0551002099
:101A5000B0BD05EA1357AC4214BFAF4241E050EAB3
:101A6000410E1CBF52EA430E02E061460020B0BDA9
:101A700024423C441BD15FEA070EF6D0090302BFA3
:101A800001460020AEF1140EB1FA81F7AEEB070467
:101A900001FA07FE0C37C7F1200100FA07F7C8402A
:101AA0004EEA000E23EA455343F48013A2E733F0D5
:101AB0000043B3FA83F704BFB2FA82FE77440B3FC8
:101AC000E41BB7F1200E2FBF02FA0EF3BB40C7F1A3
:101AD000200E22FA0EFE38BF43EA0E03BA40641C01
:101AE00082E750EA410E14BF52EA430E6FF0000144
:101AF0004FF4001717EB430F8ABF194617EB410F3E
:101B0000B5E74CEA05510020B0BDD4F10104B4F1B1
:101B100020070FDAC4F12007520828BF42F0010263
:101B200010FA07F501FA07F7E1BF2A43E04038430E
:101B3000E1400FE0352C98DCC7F1200452EA400266
:101B400020FA07F218BF42F0010231FA07F0A14073
:101B50000A43002172F1004250F1000051EB0C01E8
:101B6000B0BD00002DE9F04140F2FF7581EA030CA1
:101B70000CF0004C15EA11541DBF15EA1357AC4286
:101B8000AF42E9E0BC41C1F31301C3F31303801A70
:101B9000994143F4801304D2641E400049418018E7
:101BA0005941C90241EA5051B1FBF3F603FB16114A
:101BB000A2FB0675D7EBC020A94102D2761E801881
:101BC0005941C90241EA5051B1FBF3FE03FB1E111A
:101BD000A2FB0E75D7EBC020A94103D2AEF1010ED6
:101BE00080185941890241EA9051760546EA8E2EC5
:101BF000B1FBF3F603FB1611A2FB0675D7EB8020B1
:101C0000A94102D2761E80185941C90241EA5051B9
:101C10004EEA060EB1FBF3F603FB1611A2FB0675A6
:101C2000D7EBC020A94102D2761E80185941C902C3
:101C300041EA5051B1FBF3F703FB1711A2FB073543
:101C4000D3EBC020A94167F100070CBF004247F069
:101C5000010766F3D5274FEA1E31B80814F58064F2
:101C600014DDBD0775F1004250EB0E5051EB0451ED
:101C700011F5801F5CBF41EA0C01BDE8F0814CF01A
:101C80007F6141F0E0410020BDE8F081BD076D08B3
:101C900040EA0E5041F48011D4F10104B4F1200661
:101CA0000ADAC4F120060200E04001FA06F3E1403E
:101CB0001843B24015430EE0342C14DCC6F1200466
:101CC00045EA40056D0820FA06F2154321FA06F0B0
:101CD000A1400D43002175F1004250F1000051EB8D
:101CE0000C01BDE8F08100205FEA0C01BDE8F08145
:101CF000CFB992185B41B3FA83F704BFB2FA82F608
:101D0000BF190B3FB7F120062FBF02FA06F3BB4005
:101D1000C7F1200622FA06F638BF3343BA401CB199
:101D2000E419641E2FE77F4231F00041B1FA81F4DB
:101D300004BFB0FA80F6A4190B3CB4F120062FBF03
:101D400000FA06F1A140C4F1200620FA06F638BFD9
:101D50003143A0403C1B16E7AC421ABF05EA1357BB
:101D6000AF4214E050EA41061CBF52EA4306BFE707
:101D700050EA4107304661461CBF41EA0551BDE8C3
:101D8000F08152EA430C08BFC143BDE8F081002056
:101D90004FF4001616EB410F98BF16EB430F08BF28
:101DA00016EB410F24BFC14305E016EB430F0CBFF8
:101DB00061464CEA0551BDE8F081000080B513484A
:101DC00000F0F6F80FF24C020FF24401016042629B
:101DD00041600FF24402826381600FF24402C160ED
:101DE0000161416181618162C16201634163C263DA
:101DF0000164416401BD10B5044800F0D9F80446FF
:101E0000206808B9FFF7DAFF204610BD080000205F
:101E1000000000002E00000066616C736500000089
:101E2000747275650000000091FBF2F303FB121160
:101E3000C0E900317047000080B5DFF80C0000F009
:101E4000B7F8806902BD00009800002030B430B9B6
:101E50000FF24800D0E90045C2E900451BE00170DF
:101E6000012030BC704730B431B90FF23800D0E9EE
:101E70000045C3E900450EE01AB930BC6FF001001F
:101E8000704708B10A7802800978481E804130BC4A
:101E9000C043C00F7047002030BC704700000000F6
:101EA0000000000000000000000000000749086872
:101EB00008B1002070470648C008C0000860054906
:101EC000C908C900091A0160704700BFFC1400204E
:101ED0000F0500200807002070470000841A71EBEE
:101EE000030603D2001BB141121973414FF4001CC9
:101EF0001CEB410F34BF7CEB430443E00C0DA4EB1F
:101F00001356352E50DC45EAC323DB0A45EAC121CE
:101F1000C912B6F120050DDD63FA05F6EB4086EA3D
:101F20000305124218BF45F00105C01851F1000128
:101F30000CD213E062FA06F5F2405540F3415A40E4
:101F4000B340F3405A408018594107D349085FEA2B
:101F500030005FEA350528BF45F0010501F5801125
:101F6000420875F1004250F1000041EB0451F0BC11
:101F70004FF4001C1CEB410F38BF70470020090DC7
:101F8000090570471CEB410F10D252EA43060BD0F3
:101F9000BCEB410F05D80C0DAB43661E342EB5DDEE
:101FA00002E0AB4380185941F0BC7047F0BC704769
:101FB0007047000070B582B004000025002C05D1E8
:101FC0004FF4B871DFF8980900F035FD206800285B
:101FD00009D0207810F00F0F05D140F27111DFF811
:101FE000800900F028FD2078C00740F195806068E6
:101FF00000280DD06068B0F5803F09D06068B0F56A
:10200000A02F05D040F27711DFF8540900F013FD3E
:10201000DFF81809006810F00C0004280BD0DFF876
:102020000C09006810F00C0008280ED1DFF8FC083D
:102030000068C00309D5DFF8F008006880036BD59D
:102040006068002868D101209FE26068B0F5803F99
:1020500008D1DFF8D408006850F48030DFF8C818E1
:10206000086038E06068002810D1DFF8BC0800681C
:1020700030F48030DFF8B0180860DFF8AC08006892
:1020800030F48020DFF8A018086024E06068B0F524
:10209000A02F10D1DFF89008006850F48020DFF8FE
:1020A00088180860DFF88008006850F48030DFF896
:1020B000781808600FE0DFF87008006830F48030AE
:1020C000DFF864180860DFF86008006830F48020EA
:1020D000DFF854180860606800280ED000F0ACFCEF
:1020E0000500DFF844080068800315D400F0A4FC64
:1020F000401B6528F5D3032047E200F09DFC050056
:10210000DFF824080068800306D500F095FC401B2A
:102110006528F5D3032038E2207880073BD5206975
:10212000002808D02069012805D040F2AB11DFF863
:10213000300800F080FC6069202805D34FF4D67188
:10214000DFF81C0800F077FCDFF8E007006810F00B
:102150000C0F0BD0DFF8D407006810F00C00082833
:102160003FD1DFF8C8070068C0033AD4DFF8B807EA
:102170000068800704D52069012801D0012004E20D
:10218000DFF8A407006830F0F800616950EAC10088
:10219000DFF894170860207800075AD5A069002856
:1021A00008D0A069012805D04FF4F671DFF8B00718
:1021B00000F041FCA069002800F090800120DFF8C9
:1021C000A417086000F038FC0500DFF890070068ED
:1021D00080073BD400F030FC401B0328F5D30320DC
:1021E000D3E1206900281ED00120DFF87C170860A9
:1021F00000F022FC0500DFF830070068800706D4F5
:1022000000F01AFC401B0328F5D30320BDE1DFF8E2
:102210001807006830F0F800616950EAC100DFF883
:1022200008170860B7E70020DFF83C17086000F0E7
:1022300003FC0500DFF8F00600688007ABD500F06E
:10224000FBFB401B0328F5D303209EE1012000F097
:102250006FFB2078400740F1C8800026E068002826
:102260000BD0E068012808D0E068052805D040F2CE
:102270001B21DFF8EC0600F0DEFBDFF8F00600685B
:10228000C0000FD4DFF8E406006850F08050DFF89B
:10229000DC160860DFF8D406006810F0805000906B
:1022A00000980126DFF8C8060068C00529D4DFF8C9
:1022B000C006006850F48070DFF8B416086000F0C3
:1022C000BBFB0500DFF8A8060068C00519D400F0C4
:1022D000B3FB401B6528F5D3032056E10020DFF84F
:1022E0008416086000F0A8FB0500DFF8700600689F
:1022F0008007AED500F0A0FB401B0328F5D30320D8
:1023000043E1E068012808D1DFF86806006850F072
:102310000100DFF86016086037E0E068002810D19F
:10232000DFF85006006840084000DFF848160860F3
:10233000DFF84006006830F00400DFF83816086067
:1023400023E0E068052810D1DFF82806006850F087
:102350000400DFF820160860DFF81806006850F067
:102360000100DFF8101608600FE0DFF808060068CB
:1023700040084000DFF8FC150860DFF8F805006849
:1023800030F00400DFF8EC150860E068002810D099
:1023900000F052FB0500DFF8DC050068800719D467
:1023A00000F04AFB401B41F289318842F3D30320FD
:1023B000EBE000F041FB0500DFF8B805006880079E
:1023C00008D500F039FB401B41F289318842F3D334
:1023D0000320DAE0F6B2012E07D1DFF8900500689D
:1023E00030F08050DFF884150860E06900280BD0D9
:1023F000E069012808D0E069022805D040F2B9213F
:10240000DFF85C0500F017FBE069002800F0BC80F5
:10241000DFF81805006810F00C00082800F0B28002
:10242000E069022840F09B80206A002809D0206AD9
:10243000B0F5803F05D040F2C221DFF8240500F05E
:10244000FAFA606A00283DD0606AB0F5802F39D072
:10245000606AB0F5002F35D0606AB0F5402F31D0FA
:10246000606AB0F5801F2DD0606AB0F5A01F29D03A
:10247000606AB0F5C01F25D0606AB0F5E01F21D0BA
:10248000606AB0F5001F1DD0606AB0F5101F19D04A
:10249000606AB0F5201F15D0606AB0F5301F11D00A
:1024A000606AB0F5401F0DD0606AB0F5501F09D0CA
:1024B000606AB0F5601F05D040F2C321DFF8A004C8
:1024C00000F0B9FA0020DFF8B014086000F0B4FAA8
:1024D0000500DFF854040068800106D500F0ACFA6E
:1024E000401B0328F5D303204FE0206AB0F5803F5E
:1024F00016D1A068002809D0A068B0F5003F05D02B
:1025000040F2D921DFF8580400F095FADFF81C04F6
:10251000006830F40030A1680843DFF81014086048
:10252000DFF80804006830F47410216A0843616A17
:102530000843DFF8F81308600120DFF83C14086056
:1025400000F07AFA0500DFF8E003006880011BD490
:1025500000F072FA401B0328F5D3032015E0002099
:10256000DFF81414086000F067FA0500DFF8B8031C
:102570000068800108D500F05FFA401B0328F5D3FE
:10258000032002E0012000E0002076BD70B50400C9
:102590000D000026002C05D140F22E31DFF8C003DB
:1025A00000F049FA207810F00F0F05D140F22F31DA
:1025B000DFF8AC0300F03FFA002D09D0012D07D061
:1025C000022D05D04FF44C71DFF8940300F033FA7C
:1025D000DFF8A803006810F00700A84211D2DFF866
:1025E0009C030068C008C0002843DFF8901308600F
:1025F000DFF88803006810F00700A84201D001202E
:1026000022E12078800740D52078400707D5DFF801
:102610001C03006850F4E060DFF8101308602078B5
:10262000000707D5DFF80403006850F46050DFF8B6
:10263000FC120860A06800281DD0A06880281AD06D
:10264000A068902817D0A068A02814D0A068B0284F
:1026500011D0A068C0280ED0A068D0280BD0A068E8
:10266000E02808D0A068F02805D040F25631DFF805
:10267000F00200F0E0F9DFF8B402006830F0F0009A
:10268000A1680843DFF8A41208602078C0076BD562
:10269000606800280BD06068012808D060680228B4
:1026A00005D040F25D31DFF8B80200F0C4F960688F
:1026B000012806D1DFF870020068800312D40120DF
:1026C000C2E06068022806D1DFF85C020068800181
:1026D00008D40120B8E0DFF850020068800701D478
:1026E0000120B1E0DFF844020068800880006168E2
:1026F0000843DFF83812086000F09EF906006068B1
:1027000001280FD1DFF82402006810F00C00042823
:102710002AD000F091F9801B41F289318842F1D32F
:10272000032091E0606802280FD1DFF80002006802
:1027300010F00C00082817D000F07EF9801B41F241
:1027400089318842F1D303207EE0DFF8E0010068A0
:1027500010F00C0F08D000F06FF9801B41F28931A6
:102760008842F2D303206FE0DFF81002006810F017
:102770000700854211D2DFF804020068C008C000DB
:102780002843DFF8F8110860DFF8F001006810F066
:102790000700A84201D0012056E02078400720D54C
:1027A000E068002815D0E068B0F5806F11D0E068CF
:1027B000B0F5A06F0DD0E068B0F5C06F09D0E0684B
:1027C000B0F5E06F05D040F2B131DFF8940100F0D0
:1027D00032F95648006830F4E060E1680843534934
:1027E00008602078000720D52069002814D02069CF
:1027F000B0F5806F10D02069B0F5A06F0CD02069C3
:10280000B0F5C06F08D02069B0F5E06F04D04FF488
:102810006E71534800F00FF94448006830F460507E
:10282000216950EAC1004149086000F00EF854499E
:102830003E4A1268C2F30312895CC84046490860E8
:10284000002000F0FFF8002070BD00B585B001A8A1
:102850004C491022FEF7F4FD4B480088ADF800000B
:10286000002000200020002100203048006810F0E7
:102870000C01042902D0082902D016E0354815E0E1
:1028800001A9C0F38342895CC0030AD56846274A80
:102890001268C2F34042805C2E4A5143B1FBF0F013
:1028A00002E03A4800FB01F000E02A4805B000BD14
:1028B00029480068704780B5FFF7FAFF34491B4A82
:1028C0001268C2F3C222895CC84002BD38B5040058
:1028D0000D00002C04D14FF4A661214800F0ABF8A4
:1028E000002D04D140F231511D4800F0A4F80F2012
:1028F00020600E48006810F0030060600B4800681C
:1029000010F0F000A0600948006810F4E060E0609A
:1029100006480068C00810F4E060206117480068AD
:1029200010F00700286031BD001002400410024082
:1029300081B009490968C9084FF47A72B1FBF2F114
:102940004843009000BF0098411E00910028F9D133
:1029500001B0704700127A000400002024100240E9
:10296000C451000880044242000042421C10024050
:1029700000700040201002406000424200200240EF
:10298000A454000894540008B612000800093D0041
:102990000055000880B500F09BF800F009F800F041
:1029A000ABF800F03DF900F0B3F900F042FAFEE7B1
:1029B00000B58FB005A8282100F062FA68461421FE
:1029C00000F05EFA012005905FF480300690002050
:1029D00007900120099002200C905FF480300D9048
:1029E0005FF4E0100E9005A8FFF7E4FA002801D08C
:1029F00000F020F80F2000900220019000200290AB
:102A00004FF4806003900020049002216846FFF795
:102A1000BDFD002801D000F00DF80FB000BD80B55D
:102A200000680349884201D100F02EFA01BD000080
:102A3000002C01407047704701480068704700BF94
:102A4000BC14002000B587B0002100210022010045
:102A5000192000F087FA192000F0A1FA1848006840
:102A600050F40060164908601548006810F40060D2
:102A70000090009801A902A8FFF728FFFFF71BFFAD
:102A800001001048B1FBF0F0411E0F480F4A1060E2
:102A900040F2E7300D4AD0600C48416000200B49FD
:102AA0000861002009498860084800F093FA00286E
:102AB00003D1064800F0F1FA00E0012007B000BDA4
:102AC0001810024040420F00002C0140EC1300207F
:102AD00080B50848006850F01000064908600320DF
:102AE00000F02CFA0020FFF7ADFF00F003FC0020FF
:102AF00002BD00000020024000B585B001A81021F1
:102B000000F0BEF94148006850F010003F490860ED
:102B10003E48006810F01000009000983B480068A4
:102B200050F02000394908603848006810F0200053
:102B3000009000983548006850F004003349086060
:102B40003248006810F00400009000982F48006898
:102B500050F008002D4908602C48006810F008006B
:102B60000090009800224FF42041294800F0ADFD6C
:102B700000221E21274800F0A8FD4FF420400190BC
:102B800001200290002003900220049001A9204817
:102B900000F0DEFB4FF4804001900320029001A979
:102BA0001B4800F0D5FB49F601700190032002900C
:102BB00001A9184800F0CCFB1E20019001200290D2
:102BC000002003900220049001A9124800F0C0FBED
:102BD0004EF6FF7001900320029001A90E4800F00C
:102BE000B7FB4FF4805001900C48029000200390F6
:102BF00001A9094800F0ACFB00220521282000F0C3
:102C0000B1F9282000F0CBF905B000BD1810024042
:102C10000010014000080140000C0140000031108C
:102C200080B53748374908604FF4827035494860AD
:102C300000203449886000203249C86000203149B2
:102C4000086100202F4948614FF400702D498861C8
:102C500038202C49C86100202A49086200202949EF
:102C600048620020274988620A202649C862254810
:102C700000F082FD002801D0FFF7DCFE01BD10B599
:102C800086B0040001A8102100F0FAF820681C4961
:102C9000884233D11C48006850F480501A490860BB
:102CA0001948006810F48050009000981648006899
:102CB00050F00400144908601348006810F0040044
:102CC00000900098A0200190022002900320049020
:102CD00001A90E4800F03CFB40200190002002902A
:102CE0000020039001A9094800F032FB00220521D1
:102CF000232000F037F9232000F051F906B010BD71
:102D000000300140941300201810024000080140D8
:102D100000B58BB005A83A491422FEF791FB0021BB
:102D200005A800F08BF83749086068463649142238
:102D3000FEF786FB0021684600F080F83349086002
:102D40000BB000BD30B5D3B000243148059004204D
:102D500004902F480790102006902D4803900220E1
:102D600002902C48089002A80F900A20019003209E
:102D700000900223012200210FA800F045FF4FF42C
:102D8000FA6210210FA800F0C9FE00E0641C2200C6
:102D9000214909A800F04CFF05004FF4FA62280011
:102DA0000100C9B20FA800F0B9FE4FF4FA632A007F
:102DB000D2B209A90FA800F0F8FE41F2883000F065
:102DC00054F8002CE2D0022C02D0E0D2641CDEE7E2
:102DD0000024DCE780B500224FF400510F4800F0DA
:102DE00074FC4FF47A7000F040F801224FF4005167
:102DF0000A4800F06AFC4FF47A7000F036F8EAE70F
:102E00006C540008A014002080540008A414002072
:102E10000008014094130020C45400080010014031
:102E2000002100B2842802D000B2C01C4118080062
:102E3000704780B501F024F8002002BD3EB50400C3
:102E40000D00B4F90800FFF7EBFF02A90191009013
:102E50002B00226992B22168606800F003FF01280C
:102E600001D0002000E002983EBD80B50121B0FBFA
:102E7000F1F0002800D1012000F0DCFF002002BDAD
:102E8000002201F083BA0000034800680349097872
:102E90000818014908607047BC1400200401002094
:102EA00010F00701DFF8140100684FF6FF02104030
:102EB000434A52EA012108434049086070473F48AD
:102EC0000068C0F302207047012110F01F029140FA
:102ED0003C4A40B2400942F82010704740B20028F6
:102EE00008D50901384A40B210F00F00104400F82C
:102EF000041C03E00901354A40B21154704710B474
:102F000010F00700D0F10703052B01D3042301E0E3
:102F1000D0F10703041D072C01D2002000E0C01EE1
:102F2000012414FA03F35B1E19408140012313FAB4
:102F300000F0401E1040084310BC704710B504005C
:102F4000072C0BD0062C09D0052C07D0042C05D05B
:102F5000032C03D0A2211E48FFF76DFD2000FFF7D0
:102F60009FFF10BD70B504000D0016000020102E4C
:102F700003D3BA211648FFF75EFD102D03D3BB2102
:102F80001348FFF758FDFFF79AFF32002900FFF7BB
:102F9000B6FF0100200040B2FFF7A0FF70BD10B5E2
:102FA000040064B2002C03D5CE210948FFF743FD8D
:102FB000200040B2FFF788FF10BD00000CED00E0DC
:102FC0000000FA0500E100E018ED00E000E400E098
:102FD0000C51000810B50400002C01D101205BE069
:102FE0002068DFF80811884212D02068B0F1804FC5
:102FF0000ED02068DFF8F810884209D02068DFF88A
:10300000F410884204D0D921DFF8EC00FFF713FD5B
:10301000A068002810D0A06810280DD0A068202833
:103020000AD0A068402807D0A068602804D0DA2120
:10303000DFF8C400FFF7FFFC206900280CD02069EE
:10304000B0F5807F08D02069B0F5007F04D0DB2187
:10305000DFF8A400FFF7EFFCA069002807D0A06903
:10306000802804D0DC21DFF89000FFF7E4FC94F81E
:103070003D00002805D1002084F83C00200000F02D
:1030800037F9022084F83D00211D206800F0F3F894
:10309000012084F83D00002010BD10B50400206818
:1030A000DFF84810884213D02068B0F1804F0FD06D
:1030B0002068DFF83C1088420AD02068DFF834101E
:1030C000884205D040F26111DFF83000FFF7B3FC11
:1030D0002068C06850F001002168C860206800685E
:1030E00050F0010021680860002010BD002C014054
:1030F0000004004000080040D8520008D8520008E0
:1031000010B504002068006980071AD52068C068DF
:10311000800716D57FF00200216808610120207722
:103120002068806910F0030F03D0200001F047F9F8
:1031300005E0200001F044F9200001F042F90020F0
:1031400020772068006940071AD52068C0684007CA
:1031500016D57FF0040021680861022020772068DE
:10316000806910F4407F03D0200001F028F905E0C9
:10317000200001F025F9200001F023F9002020773C
:103180002068006900071AD52068C068000716D5B6
:103190007FF0080021680861042020772068C0695A
:1031A00010F0030F03D0200001F009F905E0200022
:1031B00001F006F9200001F004F9002020772068D2
:1031C0000069C0061AD52068C068C00616D57FF011
:1031D000100021680861082020772068C06910F479
:1031E000407F03D0200001F0EAF805E0200001F064
:1031F000E7F8200001F0E5F800202077206800695A
:10320000C0070AD52068C068C00706D57FF0010056
:10321000216808612000FFF702FC206800690006B1
:103220000AD52068C068000606D57FF080002168B6
:103230000861200001F0C6F82068006940060AD540
:103240002068C068400606D57FF04000216808610C
:10325000200001F0B8F82068006980060AD52068CF
:10326000C068800606D57FF0200021680861200034
:1032700001F0AAF810BD00220268DFF87030984211
:1032800008D0B0F1804F05D0164B984202D0164BB3
:10329000984203D132F070024B681A43DFF84C3089
:1032A000984208D0B0F1804F05D00E4B984202D022
:1032B0000D4B984203D132F44072CB681A4332F07E
:1032C00080024B691A4302608A68C2620A6882629D
:1032D000DFF81820904201D10969016301214161A1
:1032E000704700000004004000080040002C01402E
:1032F0007047000080B51348006850F00100114984
:1033000008601048006810F00100009000980E4816
:10331000006850F080500C4908600B48006810F0BD
:1033200080500090009800220F217FF00100FFF7ED
:1033300019FE0648006830F0E06050F00070034964
:10334000086001BD181002401C100240040001403A
:103350002DE9F84380460C005FF0000900260020AC
:1033600000270021DFF8C003804514D0DFF8BC033C
:10337000804510D0DFF8B80380450CD0DFF8B403E7
:10338000804508D0DFF8B003804504D0CD21DFF8B8
:10339000AC03FFF750FB2068000404D02068000C49
:1033A0000004002804D0CE21DFF89003FFF743FB90
:1033B0006068002831D0606801282ED0606811282C
:1033C0002BD06068022828D06068122825D0606859
:1033D000DFF86C13884220D06068DFF868138842F9
:1033E0001BD06068DFF86013884216D06068DFF891
:1033F0005C13884211D06068DFF8541388420CD007
:103400006068DFF85013884207D06068032804D052
:10341000CF21DFF82803FFF70EFB002507E0DFF8D8
:1034200038030068B043DFF8301308606D1C102DBE
:1034300080F03581012010FA05F9206819EA0006AC
:103440004E45F3D1DFF8E002804514D0DFF8DC020E
:10345000804510D0DFF8D80280450CD0DFF8D402C8
:10346000804508D0DFF8D002804504D0DD21DFF8A8
:10347000CC02FFF7E0FA6068002868D0012821D06C
:10348000022840D0032800F0818011282AD0122879
:103490004BD0DFF8AC12884259D0DFF8B012884226
:1034A00055D0DFF8A012884251D0DFF8A41288422C
:1034B0004DD0DFF89412884249D0DFF89812884244
:1034C00045D065E0E06802280AD0E068012807D00E
:1034D000E068032804D0E521DFF86002FFF7ABFACB
:1034E000E76855E0E06802280AD0E068012807D0C4
:1034F000E068032804D0EC21DFF84002FFF79BFAD4
:10350000E068071D44E0E06802280AD0E06801286E
:1035100007D0E068032804D0F321DFF82002FFF78A
:103520008AFAE06810F1080732E0E06802280AD061
:10353000E068012807D0E068032804D0FA21DFF80A
:10354000FC01FFF778FAE06810F10C0720E0A068B2
:1035500000280BD0A068012808D0A068022805D058
:1035600040F20711DFF8D401FFF765FAA0680028E0
:1035700001D1042709E0A068012803D10827C8F871
:10358000109002E00827C8F8149001E00027FFE738
:10359000FF2E01D8404601E018F10400FF2E01D8AB
:1035A000A90002E0B5F10801890002680F238B40F1
:1035B0009A4317FA01F1114301606068C0007FF57A
:1035C00035AFDFF89801006850F00100DFF88C118A
:1035D0000860DFF88801006810F001000090009892
:1035E000DFF87C01A90850F821000F2115F0030233
:1035F000D2B29200914088434B49884501D10021C5
:103600000FE04A49884501D101210AE0484988452F
:1036100001D1022105E04749884501D1032100E09D
:10362000042115F00302D2B29200914008434C49A4
:10363000AA0841F822006068C00305D5494800681F
:1036400030434849086004E046480068B0434549B3
:1036500008606068800305D54348006830434249EC
:10366000086004E040480068B0433F490860606873
:10367000C00205D53D48006830433C49086004E07D
:103680003A480068B04339490860606880027FF5B5
:10369000C6AE3148006830432F490860C6E6BDE831
:1036A000F18338B504000D00ADB2002D04D140F215
:1036B000C3112248FFF7BFF9A068ADB2284201D07C
:1036C000012000E00020C0B232BD70B504000D0042
:1036D0001600ADB2002D04D140F2E3111748FFF7F8
:1036E000AAF9F6B2002E07D0F6B2012E04D04FF49C
:1036F000F2711248FFF79FF9F6B2002E02D0ADB278
:10370000256102E0ADB22804206170BD80B5184982
:10371000096880B2014205D080B21549086080B2C4
:1037200000F028F801BD000000080140000C014035
:1037300000100140001401400018014068510008C9
:1037400000001110000021100000311000001210C4
:1037500000002210000032100C040140181002403A
:103760000800014000040140040401400804014035
:10377000140401407047000010B50400002C01D172
:103780000120B7E020685C49884207D020685B4987
:10379000884203D06B215A48FFF74DF96068002832
:1037A00007D06068B0F5827F03D06C215448FFF7E2
:1037B00042F9A06800280BD0A068B0F5806F07D050
:1037C000A068B0F5004F03D06D214D48FFF733F9E5
:1037D000E068B0F5006F06D0E068002803D06E21E5
:1037E0004748FFF728F92069002806D020690228F9
:1037F00003D06F214248FFF71EF96069002806D008
:103800006069012803D070213D48FFF714F9A069D1
:10381000B0F5007F0AD0A069002807D0A069B0F5F4
:10382000802F03D071213648FFF705F9E0690028A1
:1038300018D0E069082815D0E069102812D0E06996
:1038400018280FD0E06920280CD0E069282809D07A
:10385000E069302806D0E069382803D07221284872
:10386000FFF7E9F8206A002806D0206A802803D0F4
:1038700073212348FFF7DFF80020A06294F851007D
:10388000002802D12000FFF7FAF9022084F8510045
:103890002068006830F04000216808606068A16816
:1038A0000843E16808432169084361690843A16945
:1038B00011F400710843E1690843216A0843A16AD1
:1038C000084321680860A069000C10F00400616AD8
:1038D000084321684860E06A216808612068C0697F
:1038E00030F400602168C86100206065012084F820
:1038F0005100002010BD00BF0030014000380040E2
:103900007C52000838B50400C9B2206800F05DFDA3
:10391000206800F06DFD05000121206800F086FDA3
:103920002800C0B232BD70B504000D0016000021A1
:10393000206800F07BFD55F08001C9B2206800F0DE
:1039400044FD3100C9B2206800F03FFD012120682C
:1039500000F06CFD70BDF8B504000D0016001F00EE
:10396000FFB2022F1BDB0021206800F05FFD55F045
:103970008001C9B2206800F028FD002505E0EDB205
:10398000715D206800F021FD6D1C28003900C0B277
:10399000C9B28842F3D30121206800F047FDF1BD90
:1039A00080B5C179009183794279017900F001F8FD
:1039B00001BDF8B504000E0017001D00200000F046
:1039C00097F80F2000F03FFD200000F09BF8032344
:1039D0003E48F6B2032101FB06F100EB010206218D
:1039E0002000FFF7B8FF3A48FFB2C25D092120006E
:1039F000FFF799FF0B220B212000FFF794FF2322F2
:103A00000C212000FFF78FFF06983249EDB2495D87
:103A1000062929D13049C0B2085C0001C01C02004F
:103A2000D2B21D212000FFF77EFF2A48EDB2405D93
:103A30000001C01D0200D2B21E212000FFF773FF5B
:103A400031212000FFF75EFF10F0F80050F0050074
:103A50000200D2B231212000FFF765FF0C2237218E
:103A60002000FFF760FF15E01B49C0B2085C0001B1
:103A7000801C0200D2B21D212000FFF754FF154820
:103A8000EDB2405D0001C01D0200D2B21E21200037
:103A9000FFF749FFFF221F212000FFF744FF00220C
:103AA00020212000FFF73FFF0C2221212000FFF7FB
:103AB0003AFF012241212000FFF735FF002084F862
:103AC0000A01200000F00AF8F1BD000014550008BA
:103AD00018550008F8540008D054000810B5040028
:103AE000092201212000FFF71EFF0120607210BD96
:103AF00010B50400082201212000FFF714FF002068
:103B0000607210BD80B588220121FFF70CFF01BD56
:103B100080B5FF221221FFF706FF01BD70B504003A
:103B20000D00160025722000FFF73AFF87224D2175
:103B30002000FFF7F8FE002224212000FFF7F3FE0B
:103B4000412240212000FFF7EEFE2000FFF7E0FFBA
:103B5000F72211212000FFF7E6FE2A00D2B222212F
:103B60002000FFF7E0FE0E212000FFF7CBFE020051
:103B7000D2B20D212000FFF7D6FE22212000FFF750
:103B8000C1FE2900C0B2C9B2884203D102206072CE
:103B9000012009E0761E002EEFD1206800F057FCCE
:103BA0002000FFF7FDFE002070BD38B504001D00A9
:103BB0001300DBB20A0000212000FFF7CCFE8B22AD
:103BC00001212000FFF7AFFE02E0012000F03BFCE6
:103BD000206800F057FC00280BD012212000FFF7CE
:103BE00091FE2000FFF794FF2000FFF777FF0120F0
:103BF00009E06D1E002DE8D1206800F028FC2000AF
:103C0000FFF7CEFE002032BDF8B504000D0016000F
:103C10001F00206800F043FC25716671A7710698AB
:103C2000E071079820722000FFF7BAFEF1BD000096
:103C30000CB41CB5044604A801900A46009401ABDC
:103C40006946074878441830FCF750FA009A00217A
:103C5000117000285CBF0098001B16BC5DF80CFBBF
:103C600037D6FFFF2DE9F04385B004000D001600A4
:103C70001F00B6B2B00000F021FC8146B9F1000F80
:103C80000DD0542000F01AFC8046B8F1000F02D08D
:103C9000C8F8309005E0484600F096FC01E05FF07F
:103CA0000008B8F1000F13D000200390CDF8088071
:103CB0000D9801900C9800903B00B6B2320029009C
:103CC000200000F00AF8404600F058F8012001E01A
:103CD0005FF0FF3005B0BDE8F0832DE9F04105004D
:103CE0001E00089C206B00EB8200071FFF08FF00EE
:103CF00017F00700002807D0502080F31188BFF389
:103D00004F8FBFF36F8FFEE7002000E0401C1028AC
:103D100007D20A5C04EB000383F834200A5C002A13
:103D2000F4D1002084F84300DDF81880B8F1070FC3
:103D300001D35FF00608C4F82C80C4F8448000204A
:103D4000A064201D00F0F9FC14F1180000F0F5FC4F
:103D50002461D8F10700A06164620020E0640020C3
:103D600084F8500032002900380000F023FD206064
:103D70000798002800D00460BDE8F08110B5040069
:103D800000F081FDDFF818040068401CDFF8101413
:103D90000860DFF81004006800280AD1DFF8040486
:103DA0000460DFF8FC030068012811D100F0FEF97F
:103DB0000EE0DFF8F4030068002809D1E06ADFF8BC
:103DC000E4130968C96A884202D3DFF8D8030460A3
:103DD000DFF82C040068401CDFF824140860DFF8CA
:103DE000240400680121E26A91400843DFF81414BA
:103DF0000860211DDFF86C04E26A14235A43104462
:103E000000F09EFC00F05CFDDFF89C0300680028D9
:103E10000FD0DFF890030068C06AE16A884208D2D8
:103E20005FF08050DFF88C140860BFF34F8FBFF352
:103E30006F8F10BD10B504000020002C14D0DFF8E7
:103E400070040068002807D0502080F31188BFF369
:103E50004F8FBFF36F8FFEE700F045F80021200081
:103E600000F03CFA00F047F8002808D15FF08050DD
:103E7000DFF848140860BFF34F8FBFF36F8F10BD9A
:103E800000B583B0DFF838040190002000900023D3
:103E90008022DFF830140FF2E520FFF7E3FE01285F
:103EA00016D1502080F31188BFF34F8FBFF36F8F6F
:103EB0005FF0FF30DFF8101408600120DFF8E8122F
:103EC00008600020DFF80814086000F098FC07BDC7
:103ED00010F1010FFBD1502080F31188BFF34F8FF9
:103EE000BFF36F8FFEE7DFF8C8030068401CDFF800
:103EF000C0130860704738B500250024DFF8B00310
:103F00000068002807D1502080F31188BFF34F8F3D
:103F1000BFF36F8FFEE700F0B6FCDFF89403006894
:103F2000401EDFF88C130860DFF884030068002867
:103F30005AD1DFF86C020068002829D154E0DFF87C
:103F40008C03C068C56815F1180000F020FC281D1E
:103F500000F01DFCDFF8AC0200680121EA6A914024
:103F60000843DFF8A0120860291DDFF8F802EA6AAA
:103F700014235A43104400F0E3FBE86ADFF82412EC
:103F80000968C96A884203D30120DFF8D0130860AA
:103F9000DFF8380300680028D1D1002D01D000F0EF
:103FA0006CF9DFF830030568002D0ED000F020F822
:103FB000002803D00120DFF8A41308606D1E002D37
:103FC000F4D10020DFF80C130860DFF890030068DC
:103FD000002809D001245FF08050DFF8E01208606B
:103FE000BFF34F8FBFF36F8F00F06AFC200032BD2C
:103FF00070B50024DFF8B8020068002878D1DFF837
:10400000D0020068451CDFF8C8020560002D22D1EF
:10401000DFF8C40200680068002807D0502080F351
:104020001188BFF34F8FBFF36F8FFEE7DFF8A80251
:104030000068DFF838130968DFF89C221160DFF8A8
:104040002C130860DFF828030068401CDFF82013F9
:10405000086000F012F9DFF87002006885423BD377
:1040600023E0301D00F093FBB06A002803D016F166
:10407000180000F08CFBDFF88C0100680121F26A67
:1040800091400843DFF87C110860311DDFF8D4014E
:10409000F26A14235A43104400F052FBF06A41497B
:1040A0000968C96A884200D30124DFF82C0200683D
:1040B0000068002805D15FF0FF30DFF80C120860BF
:1040C0000AE0DFF814020068C068C66870688542BC
:1040D000C7D2DFF8F4110860DFF8880131490968B8
:1040E000C96A142251434058022808D3012406E02B
:1040F000DFF8E0010068401CDFF8D8110860DFF845
:104100005C020068002800D00124200070BDDFF8A8
:10411000A0010068002804D00120DFF840120860E8
:104120002BE00020DFF83412086036480068B0FA4F
:1041300080F0D0F11F004B49142202FB00F2895895
:10414000002907D1502080F31188BFF34F8FBFF3B0
:104150006F8FFEE743491422504308444168496881
:104160004160416810F10802914202D141684968FA
:1041700041604068C0680B490860704780B500F036
:1041800043F8384800680228F9D35FF08050DFF820
:104190002C110860BFF34F8FBFF36F8FEFE7000064
:1041A000D0140020C0140020DC14002010B500241E
:1041B00007E02C48142101FB04F1084400F0AEFA9A
:1041C000641C072CF5D3DFF8AC0100F0A7FADFF888
:1041D000A80100F0A3FADFF8F40000F09FFA3248DB
:1041E00000F09CFA344800F099FADFF88801DFF813
:1041F000E8100860DFF88001DFF87011086010BD7A
:10420000EC140020D814002010B51DE00024FFF7A6
:1042100072FE002C18D100F036FB2348C068C46839
:10422000201D00F0B4FADFF83C010068401EDFF802
:10423000341108601D480068401E1C49086000F0E9
:104240003FFB200000F010F818480068002807D055
:10425000FFF749FE144800680028D7D10124D6E7AB
:1042600010BD00000813002010B50400206B00F002
:10427000ABF9200000F0A8F910BDDFF85C00006881
:104280000068002805D15FF0FF30DFF83C100860BF
:1042900008E0DFF844000068C068C0684068DFF8E4
:1042A000281008607047000068140020CC1400201B
:1042B000F814002004ED00E07C14002004ED00E080
:1042C000F414002008550008F014002054140020B5
:1042D000D4140020E0140020C414002070B50400A1
:1042E0000D001F48066820480068001D00F04FFAC6
:1042F00000280BD11C480068204909680122C06AC7
:1043000012FA00F031EA00001C49086014F1010FB4
:1043100008D1002D06D014480068011D184800F08F
:104320000FFA1AE0A419104800684460B44207D29A
:104330000D480068011D0D48006800F00DFA0CE002
:1043400009480068011D0F48006800F005FA0E4892
:104350000068844201D20C48046070BDE41400205F
:10436000D4140020D0140020C0140020C814002051
:10437000E81400202C14002040140020D814002041
:104380007C140020C4140020F014002000B500BFED
:10439000130096469446103928BFA0E80C50FAD86E
:1043A0005FEA417C28BF0CC048BF40F8042BC90716
:1043B00028BF20F8022B48BF00F8012B00BD704732
:1043C0007047704770477047704713B5040000216D
:1043D000200000F02BF84FF47A73012201A9A069A4
:1043E00000F0BCFAA06900F029FD0128FAD113BD44
:1043F0001CB5040000208DF8050000208DF8040095
:104400000021200000F012F84FF47A700090012390
:1044100001AA0DF10501A06900F07EFBA06900F082
:104420000DFD0128FAD19DF8040016BD80B50129C3
:1044300001D1012200E00022D2B2016989B24069B3
:10444000FFF743F901BD80B500F06CFD01BD10B56B
:10445000040001212000FFF7E9FF0022206801008D
:1044600089B26068FFF731F90120FFF7ECFF012204
:104470002068010089B26068FFF727F96420FFF720
:10448000E2FF10BD80B5816889B2C068FFF709F905
:10449000012801D1012000E00020C0B202BD10B50A
:1044A000040001212000FFF7C1FF01222068010064
:1044B00089B26068FFF709F910BD000070B505000A
:1044C0000024FFF710FD8E480068002801D100F09D
:1044D000B6F88C480068054266D1002D15D08A4890
:1044E0000068451915F0070F0FD015F1080015F0F9
:1044F0000701451A15F0070F07D0502080F31188E7
:10450000BFF34F8FBFF36F8FFEE7002D4CD07F4876
:104510000068A84248D37E487D490E6801E030001B
:1045200036687168A94202D231680029F7D174490E
:1045300009688E4238D00168734A126801EB0204A0
:10454000316801607048006840007168491B88420A
:1045500013D206EB050010F00701002907D0502008
:1045600080F31188BFF34F8FBFF36F8FFEE7716841
:10457000491B4160756000F094F8644800687168F8
:10458000401A6249086061480068624909688842C7
:1045900003D25E4800685F4908607068594909683D
:1045A0000843706000203060FFF7A5FC14F007009E
:1045B000002807D0502080F31188BFF34F8FBFF33E
:1045C0006F8FFEE7200070BD10B50400002C35D0C1
:1045D0004D4800684042044460684A4909680842FE
:1045E00007D1502080F31188BFF34F8FBFF36F8F37
:1045F000FEE72068002807D0502080F31188BFF321
:104600004F8FBFF36F8FFEE760683E49096808422D
:1046100014D02068002811D160683A49096888439D
:104620006060FFF760FC3948006861680818374926
:104630000860200000F035F8FFF75DFC10BD4FF476
:104640004062354911F0070F05D0C91DC908C900DE
:10465000501A314A121808002D49086000212C4BCD
:1046600059601118284A1268891AC908C900244AD1
:1046700011600022224B1B685A600022204B1B68ED
:104680001A60091A41601E49096801604168214A9F
:10469000116040681D4908605FF0004019490860DA
:1046A00070471B4900E009680A688242FBD30A0090
:1046B0004B681A44824204D14A68406880184860B6
:1046C0000800020043681A440B689A4211D10A6834
:1046D0000B4B1B689A4208D042680B685B689A18BB
:1046E00042600A681268026005E0054A12680260CA
:1046F00001E00A680260814200D008607047000053
:10470000A8140020B414002010550008AC14002098
:1047100090140020B01400200807002010F10801B8
:1047200041605FF0FF31816010F10801C16010F15C
:10473000080101610021016070470021016170479B
:1047400042684A6093688B60936859609160086121
:104750000168491C0160704710B40B6813F1010F28
:1047600001D1026907E010F1080200E052685468C4
:104770002468A342FAD253684B604B6899608A6000
:10478000516008610168491C016010BC70470169F3
:10479000826843689A60426883685A604A688242C5
:1047A00001D182684A60002202610868401E0860E8
:1047B00008687047001F5FF080730360001F49089E
:1047C00049000160001F0FF20D0101601438026002
:1047D000203870475148006810F1010F07D0502071
:1047E00080F31188BFF34F8FBFF36F8FFEE7502028
:1047F00080F31188BFF34F8FBFF36F8FFEE700B5D3
:1048000083B0474801780191FF21017001788DF84C
:1048100000109DF8001011F05001424A117007215C
:10482000414A116009E040490968491E3E4A116049
:104830009DF8001049008DF800109DF80010090641
:10484000F1D4394909680902374A116036490968C3
:1048500011F4E061344A1160019901703348006835
:1048600050F47000314908603048006850F07040E2
:104870002E49086000F05EF800202849086000F02A
:1048800098FB00200EBD502080F31188BFF34F8F9E
:10489000BFF36F8F21480068401C204908601F4803
:1048A000006801280BD122480068000607D050207C
:1048B00080F31188BFF34F8FBFF36F8FFEE7704710
:1048C00016480068002807D1502080F31188BFF3F4
:1048D0004F8FBFF36F8FFEE710480068401E0F49EF
:1048E00008600E480068002802D1002080F311887B
:1048F000704780B5502080F31188BFF34F8FBFF30E
:104900006F8FFFF775FB002803D05FF080500849D8
:104910000860002080F3118801BD00000000002025
:1049200000E400E000150020B814002020ED00E0B5
:1049300004ED00E0064800684FF47A71B0FBF1F036
:10494000401E04490860072003490860704700BF03
:104950000400002014E000E010E000E02DE9F8433E
:1049600004000E00170098465FF000090025A068BB
:10497000002809D0A068B0F5004F05D04FF4E171D0
:10498000DFF8BC03FEF757F894F85000012801D176
:104990000220BFE0012084F85000FEF74DF8814668
:1049A00094F85100012801D00225ABE0002E02D07E
:1049B000BFB2002F01D10125A4E0032084F85100EB
:1049C000002060652663A786E7860020A06300209C
:1049D000A0870020E0870020606400202064A06899
:1049E000B0F5004F05D12068006850F48040216880
:1049F000086020680068400605D42068006850F010
:104A0000400021680860E068B0F5006F29D1606857
:104A1000002802D0E08E01280ED130882168C860BD
:104A2000B61CE08E401EE08606E030882168C86033
:104A3000B61CE08E401EE086E08E00283BD0206849
:104A400080688007F1D4B8F1000F08D018F1010F89
:104A5000F2D0FDF7F1FFB0EB09004045ECD30325A0
:104A600050E06068002802D0E08E01280ED1307836
:104A700021680873761CE08E401EE08606E03078E0
:104A800021680873761CE08E401EE086E08E0028C8
:104A900011D0206880688007F1D4B8F1000F08D0E9
:104AA00018F1010FF2D0FDF7C7FFB0EB0900404548
:104AB000ECD3032526E0CDF80090434601220221E5
:104AC000200000F0C9F9002801D003251AE04A4669
:104AD0004146200000F011FA002803D001252020D3
:104AE00060650FE0A068002808D1002000902068D1
:104AF000C06800902068806800900098606D002871
:104B000000D00125012084F85100002084F85000D5
:104B10002800C0B2BDE8F2832DE9F04782B004005E
:104B20000E0017009A46002000215FF000095FF098
:104B300001080025A068002805D040F24131DFF8C7
:104B40000002FDF778FF94F85000012801D10220FF
:104B5000F3E0012084F85000FDF76EFF814694F8E1
:104B600051006168012809D0B1F5827F04D1A168A4
:104B7000002901D1042801D00225D6E0002E06D05C
:104B8000002F04D01FFA8AFABAF1000F01D10125D3
:104B9000CBE094F85100012802D1052084F851009F
:104BA00000206065A763A4F83EA0A4F83CA026639B
:104BB000A4F836A0A4F834A000202064002060648B
:104BC00020680068400605D42068006850F0400066
:104BD00021680860DDF828A0E068B0F5006F40D1DA
:104BE0006068002802D0E08E012806D13088216854
:104BF000C860B61CE08E401EE086E08E002802D120
:104C0000E08F00286ED0B8F1000F0FD0E08E0028A2
:104C10000CD020688068800708D530882168C8607B
:104C2000B61CE08E401EE0865FF00008E08F002892
:104C30000CD020688068C00708D52068C06838801C
:104C4000BF1CE08F401EE0875FF001081AF1010FE2
:104C5000D3D0FDF7F1FEB0EB09005045CDD30325CD
:104C600063E06068002802D0E08E012806D1307829
:104C700021680873761CE08E401EE086E08E0028D6
:104C800002D1E08F00282DD0B8F1000F0FD0E08EB8
:104C900000280CD020688068800708D5307821680B
:104CA0000873761CE08E401EE0865FF00008E08FFF
:104CB00000280CD020688068C00708D52068C0682C
:104CC00038707F1CE08F401EE0875FF001081AF10A
:104CD000010FD3D0FDF7B0FEB0EB09005045CDD3A6
:104CE000032522E0CDF80090534601220221200046
:104CF00000F0B2F8002801D0032516E04A465146DC
:104D0000200000F0FAF8002803D00125202060657B
:104D10000BE0A068002808D1002000902068C0683F
:104D200000902068806800900098012084F851006D
:104D3000002084F850002800C0B2BDE8F6870000CB
:104D40002052000810B582B0040020684068216835
:104D5000896811F04102012A05D1420603D52000DD
:104D6000216C884769E08A0705D5020603D5200033
:104D7000616C884761E011F0600F5ED082065CD5FF
:104D80004A0610D594F85120032A48D0626D52F09B
:104D900004026265002200922268D26800922268B2
:104DA00092680092009A89060FD5616D51F0010159
:104DB0006165002100912168896800912168096876
:104DC00031F04001226811600099616D002933D0F3
:104DD0002168496831F0E00122685160012184F8BE
:104DE000511010F0030F24D0206840688008800024
:104DF00021684860E06C002806D00FF24900E16CA1
:104E00004863E06C00F0E6F8A06C002814D00FF2C4
:104E10003500A16C4863A06C00F0DCF80CE00020C9
:104E200000902068C068009020688068009000981A
:104E300003E0200000F034F9FFE713BD90F85100C3
:104E40007047000080B5406A0021C1870021C186FB
:104E500000F026F901BD00002DE9F04104000D002D
:104E600016001F00DDF81880206880682840A842DE
:104E700001D1012000E00020B0423BD017F1010F2A
:104E8000F2D0002F05D0FDF7D7FDB0EB0800B842F7
:104E9000EAD32068406830F0E0002168486060682C
:104EA000B0F5827F0DD1A068B0F5004F03D0A068A7
:104EB000B0F5806F05D12068006830F040002168AF
:104EC0000860A06AB0F5005F0CD1206800684DF65C
:104ED000FF710840216808602068006850F40050A5
:104EE00021680860012084F85100002084F85000F7
:104EF000032000E00020BDE8F08110B582B004007E
:104F000000920B00002280212000FFF7A5FF00285F
:104F100005D0606D50F020006065032000E00020A7
:104F200016BD000038B50400FDF786FD050014F13C
:104F3000010F02D0044800780419FDF77DFD401BE5
:104F4000A042FAD331BD00BF04010020EFF3098075
:104F5000BFF36F8F1D4B1A6820E9F00F106008B582
:104F60004FF0500080F31188BFF34F8FBFF36F8F66
:104F7000FFF7CDF84FF0000080F31188BDE808403E
:104F800019680868B0E8F00F80F30988BFF36F8FE5
:104F900070470E4B19680868B0E8F00F80F3098875
:104FA000BFF36F8F4FF0000080F311884EF00D0EAD
:104FB000704707480068006880F3088862B661B6E9
:104FC000BFF34F8FBFF36F8F00DF0000C0140020CE
:104FD00008ED00E010B5002490F82110022903D05C
:104FE00004218163012449E00168096831F00E0160
:104FF0000268116001680968490849000268116087
:105000000168DFF88020914201D1012128E0016888
:10501000DFF87420914201D1102121E00168DFF80E
:105020006C20914202D14FF4807119E00168DFF8E1
:105030006020914202D14FF4805111E00168DFF805
:105040005420914202D15FF4803109E00168DFF819
:105050004820914202D15FF4801101E05FF080713D
:10506000DFF838201160012180F82110002180F83C
:105070002010416B002901D0416B88472000C0B24D
:1050800010BD0000080002401C0002403000024039
:1050900044000240580002406C00024004000240FC
:1050A000704700001348006850F001001149086083
:1050B00011480068114908400F4908600D48006810
:1050C0000F4908400B4908600A48006830F4802006
:1050D000084908600848006830F4FE000649086086
:1050E0005FF41F00074908605FF000600649086030
:1050F0007047000000100240041002400000FFF85A
:10510000FFFFF6FE0810024008ED00E0433A5C5550
:10511000736572735C4D725A616E675C4941525F90
:1051200070726A5C76656E74696C6174696F6E5CCE
:10513000447269766572735C53544D3332463178EC
:10514000785F48414C5F4472697665725C53726364
:105150005C73746D3332663178785F68616C5F635D
:105160006F727465782E6300433A5C557365727391
:105170005C4D725A616E675C4941525F70726A5C45
:1051800076656E74696C6174696F6E5C4472697681
:105190006572735C53544D3332463178785F4841C1
:1051A0004C5F4472697665725C5372635C73746DB4
:1051B0003332663178785F68616C5F6770696F2E33
:1051C00063000000433A5C55736572735C4D725A1C
:1051D000616E675C4941525F70726A5C76656E749D
:1051E000696C6174696F6E5C447269766572735C38
:1051F00053544D3332463178785F48414C5F4472A6
:10520000697665725C5372635C73746D33326631B8
:1052100078785F68616C5F7263632E6300000000E2
:10522000433A5C55736572735C4D725A616E675C8C
:105230004941525F70726A5C76656E74696C617424
:10524000696F6E5C447269766572735C53544D335A
:1052500032463178785F48414C5F447269766572B6
:105260005C5372635C73746D3332663178785F6857
:10527000616C5F7370692E6300000000433A5C55F7
:10528000736572735C4D725A616E675C4941525F1F
:1052900070726A5C76656E74696C6174696F6E5C5D
:1052A000447269766572735C53544D33324631787B
:1052B000785F48414C5F4472697665725C537263F3
:1052C0005C73746D3332663178785F68616C5F73DC
:1052D00070695F65782E6300433A5C55736572733D
:1052E0005C4D725A616E675C4941525F70726A5CD4
:1052F00076656E74696C6174696F6E5C4472697610
:105300006572735C53544D3332463178785F48414F
:105310004C5F4472697665725C5372635C73746D42
:105320003332663178785F68616C5F74696D2E63C3
:105330000000000019E050F8041BCB0744BFA9F19E
:1053400001035918121F0023042A41F8043BF9D223
:105350005FEA827C0B4604D54FF0000CA1F800C038
:105360009B1CD10744BF0021197050F8042B002A60
:10537000E1D1704730B5016842688468014401EBAF
:105380005203D20748BF4C44994201D10C3030BD82
:1053900011F9012B11F8015B002A04F8015B02D519
:1053A000521CF9D1F0E7521EF4D5EDE77047FEE745
:1053B000FEE7FEE7FEE7704780B50448FDF7A0FE74
:1053C00001BD80B50248FFF7BDFC01BDEC13002014
:1053D0009413002080B54FF48050FEF797F901BD7B
:1053E00010B5074979441831064C7C44163404E062
:1053F0000A68081D114488470146A142F8D110BD32
:1054000008000000240000002DFFFFFFFC0D00003D
:1054100008070020000000005DFFFFFFA001000062
:105420002A0000000000002000F00BF8002801D046
:10543000FFF7D6FF0020C046C046FDF7ABFA00F0EC
:1054400002F80120704700F001B800000746384616
:1054500000F002F8FBE7000080B5C046C046024AF3
:1054600011001820ABBEFBE726000200E85400083C
:10547000452D00080100000000000000B4000000FD
:10548000F0540008D52D00080000000000000000C6
:105490008000000002030405060708090A0B0C0D32
:1054A0000E0F1010000000000000000001020304B5
:1054B000060708090148804701480047A550000831
:1054C000DD54000853706565643A256400000000EF
:1054D000000102030405060708090000C046C04693
:1054E000C046C046FFF7A0FF4C6F526100000000AD
:1054F0006D6375576F726B00060708090A0B0C0085
:10550000000000000102030449444C450000000073
:10551000080000006C800000FFFCF9F6FFF7FEBFFA
:10552000FFF7FEBFFFF7FEBFFFF7FEBFFFF7FEBFAF
:10553000FFF7FEBFFFF7FEBFFFF7FEBFFFF7FEBF9F
:10554000FFF7FEBFFFF7FEBFFFF7FEBFFFF7FEBF8F
:10555000FFF7FEBFFFF7FEBFFFF7FEBFFFF7FEBF7F
:10556000FFF7FEBFFFF7FEBFFFF7FEBFFFF7FEBF6F
:10557000FFF7FEBFFFF7FEBFFFF7FEBFFFF7FEBF5F
:10558000FFF7FEBFFFF7FEBFFFF7FEBFFFF7FEBF4F
:10559000FFF7FEBFFFF7FEBFFFF7FEBFFFF7FEBF3F
:1055A000FFF7FEBFFFF7FEBFFFF7FEBFFFF7FEBF2F
:1055B000FFF7FEBFFFF7FEBFFFF7FEBFFCAA030029
:1055C000A24A04E400F8FFDC00FAFF8100D10000E9
:0155D00001D9
:04000005080054DDBE
:00000001FF
